:020000040800F2
:1000000010320020C56200080D6200080F6200086F
:100010001162000813620008156200080000000069
:10002000000000000000000000000000D75F000892
:100030001762000800000000915F0008E13100082D
:10004000FD620008016300080563000809630008F9
:100050000D630008116300081563000819630008A8
:100060001D63000821630008256300082963000858
:100070002D63000831630008356300083963000808
:100080003D630008416300084563000849630008B8
:10009000196200084D6300085163000855630008A9
:1000A000596300085D630008616300086563000828
:1000B000696300086D6300081F620008716300082F
:1000C00075630008796300087D6300088163000898
:1000D00085630008896300088D6300089163000848
:1000E00095630008996300089D6300087FB50400CC
:1000F0004FD004F52475687820B900222A70204674
:1001000000F094FD0321697000206071206800F008
:1001100090FE00F04AF8684690E80E00206800F073
:100120007FFE002833D12068002100F088FE70BBDC
:100130000021282000260BE000FB01F222440123CD
:1001400011745374491CD674166256629662C9B211
:1001500022799142F0DB002100230CE000FB01F248
:10016000224402F5A8721170491C5370D6701361B5
:1001700056619361C9B222799142EFDB00F015F824
:10018000684690E80E00206800F05BFE18B102207F
:100190006870012007E00021617301206870206809
:1001A00001F0E4FA002004B070BD6846211D092268
:1001B00001F00EBB10B500F013FC01D1022010BD00
:1001C00000F00AFC206800F02DFE00F0FBBB0021CF
:1001D000204600F01ABE2DE9F84F054686B0286883
:1001E00001F0C6FA01041CD4420540F1E0822868FF
:1001F00000F140014FF6FF308A8802408A8028468D
:1002000000F04BFD0021284600F0EFFB5CE30128E5
:1002100003D100F083FB002018803178284600F0DD
:100220002FFD2F6807F1440108880204EED50A88E3
:1002300012F00F00009048F280084BF68F7640F6DF
:100240008F7448F60F7B40F0BC80D0062CD4296810
:100250000A880BEA020040F4004B0846A0F800B000
:100260002868B0F85020297C02EBC10200EB420064
:1002700000F204400088696AC0F30900E86208449B
:1002800068620021284600F0FBFC687B0028C8D08B
:10029000A86A0028C5D1687B296840F08000A1F8D1
:1002A0004C0000226A73BCE728680088020505F547
:1002B000A8791FD5898999F8000001EBC00107EBE7
:1002C000410202F20C4205F526711088B9F80620A9
:1002D000C0F30900C9F81C000346384601F064FA6F
:1002E00029680888044044F080040C80284600F007
:1002F000B7FC96E7000494D52A6811880C40104694
:1003000044F0800404802868B0F8502099F8001068
:1003100002EBC10200EB420303F20C431988C1F364
:1003200009010029C9F81C100B461CBFD9F814108C
:1003300000290ED0B9F8062001F036FAD9F81400D9
:10034000D9F81C100144C9F814102846002100F007
:100350008DFC296809880805CBD401F44051B1F51A
:10036000405F2DD028680146B1F85010091801F2FD
:100370000C410888C0F309000880D9F810003F2814
:1003800008D3420910F01F0F08BF521E088840EA28
:10039000822001E018B9088840F4004006E04208D5
:1003A000C00748BF521C088840EA8220088028689D
:1003B0000288164086F4405648EA0608A0F80080F5
:1003C0002FE7296831F820900146282041435FEA51
:1003D0000940019148F68F7A40F1AF802968009872
:1003E00031F82020144044F0800421F82040019985
:1003F000294401F5A877387B90B92868B0F85010E7
:100400003A7801EBC20100EB410303F20C431C8874
:10041000C4F30904002C7CD0FA887969234676E07D
:10042000F878022848F2C00245D1D5F800C0B96971
:100430005FEA49433B78BCF850E00EEBC30E09F08D
:1004400040000CEB4E041CD504F204442488C4F391
:100450000904A1422CBF091B0021B96151B92968C7
:1004600031F823C006EA0C0686F4005648EA060670
:1004700021F8236008B100F03CFA002C49D03A89F9
:1004800042E004F20C442488C4F30904A1422CBFC6
:10049000091B0021B96151B9D5F800C03CF82310FF
:1004A0000E4086F4005648EA06062CF8236040BB4E
:1004B00000F01FFA25E02B68387833F820400AEA6C
:1004C00004041946224321F8202038782B6802467C
:1004D00033F822401A466104B2F8501001EBC00113
:1004E00002EB410208D502F204421488C4F3090465
:1004F000002C0ED03A8907E002F20C421488C4F3B3
:100500000904002C05D07A8923467969286801F00E
:100510004BF9F8692018F8617A6922447A61B86960
:1005200038B13869844204D32868394600F05EFE49
:1005300003E03978284600F099FB5FEA096065D549
:10054000019805F110010E182868009930F8212053
:100550000BEA020242F4004B20F821B0F0780128A7
:1005600030D10021B161307B002822D05FEA4960A0
:1005700020D5707880B92B68B3F850003178C31853
:1005800003EB011303F204431A88C2F309021A8031
:10059000188840F400403FE601280AD12A68B2F8E2
:1005A00050003178821802EB011202F2044200205E
:1005B000108032E67078296800287FF428AE00F0B9
:1005C000ADF9E1E72B68B0695FEAC9511A461ED45C
:1005D0003178B3F8503003EBC10302EB430202F26F
:1005E00004421288C2F30902824234BF801A0020FA
:1005F0000028B0613FF412AE706910447061F16977
:100600005218F2613146286800F0F0FD09E696F8CC
:1006100000C0B3F850305FEA496103EBCC0309F442
:1006200080444CF2800702EB430259D502F20442A7
:100630001388C3F30903834234BFC01A0020002883
:10064000B06104D100F07BF9002C63D058E00CB10C
:1006500000F059F996F82400012850D100F037F93C
:1006600003D31346C01A306201E000F060F97078DD
:1006700030BB2C68B4F850203078141904EB001407
:1006800004F204443F2B2288C2F30902228008D3DB
:100690005A0913F01F0F08BF521E208840EA82201B
:1006A00001E023B9208840F40040208014E058087D
:1006B000DA0748BF401C228842EA802222800BE0F1
:1006C000012809D12C68B4F850003278041904EBE1
:1006D000021404F20444238071619BB2328955E014
:1006E00002F20C421388C3F3090398422CBFC01ACC
:1006F00000200028B0610ED100F021F9002C48D173
:100700002968307831F820200AEA020247EA020A12
:1007100021F820A03DE00CB900F0F5F896F824008F
:10072000012836D100F0D3F803D31346C01A306243
:1007300001E000F0FCF82A687078F8B900F0D0F811
:100740003F2B2088C0F30900208008D35A0913F0FA
:100750001F0F08BF521E208840EA822001E023B903
:10076000208840F4004020800DE05808DA0748BF98
:10077000401C228842EA8022228004E0012802D123
:1007800000F0AEF8238071619BB27289286800F096
:10079000F9FF2968307831F8203048F6BF721340ED
:1007A00083F0300348EA030821F8208039E541044A
:1007B00005D5286800F140014BF6FF7081E0810407
:1007C00005D5286800F140014DF6FF7079E0C104BD
:1007D0001AD52A6832F8401F4FF6FB70014011808D
:1007E0004FF6F7702968B1F840200240A1F8402088
:1007F000284600F072FA2968B1F844204EF6FF70DE
:100800000240A1F844205FE0010546D5002002A97E
:100810002B6833F8202021F81020401C0828F7D33B
:100820002A6832F8400F40F0010010804FF6FE7049
:100830002A68B2F840300340A2F840302A68B2F883
:1008400044305805FBD5B2F844304FF6FF30034032
:10085000A2F844300023286831F8132020F8232020
:100860005B1C082BF7D32968B1F8400040F0080062
:10087000A1F840004FF2FF702A68B2F8441001401E
:10088000A2F844102968B1F8400040F00400A1F833
:100890004000284600F013FA16E081050BD52868C1
:1008A00000F140024FF6FF509188014091802846A8
:1008B00000F0EFF908E0C00506D5296840314FF691
:1008C000FF608A8802408A8007B0BDE8F08FF06937
:1008D00071691818F06119443269306A90427047A2
:1008E000B2F850008418327804EB021404F20C447D
:1008F00070472B68387833F820100AEA01010A4360
:1009000023F820207047296831F82C000AEA0000FB
:100910000A4647EA000A22F82CA07047B1F85000B6
:100920004318317803EB011303F20C43704710B105
:10093000034600203062002286F824207047707839
:1009400080B92A68B2F85000821802EB0C1202F249
:1009500004421188C1F309011180108840F400405D
:1009600010800BE0012829D12A68B2F850008218C3
:1009700002EB0C1202F20442002111802968707807
:100980000A4678B9B1F8501030788A1802EB001294
:1009900002F20C421188C1F309011180108840F461
:1009A00000400AE0012809D1B1F8500031788218DE
:1009B00002EB011202F20C4200201080317828462E
:1009C00000F05EB90121FFF703FC206800F0CCFEC7
:1009D000002084F8900210BD012084F89002704736
:1009E000044694F890020128704710B5FFF7F8FF0D
:1009F00001D1022010BDFFF7EFFF6173206800F006
:100A0000ADFEE5E770B5044601F007052820454333
:100A100060190E0647BF1030012500F5A8700025AB
:100A2000457001F0070101700261C370022B04BF21
:100A30000021017194F89012012901D1022070BDAA
:100A400000F01BF800F008FA002084F8900270BD56
:100A500010B5044600F09DF847BF1030012200F5A4
:100A6000A8700022427000F09BF801D1022010BD56
:100A700000F003F800F031FBAAE7012284F890228D
:100A800001462068704738B500F028F804F5A874CE
:100A900001F00701A36162610023E361637016E066
:100AA00001F00701282251430844D0F86C01704737
:100AB00038B500F013F810346261A361236201229B
:100AC000002301F0070184F82420E36162702170A3
:100AD0002146006800F08AFB002032BD01F00705C6
:100AE000282465434419704738B505460C462979D2
:100AF00004F00700814201D2012032BD28212206E4
:100B000006D54843284400F110010120487005E053
:100B10006143681800F5A87100224A7001208870AE
:100B200004F007040C7095F89002012801D102200E
:100B300032BD012085F89002286800F0B6FD24B986
:100B4000286805F5267100F016FE002085F8900251
:100B500032BD10B5044601F00F002379834201D263
:100B6000012010BD00F015F803D5103001224270AD
:100B700003E000F5A870002343700022827000F0AB
:100B80000FF801D1022010BDFFF777FF00F0A6FD9E
:100B90001EE701F0070228204243A0180B06704709
:100BA00001F00701017094F8901201297047F0B428
:100BB0000246106895681318506803EB5004C0078C
:100BC00048BF4D44A3422DD013F8016B16F003002B
:100BD00004BF13F8010BC01C31090F2907D113F80A
:100BE000011B0F3103E013F8017B05F8017B401E68
:100BF000F9D10029E6D013F8010BC6F38107032FC2
:100C000008BF13F8017B00EB072040422844002670
:100C1000B71E8F421EBF10F8017B05F8017B761CC2
:100C2000F6D1CFE7F0BC02F10C00704701687148C3
:100C3000814200D0704780B56F48016841F40001DF
:100C400001600022006800F4000000900521009B74
:100C5000142000F0E0FDBDE80240142000F0FABDD1
:100C600000F52671D0F8D40200F038BE0B462822D9
:100C700053430344D0F8D402D3F8642100F059BEA2
:100C80000B46282253430344D0F8D4025A6A00F09A
:100C90008EBED0F8D40200F021BF10B50446A07972
:100CA000022818BF01F0E8F8D4F8D402012100F0BE
:100CB00001FFD4F8D402BDE8104000F0D3BE10B557
:100CC0000446D4F8D40200F0F8FEA07A20B14B49D3
:100CD000086840F00600086010BDD0F8D40200F0AB
:100CE000F4BE10B504464648424BC0F8D442082131
:100CF000C4F8C002017102220021036082714181A7
:100D00000173FFF7F3F908B101F0B6F8D4F8C002A7
:100D100018230022002101F0CDF8D4F8C002582396
:100D20000022802101F0C6F8D4F8C002C0230022BE
:100D3000812101F0BFF8D4F8C0024FF4887300227B
:100D4000012101F0B7F8D4F8C0024FF480730022FB
:100D5000822101F0AFF8002010BD80B5D0F8C002AC
:100D6000FFF728FABDE8024050E010B51C461346D4
:100D7000D0F8C0022246FFF745FEBDE8104045E02E
:100D800080B5D0F8C002FFF763FEEBE780B5D0F87E
:100D9000C002FFF7A9FEE5E780B5D0F8C002FFF773
:100DA000D8FEDFE7D0F8C03201F07F0228204243AE
:100DB0009818090601D5807C704790F85201704759
:100DC00080B5D0F8C002FFF710FECBE780B5D0F8B1
:100DD000C002FFF76DFEC5E780B5D0F8C002FFF78F
:100DE00052FEBFE7D0F8C002FFF75ABE0548704771
:100DF00000000000005C00401C10024010ED00E00C
:100E0000681E0020602600207047704701460020C1
:100E100021B1022901D10120704702207047000052
:100E2000002070474030002282804FF43F4100F0A4
:100E300092BCB0F8402044F2FF0100F09EBC0020BC
:100E40007047012120F8401F002303800022828088
:100E500000210182002070472DE9F0470B46024631
:100E6000197832F82160DC7848F68F15002035407B
:100E7000032C0CD8DFE804F002080C0545F40075DB
:100E800006E045F4C06503E045F4806500E001201C
:100E900048F2800848EA050522F8215048F68F7686
:100EA0001F78394632F8215035402F4348EA07076A
:100EB00022F821704BF68F75197B93F8009000296A
:100EC0004CF2800748F6BF7C48F2C00E77D1D98833
:100ED0004FF6FE7404EA010A59780029B2F850105E
:100EE0001DD08C1804EB091101F58069A9F800A048
:100EF000197832F821506D0606D532F821502E406F
:100F00004EEA060622F821601978DB78012B32F8C8
:100F100021300CEA030301D083F02003ACE08918F0
:100F200001EB091101F58169A9F800A0B2F8501090
:100F30008C18197804EB011404F20C442188C1F3D5
:100F40000901218019693F290AD34FEA511C11F088
:100F50001F0F08BFACF1010C218841EA8C2101E090
:100F600019B9218841F4004108E04FEA510CC90742
:100F700048BF0CF1010C218841EA8C2121801978AD
:100F800032F821C05FEA4C4406D532F821C006EAA7
:100F90000C063E4322F82160197841B911880D40B2
:100FA00085F4405548EA0508A2F8008093E032F83D
:100FB00021301D4085F4005548EA05085EE0D978E7
:100FC000022909D132F82910314041F4014141F0A0
:100FD000800122F8291009E032F829A048F68F6133
:100FE00001EA0A0148EA010A22F829A0B2F8509061
:100FF00019781C89914409EB011101F580694FF6BC
:10100000FE7101EA040AA9F800A04FF6FE79B2F8D1
:1010100050108C18197804EB0114598904F5816477
:1010200009EA0101218059781C78002932F824103E
:1010300027D1490405D532F8241031400F4322F856
:101040002470197832F821707F0606D532F82170A5
:101050003E404EEA060622F82160197832F82160F7
:10106000354085F4405548EA050522F821501978A5
:1010700032F821300CEA030348EA030822F8218001
:1010800029E0490405D532F8241031400F4322F8F5
:101090002470197832F821707F0606D532F8217055
:1010A0003E404EEA060622F82160DE781978012ECD
:1010B00032F821600CEA060418BF84F0200448EAE4
:1010C000040C22F821C01B7832F823100D4048EAA6
:1010D000050822F82380BDE8F0872DE9F04102469B
:1010E00091F8008048780B7B4BF68F754CF28006A8
:1010F00048F2800748F6BF7C48F2C00E48F68F746D
:10110000B3B9002832F8280009D0400637D532F8A4
:10111000280004404EEA040E22F828E02FE04004A4
:101120005AD532F828000440264322F8286053E0BC
:10113000002832F828002BD1400405D532F82800C9
:101140002040064322F82860087832F820305B06F9
:1011500006D532F8203023404EEA030322F820302F
:101160000B7832F8230004404EEA040E22F823E004
:101170000B7832F8230005403D4322F823500978CC
:1011800032F821000CEA0000074322F821702AE01F
:10119000400405D532F828002040304322F82800CA
:1011A000087832F820305B0606D532F8203023402C
:1011B0004EEA030E22F820E00B7832F823000440B8
:1011C000264322F823600B7832F823000CEA000053
:1011D00047EA000C22F823C0097832F821000540C4
:1011E0003D4322F821500020BDE8F0812DE9F8436D
:1011F0000D4606466878012848F2800848F68F7246
:1012000040F00781AC692969A14238BF0C46287BB0
:1012100030B9EA8800F03CFA00F031FA3C80EBE0AB
:1012200095F803E028782F6ABEF1020F034640F0DC
:10123000C680B94280F0B48036F82300024042F400
:10124000014242F0800226F82320381B28626208FF
:101250002F786878BE4636F82E9063095FEA496EAB
:1012600004F0010151D5D0B9B6F85000801900EB57
:10127000071000F20C4000F0F2F907D314F01F0F32
:1012800008BF5B1E018841EA832101E01CB9018887
:1012900041F4004101E000F0CBF901800AE00128AF
:1012A00008D1B6F85000801900EB071E0EF20C4E64
:1012B000AEF800406A8900F0EBF900F0BFF932BFE8
:1012C000091B0C46002168782962D8B900F0D7F9CB
:1012D00000F0BFF907D3610914F01F0F08BF491EC2
:1012E00000F0B3F901E024B9388840F400403880B8
:1012F0007CE06008E10748BF401C398841EA802152
:10130000398073E0012871D154E0A8B900F0AFF939
:1013100000F0A5F907D314F01F0F08BF5B1E01886A
:1013200041EA832101E01CB9018841F4004101E058
:1013300000F07EF9018004E0012802D100F097F965
:1013400004802A8900F0A4F900F078F932BF091B63
:101350000C46002168782962D8B900F09DF900F0A8
:1013600078F907D3610914F01F0F08BF491E00F078
:101370006CF901E024B9388840F4004038802CE052
:101380006008E10748BF401C398841EA8021398064
:1013900023E0012821D1B6F850008719287817E0FA
:1013A00036F8231048F68F60014048EA010126F81C
:1013B00023103C46B6F850008719287811E0391BF5
:1013C000296236F823104A06B6F8501008D58F194E
:1013D00007EB001707F20C473C80A3B26A8907E0CD
:1013E0008F1907EB001707F204473C80A3B22A8944
:1013F0006969304600F0C6F92A7836F8221048F6B6
:10140000BF70014081F0300148EA010826F82280CF
:101410002EE0297B002938D1A9692869884232BF8A
:10142000091A08460021A961B6F850108F192978C9
:1014300007EB011707F20C473F283A88C2F309026D
:101440003A8018D3410910F01F0F08BF491E00F061
:10145000FCF840F400403880297836F821204BF61B
:101460008F70024082F4405248EA020826F8218038
:101470000020BDE8F28308B93888EAE74108C007D0
:1014800048BF491C00F0E1F8E5E7E97802296FD18F
:1014900020BBB6F850102878891901EB001101F231
:1014A00004410B88C3F309030B8028693F2808D344
:1014B000430910F01F0F08BF5B1E088840EA832015
:1014C00001E018B9088840F4004006E04308C0076E
:1014D00048BF5B1C088840EA83200880687818BBF6
:1014E000B6F850002978871907EB011707F20C4767
:1014F0003888C0F30900388028693F2807D341099C
:1015000010F01F0F08BF491E00F09FF801E018B946
:10151000388840F4004005E04108C00748BF491C36
:1015200000F093F838800BE0012809D1B6F850009C
:1015300029698719287807EB001707F20C473980CB
:10154000E869002888D0287836F8204044F2400125
:1015500001EA04038B4218BF0C4208D136F8201070
:101560000A4042F4004242F0C00226F8202073E70D
:1015700001295BD1AA692969914232BF521A1146E9
:101580000022AA614B0801F001024C0958BBB6F8D1
:1015900050002F7800F06DF83F29B0F800E0CEF34E
:1015A000090EA0F800E00ED3A44611F01F0F08BFEB
:1015B000ACF1010CB0F800E04EEA8C2747F4004E85
:1015C000A0F800E00FE021B9B0F800C04CF4004CE6
:1015D00007E09E460AB10EF1010EB0F800C04CEAD9
:1015E0008E2CA0F800C06878D0B900F055F83F29DB
:1015F000B7F800C0CCF3090CA7F800C007D311F06E
:101600001F0F08BF641E388840EA842021E709B90B
:10161000FFF732BF02B15B1C388840EA83201AE72B
:10162000012802D100F038F8398015E7012020E7C1
:1016300001B1521C018841EA822170476869296A18
:1016400020446861286988427047388840EA8120D0
:1016500070473F2C3988C1F30901398070473F2C0E
:10166000B0F800C0CCF3090CA0F800C07047B6F881
:101670005000801900EB071000F204407047B6F8E4
:1016800050008719287807EB001707F204477047C6
:101690006969A3B2304675E0B6F85000871928781A
:1016A00007EB001707F20C47704710B50A78497826
:1016B00030F82240002948F2800305D048F6BF7177
:1016C0000C4084F0100404E04BF68F710C4084F45D
:1016D0008054234320F82230002010BD30B50A7B0F
:1016E000002A36D14A780C78002A30F8242048F2B3
:1016F000800348F68F7516D0520608D530F824209E
:10170000154045F4004545F0C00520F82450CA783E
:10171000012A1ED00C7830F8242048F6BF710A4008
:1017200082F0200212E0520408D530F8242015403F
:1017300045F4404545F0800520F824500C7830F8F9
:1017400024204BF68F710A4082F44052134320F854
:101750002430002030BD01800020704711B9802165
:10176000A0F84C1000207047002070470020704700
:10177000B0F844007047002070470A40A0F84020AD
:101780000020704710B500EB42005B1C00F5806044
:101790005B0807E00C784A7844EA0224891C20F8A8
:1017A000044B5B1EF6D110BD10B500EB420000F5F6
:1017B00080605A0806E030F8044B0C70240A4C7024
:1017C000891C521EF7D1DA0744BF0088087010BD8B
:1017D0004AB1000011F8013B521E00F8013B1CBF4A
:1017E00011F8013BF8E770470A01010002D41F4BD2
:1017F0005A5470471E4801F00F01014401F8042CAF
:1018000070471C490A6860F30A2240F2FA5060F3FC
:101810001F420A60704770B5164C2368C3F3022359
:101820000124C3F10705052D2FBF0F26C3F10706BD
:1018300004FA06F6761E1D1D072D34BF0023DB1E9D
:101840003140994004FA03F3BDE870405B1E1A4032
:101850001143C9E7010007D4012200F01F01064B24
:101860008A40400943F820207047000000E400E06F
:1018700018ED00E00CED00E000E100E038B508B93B
:10188000022032BD00F52774A3690BB10025A561C4
:1018900001B16161012121700270FFF722FA00207D
:1018A00032BD0246002011B1C2F8B41270470220C6
:1018B000704780B5FFF751FA002002BD10B5D0F88F
:1018C000B42202241AB11268904700B900242046BD
:1018D00010BD80B5D0F8B4325A680BE138B5044673
:1018E00004F52A75284600F0E8FC04F5257001226D
:1018F000418B41600260017D11F01F0003D002287E
:101900000BD005D30EE02946204600F0EDFA0EE09C
:101910002946204600F018FC09E02946204600F040
:101920003BFC04E001F080012046FFF72FFA002085
:1019300032BD38B5044610460A0004F525732AD195
:10194000196803291ED104F5B0756A6829688A42AE
:101950000BD2891A2960914238BF0A46014692B2D9
:10196000204600F00DFD002032BD196A086928B13B
:10197000187A032802D1096920468847204600F0DA
:1019800003FDF0E70529EED1002018600021204674
:10199000FFF7FCF9E7E71A6A906930B1187A032873
:1019A00003D1926920469047DDE7022032BD38B569
:1019B00005460800134605F5257447D1206802281E
:1019C00035D12A6A696A914207D2521A2A621946A7
:1019D00092B2284600F0C1FC11E0EA69B2FBF1F0D6
:1019E00001FB102090B98A4210D3606882420DD268
:1019F00000220021284600F0B0FC00206060002397
:101A0000002200212846FFF7E7F918E0216AC8689C
:101A100028B1207A032802D1C96828468847802146
:101A20002846FFF7B3F9284600F0B9FC07E0042880
:101A300018BF002803D180212846FFF7A7F9217B92
:101A4000012904BF00202073002032BD226A5069A2
:101A500030B1207A032803D1526928469047F3E732
:101A6000022032BD10B50446402300220021FFF7BA
:101A70007CF904F5AC70012240210260C160402372
:101A8000002280212046FFF770F90121402004F553
:101A90002572A1616062002311721360636013619B
:101AA000506A28B1136A61685A68C9B220469047E3
:101AB000002010BD01740020704700F5277004213C
:101AC0000278427001700020704700F5277001789D
:101AD000042904BF417801700020704780B500F5EB
:101AE00027721178032903D19169C96901B1884727
:101AF000002002BD9047002002BD000030B585B037
:101B000000F058FC00F0BEF8684600F0F8F8CB484A
:101B1000CB4D0268CB4C42F010020260016801F02C
:101B200010010491049B026842F004020260016803
:101B300001F004010491049A016841F00801016078
:101B40000022006800F0080004904FF4005104984F
:101B5000284600F013FD00224FF49C51204600F06F
:101B60000DFD012101914FF400500221009000224F
:101B7000039102926946284600F02EFC0122019250
:101B80004FF49C500021009002910222039269467A
:101B9000204600F021FC4FF4E0600090002201920A
:101BA00002926946A848A94C00F016FCA84860605B
:101BB0000021A1600020A74AE0604FF480416061ED
:101BC000A061E061206222602161204600F0FCFCFF
:101BD00008B100F051F9A04DA0486860002140F61E
:101BE000FF70E860A960281D01F099F908B100F0C4
:101BF00043F94FF4E1309A49A06561650C2000215A
:101C0000A066E16521666166E166216704F1540022
:101C100001F0B6F908B100F02FF980234FF40072FB
:101C20002146904801F02AFA01F0E7FA9DA201212D
:101C3000012001F0AAFBE8615FF0000295A30FF21A
:101C4000ED10894D01219C3401F065FBE06002211B
:101C50008AA2102001F036FCA0602A4600210FF273
:101C6000AD0001F0F4FA206005F1240200210FF22A
:101C7000891001F0ECFA606001F0CEFA642001F006
:101C800032FBFBE718B593B0282109A801F054FCFA
:101C90001421684601F050FC05A800F030F80A2134
:101CA0000991012210210E910D92022110910F92A3
:101CB0004FF420111193129109A801F041FC08B1D1
:101CC00000F0DAF8022101910F224FF480610391B4
:101CD0000491009202940121684601F0B2FD08B11E
:101CE00000F0CAF8102005904FF48001089105A873
:101CF00001F09EFE08B100F0BFF814B010BD002145
:101D000000220023002480E81E0070472DE9F047E0
:101D100001F002FF4FF4FA7001F0E5FA534C514D17
:101D2000DFF81CA14C4F13E000224FF40051504645
:101D300000F024FC00F05AF8002001F017FF2846BC
:101D400001F014FAF86901F08CFB642001F0CBFA81
:101D500038780028E8D039780129F9D1786900F07D
:101D600042F8214601F01CFF01F086FF8046B86969
:101D700000F039F8214601F013FF01F07DFF8146A4
:101D8000386900F030F8214601F00AFF01F074FFD5
:101D9000064613E04FF40051504600F0F3FB00F00C
:101DA00025F8B0B201F0E2FE284601F0DFF9F8694B
:101DB00001F057FB322001F096FA4E44B04505DBA6
:101DC000381D01F0D7F838780128E3D03978012997
:101DD000BED100F00BF8002001F0C8FEF86901F058
:101DE00040FBC820B2E7224901F05ABFF8694FF022
:101DF000FF3101F011BB000038B54FF47A7001F0EB
:101E000072FA184D144CE0694FF0FF3101F004FBF9
:101E100005F1080001F0D0FFE06901F022FB01F0BC
:101E2000E5FF642001F05FFAEDE70000704701680C
:101E30001048814208BF02F017B8704718100240DE
:101E400000100140000C014000080140AC2B0020B4
:101E5000A086010000580040E82D0020003000401E
:101E600000440040C42D00204061000800F07F4580
:101E7000333353400008004072B6FEE7EC620008BE
:101E80000000000000000000000000000000000052
:101E900000000000E06200080000000000000000F8
:101EA00000000000B4620008000000000000000014
:101EB0000000000030B528250C0605D501F007010B
:101EC00069430844103003E06943084400F5A870F2
:101ED0001AB900210173C38004E0038101211B0CA6
:101EE00001734381002030BDF8B50C4605462078CB
:101EF00010F0600005F5277608D0202818BF40288C
:101F000024D1B269936828469847ABE06278092AE1
:101F10001CD8DFE812F0F7000C01870006018700EB
:101F20008C000A008700E200A9000021ADF8001033
:101F30006088010A01296FD0022961D003292BD0C2
:101F4000062921D0072904BF287C00286AD1B2695C
:101F5000116B6846884707224270BDF8001079B1BE
:101F6000E18800290FD0BDF80010E288914288BFB7
:101F70001146ADF800100A460146284600F0E0F987
:101F8000E08800286ED19BE0287C00284AD1B26905
:101F9000516B68468847E0E7C0B2052842D8DFE8C1
:101FA00000F028211A130B0370698269002A39D0C6
:101FB000287C69469047D0E770694269002A31D091
:101FC000287C69469047C8E77069026952B3287C4B
:101FD00069469047C1E77069C2681AB3287C6946B0
:101FE0009047BAE770698268E2B1287C69469047F9
:101FF000B3E770694268AAB1287C69469047ACE7AC
:10200000287CB1690028684603D1896A8847022282
:10201000A2E7C96A8847FAE77369287C1A686946A3
:1020200090479AE72146284600F05BF91AE0A0881D
:10203000002804BFE0880028F4D16788802FF1D2FF
:102040003078032807F07F07ECD0B7703946284670
:10205000FEF7B6FE284600F097F9002F0CBF0120CE
:10206000022030700020F2BD364F61883970397817
:1020700008460228D6DA3278022A18D0032A23D159
:1020800031B90220307069602846FFF722FC17E062
:102090006968884214D0C9B22846FFF71AFC39781B
:1020A00069602846FFF70AFC022809D1BAE739B16E
:1020B0006860032030702846FFF700FC0228B1D08A
:1020C000284600F061F9CDE72146284600F009F9DD
:1020D00039782846FFF7FDFBC4E7E0880128A1D145
:1020E0003178491E012907D9891E9BD10122291D5A
:1020F000284600F025F9B5E70020A860012205F187
:102100000801F5E73178491E02298BD8E288022AB6
:1021100088D1B068012100B10321E96005F10C010B
:10212000E6E7608801289DD10121B160C8E73178D8
:10213000491E0229ECD86288012A93D10020B060A0
:10214000BEE700000C2E002038B50D460446287866
:1021500010F060001CBF2028402817D104F527721A
:102160001178491E022911D82B79022B0EDA9369B6
:102170009A682946204690470146E888002808BF0B
:10218000002907D1204600F0FFF803E02946204649
:1021900000F0A7F8002032BDF8B50D7804460879A4
:1021A00015F0600204F5277308D0202A18BF402AD2
:1021B00066D19B699A682046904764E005F0600507
:1021C000202D05D19A6993682046BDE8F440184750
:1021D0004A7882B3012A11D0032A51D11B78022BED
:1021E00012D0032B4CD14A880ABB002818BF802884
:1021F0001DD0C988D9B900F05CF818E01A78022A15
:1022000002D0032A0AD03BE0002818BF802837D02C
:1022100000F04FF8802100F04DF834E04A8892BB7E
:1022200010F07F0103D001462046FEF7B5FD2046A1
:1022300000F0AAF827E0142700F07F021B787A4309
:10224000A618022B06F5AA7500F0800202D0032B17
:102250000FD015E0002818BF802811D10AB106F16F
:1022600014050020286002222946204600F068F864
:1022700009E000F00F035F43E31932B19A696AB9CC
:10228000204600F02EF80020F2BDD3F85821002A95
:10229000F6D0002818BF802803D1E2E706F1140524
:1022A000F7E701462046FEF77DFD0028DAD0012041
:1022B000D8E701462046FEF769BD0B7803704A78DF
:1022C00042708B78CA7803EB022343804A790B79FA
:1022D00003EB022383808A79C97902EB0122C28051
:1022E000704710B504468021FEF750FD2046BDE83A
:1022F00010400021FEF74ABD00280B4600D1704770
:1023000070B50546002100E0491C15F8014B002C72
:10231000FAD10906C90D891C1180032112781A709F
:1023200059700222002507E010F8016BD1B2521C4F
:102330005E54D4B2521C1D5501780029F4D170BDF1
:1023400010B5C2610262134602240A46C0F89442E4
:102350000021FEF73BFD002010BD80B513460A4664
:1023600018E010B50324C0F89442134600F5AE748B
:10237000226062600A460021FEF72EFD002010BD9B
:1023800080B513460A4610E080B50421C0F89412C7
:10239000002300220021FEF719FD002002BD80B5B8
:1023A0000521C0F89412002300220021FEF714FD3D
:1023B000002002BD80B50748016841F010010160AE
:1023C0000320FFF71EFA0F2001F056FD01F0A2FDD9
:1023D000002002BD002002402DE9F84F0027002414
:1023E0006C4BDFF8B481DFF8B491DFF8B4B14FF093
:1023F0000F0A024610E0D3F800E000EA0E00186071
:1024000009E0C3F804C04D68ED03F4D518684EEA3E
:10241000000EC3F800E07F1C0D6835FA07F000F0ED
:10242000AB80012000FA07FC0CEA050EE645F2D16C
:102430004D683DB3012D1AD0022D1DD0032D2ED095
:10244000112D16D0122D1AD0564885421CBF564861
:10245000854217D0554885421CBF5548854211D04A
:10246000544885421CBF544885420BD018E0CC68C4
:1024700016E0CC68241D13E0CC68083410E0CC686A
:102480000C340DE0886808B9042409E0012819BF5C
:102490000824C2F814C00824C2F810C000E00024C8
:1024A000BEF5807F03D210464FEA870C04E0A7F107
:1024B0000805101D4FEA850C06680AFA0CF5AE43B4
:1024C00004FA0CF545EA060CC0F800C04868C000E4
:1024D000A1D5D9F800C04CF0010CC9F800C0BD006E
:1024E000D9F8000000F00100009005F00C0C0098F5
:1024F000B80858F820600AFA0CF5AE435A4508BFF0
:1025000000250ED02D4DAA4208BF012509D02C4D23
:10251000AA4208BF022504D02A4DAA420CBF0325B7
:10252000042505FA0CF545EA060C48F820C06FEAC8
:102530000E004D68ED0204D59D684EEA05059D60CC
:1025400005E0D3F808C000EA0C0CC3F808C04D68D9
:10255000D3F80CC0AD024CBF4EEA0C0C00EA0C0CD8
:10256000C3F80CC04D68D3F804C0AD034CBF4EEAAD
:102570000C0C00EA0C0C44E7BDE8F18F02B9090429
:1025800001617047C36801EA0302994341EA0241CD
:10259000016170470004014008000140181002402A
:1025A000000801400000111000001210000021106E
:1025B000000022100000311000003210000C014019
:1025C0000010014000140140F8B5040022D004F1CD
:1025D0003C05697821B900202870204601F0BBFC39
:1025E00024216970DFF8707500F048FB20680168ED
:1025F00041F4004101602168086820F4004008604F
:1026000001F0C6F96268BA42014605D2DFF84C050E
:10261000814205D20120F2BDDFF844058142F9D3A1
:102620002368DFF840255868B1FBF2F2800942EADE
:102630008010586023681E6A6068B84206D34FF461
:10264000967042434FF47A70B2FBF0F2521CB60916
:1026500042EA86121A62491E2268D3696668BE423F
:1026600006D2760000F044F8042913D2042111E0C8
:10267000A06820B906EB460600F03AF805E01920FC
:10268000464300F035F841F4804108050CBF0121B4
:1026900041F40041DFF8D00403400B43D3612368C9
:1026A0001A68E069216A22F0C00202430A431A60F4
:1026B0002368DFF8B8049A6821690240E0680A4399
:1026C00002439A602268D368A06961691B0A40EAE4
:1026D00003230B43D36020212068026842F00102EB
:1026E000026000206860697020630021A970F2BD5B
:1026F000B1FBF6F1491CC1F30B0170472DE9F8431A
:1027000004460F469046994601F092FC00F0E1F92C
:1027100002D100F07FFA002840F08A80307801284A
:1027200000F086800122327000F0AEFA2120707035
:102730001021B17000207060C4F82480A4F82A90A1
:1027400000F0EDF9E06A08281CBF0128884205D096
:10275000206B122804D100F07FFA01E000F0A4FA07
:1027600000950022DDF8208043464FF0011100F073
:1027700056FA38B122681068C1054FD54FF4007081
:1027800070604BE02069B0F5804F04D1216807F0FC
:10279000FE070F6111E0F809216800F0060040F023
:1027A000F00008612B464246DFF8C41300F0ACF994
:1027B000002833D12068FFB207612B464246DFF87C
:1027C000B41300F0A1F9002828D100F03EF80099D8
:1027D000208D002824D02A464146204600F0FFFAEA
:1027E000B8B9626A20681178016100F024F82168A4
:1027F0004B695A0706D580B220B1626A1078086129
:1028000000F019F82A464146204600F017FB002840
:10281000DED07068042801D100F06DF9012008E0D5
:1028200000F0DFF9202171700020B070307000E0FE
:102830000220BDE8F283616A481C6062618D481E17
:102840006085218D481E2085704700902068416971
:1028500000918269009270472DE9F84F04460020EC
:10286000009088461746994601F0E2FB00F031F9E6
:1028700002D100F0CFF9002840F022813078012801
:1028800000F01E810122327000F04FF9102200F09A
:1028900055F97170B270002070606762A4F82A90D8
:1028A000608D2085DFF8D002E062E36A21680A6863
:1028B00042F480620A60082B18BF012B04D08342C7
:1028C0001CBF206B112801D100F0C6F90095002231
:1028D0000A9F3B464FF0011100F0A1F94FF4007937
:1028E00038B122681168C80548BFC6F804900120B5
:1028F000E7E02069DFF87CB2B0F5804F07D148F0FF
:1029000001005FFA80F82068C0F810802FE04FEADD
:10291000D810226800F0060A4AF0F00111612B4637
:102920003A46DFF84C1200F0EFF80028DFD12068BB
:102930005FFA88F8C0F8108000F0E3F80028D6D1DC
:1029400000F095F9009A23681968184641F48071DF
:10295000016000953B4600224FF0011100F05FF945
:102960000028BED120684AF0F10AC0F810A000F09B
:10297000C8F80028BBD1208D10B900F038F928E044
:10298000012802D100F052F90BE00228206801680A
:102990000BD141F40061016072B600F0B8F800F0AC
:1029A000F3F81046016062B613E041F48061016003
:1029B00000F0ADF800990CE000F027F9002896D15E
:1029C00000F093F8511C6162208D411E218500F0BA
:1029D000E4F8208D00286DD0042857D20128EBD0D0
:1029E0000228DFF8441200953B4614D1002200F083
:1029F00016F90028E3D172B600F07DF800F075F802
:102A0000208D511C6162411E218500F0C6F862B61E
:102A100000F050F9D8E7002200F001F9002829D190
:102A200000F093F872B600F05AF8208D4A1C411E4F
:102A3000626221851922608D411EDFF818026185CE
:102A40004FF47A710368B3FBF2F200F097F800F0EC
:102A500009F920B1216848694107F8D50BE02063E6
:102A6000202171700022B270706840F02000706008
:102A700062B632703BE722681168104600F098F8A1
:102A8000616A208D4A1C411E6262BDE700F0BDF8FC
:102A90000028EFD100F094F89BD580B2032801D133
:102AA00000F07FF800F01BF84A1C218D626200F0F4
:102AB0000AF88EE720217170B0700021317000E0BB
:102AC0000220BDE8F28F481E2085618D481E60857A
:102AD000704704F13C06054670782028704722684C
:102AE0001169606A0170616A704720680169606AF3
:102AF0000170626A70472068016841F400710160EA
:102B000070472B463A465946204600F013B900203C
:102B10000090206841690091826900927047608D41
:102B2000DFF854102085E162704720680168CA0709
:102B300003D4016841F00101016070472168086811
:102B400020F400600860222170472168086820F4A2
:102B50008060086070470000A186010080841E002C
:102B600000093D0040420F000030FFFF007CFFFFE6
:102B700008000100020001000000FFFFB2FBF1F1BC
:102B80002320414300917047009B2268116821F483
:102B900080617047616A4A1C6262608D411E618576
:102BA000704722681168104621F480610160704707
:102BB00041F40071016022681169606A0170704718
:102BC00020680169606A0170616A208D4A1C401E9C
:102BD00062622085638D5A1E628521684A695107A9
:102BE00070472168086840F40070086070470090E2
:102BF00021684869009089690091009B22681168EA
:102C0000104641F40071016070472A46394620465B
:102C100000F036B9009519230122DFF8881020460C
:102C200000F050B8000000000400010020680168B6
:102C300021F48061016072B6002000902068416933
:102C4000009182690092009B2268116841F4007132
:102C500070470000180000202068016841F480716E
:102C6000016070470098401E0090009870470090E7
:102C70002168486900908969009170472168086857
:102C8000400840000860704720680168CA0703D404
:102C9000016841F0010101602068016821F40061D0
:102CA00001607047020010002168086840F48070DD
:102CB0000860704720680169606A0170616A4A1C97
:102CC000626270472DE9F8430E46089F054691461B
:102CD0009846340C2968E0B201280CBF496989691B
:102CE00000F078F80CBF01200020484520D118F1F1
:102CF000010FEFD001F09CF9C01B804502D3B8F161
:102D0000000FE7D12968E0B201280CBF4969896941
:102D100000F060F80CBF012000204845DAD100F037
:102D2000DBF842F02002426001700120BDE8F2832E
:102D30000020FBE72DE9F0410E4605461446984673
:102D4000370CF8B2012821D129684869304080B297
:102D5000B1B288421FD02868416948051DD529684D
:102D60000B680A4643F4007313606FF480612868AF
:102D70004161002205F13C002A63202141708270EC
:102D8000416841F00401416002701BE028688169DC
:102D900000F020F8DFD1002015E014F1010FD0D0B1
:102DA00001F046F9A0EB0800844201D3002CC8D101
:102DB000F8B22968012808D1496900F00BF8C3D09E
:102DC00000F02FF80120BDE8F081896900F002F8D9
:102DD000DCD0F5E7314089B2B0B28142704770B5BE
:102DE00005460C46164628684169080617D4284649
:102DF00000F07CF818B914F1010FF4D001E00120C3
:102E000070BD01F015F9801B844201D3002CEAD17A
:102E1000286841690806E6D400F003F8EFE70020CF
:102E200070BD002105F13C002963202242708170B1
:102E3000426842F0200242600170704770B505465A
:102E40000C46164628684169480717D4284600F002
:102E50004DF818B914F1010FF4D001E0012070BD54
:102E600001F0E6F8801B844201D3002CEAD12868E7
:102E700041694807E6D4FFF7D4FFEFE7002070BDB3
:102E800070B505460C46164628684269510621D49D
:102E90004269D10608D56FF01002426100F01CF8BB
:102EA00042600170012070BD01F0C2F8801B8442B5
:102EB00001D3002CE8D1286841694806E4D40021F8
:102EC00005F13C002963202242708170426842F083
:102ED0002002E5E7002070BD00202863202205F1D4
:102EE0003C000021427081704268704710B5016853
:102EF0004A6954050DD56FF480634B61002101636D
:102F00003C30202343708170436843F004034360E6
:102F1000017012F4806018BF0120C0B210BD38B536
:102F2000040001D1012032BD20684CF6CC4303607F
:102F300045F25551016062684260A168816001F00C
:102F400077F805462068C16811F0030F0DD001F035
:102F50006FF8401B41F23D318842F3D32268D068BC
:102F600010F0030FEED0032032BD4AF6AA21016013
:102F7000002032BD00684AF6AA2101600020704797
:102F800038B5040001D1012032BD04F14005687854
:102F900008B900F009F800F00CF800F022F8FFE79B
:102FA000486100F010F832BD00212970204600F081
:102FB000FEBF242068702168C86820F40050C860F3
:102FC000204600F019B82168C86840F40050C86075
:102FD0006A60202169702020A870002161630020B0
:102FE00070472168086920F4904008610022216838
:102FF000486920F02A00704710B50446226811691C
:10300000E06821F4405101431161D3681948A16877
:10301000034020690B43616903430B43D3601649A6
:103020005369A06923F4407303438A42536102D178
:1030300000F0B6FC01E000F0ABFC626819214843E7
:103040009200B0FBF2F26421B2FBF1F16FF0630089
:1030500000FB0122120132326423B2FBF3F000F0D4
:10306000F00202EB0112216800F00F008018886066
:1030700010BD0000F3E9FFFF0038014010B501600A
:1030800082808371012180F820100022002300EB50
:10309000420400EB8201521C2381042A0B61F6DBFF
:1030A00010BD1FB5044694F82000002853D0042911
:1030B00051DAB4F90420A079091D42EA0132104323
:1030C000012140F401408DF8081040F0030002A9EE
:1030D00002048870120E642000904A700323206856
:1030E00002AA9021FFF70AFB002834D1A079C0B1D1
:1030F000202814D0402810D060280CD0A02808D058
:10310000C02804D0E0280CBF03200A200AE00420D5
:1031100008E0062006E0142004E0282002E0462013
:1031200000E0822000F0DFF800208DF80600642126
:103130000091012320680DF106029021FFF7DEFACD
:1031400048B901AA022310809021642000902068D1
:10315000FFF782FB08B1002006E09DF804109DF8FF
:10316000050040EA012000B204B010BD70B504466D
:103170000025E9B2204604EB4506FFF792FF3081B7
:103180000146204600F008F804EB85016D1C042D73
:103190000861EEDB70BD000010B5B0F904406412A8
:1031A00004F00704062CA8BF0524084600F046FFDB
:1031B00005A151F8241000F0F3FCBDE810400149CE
:1031C00000F06EBD0024744900803B430000FA42C9
:1031D00000007A420000FA4100007A410000FA4003
:1031E00080B5DFF8D412086801F061FA012803D035
:1031F000BDE8014001F0DCBB01BDEFF3058000B18B
:103200006EE0DFF8B812086810B901220A60704752
:103210004FF0FF307047000080B5EFF3058000B13C
:103220000FE0DFF898020168012909D1DFF8901258
:1032300000220A700223036001F028F8002002BD7A
:1032400002E06FF0050002BD4FF0FF3002BDF8B59F
:1032500084B000230393EFF30583002B3DD10300DB
:103260003BD08025182600245AB3136803B11C46AE
:1032700093691BB11E0004D0392E02D21779FB07C7
:1032800001D500202AE0536903B19D08D2F80CC093
:10329000976887B1BCF15C0F1FD31269002A18BF71
:1032A000002B1AD001920B46029700962A4621461F
:1032B00000F0D6FE10E0BCF1000F04BF1269002A36
:1032C0000BD103AB019300960B46AAB2214600F046
:1032D000F8FE012801D000200390039805B0F0BD4E
:1032E0006FF00500704710B5EFF3058111B16FF075
:1032F000050403E0002408B100F0AFFF204610BD34
:1033000080B501F090FD010004D048680968BDE86F
:103310000440084701BD2DE9FE4305460F4690468F
:103320001E460024EFF3058020BB1DB3082001F0EA
:103330009DFD5FEA00091DD0C9F80050C9F804805E
:103340003A0018BF01220020DFF8E871BEB13168F1
:1033500001B10846F168B3687BB12C2907D301930A
:1033600000974B46012101F0ABFB040002D1484617
:1033700001F004FE2046BDE8FE830029F7D1009746
:103380004B46012101F082FBEFE77CB50E46144667
:103390000025EFF3058100293CD100283AD0B04246
:1033A00038D344B1E268A16819B1502A32D301215F
:1033B00001E0002A2ED1012819D1012908D10320CA
:1033C00000900022A3680021012001F060FE02E0CD
:1033D000032201F08DFE05001CD0A6B100F0A3F879
:1033E000012810D0284602F07FF9002512E00129BB
:1033F00004D1A268314601F0AFFE02E0314601F08F
:10340000C5FE050006D0002C14BF21680021284607
:1034100002F002FA284676BD7CB50C46002528B19C
:103420006FF00206EFF3058179B114B16FF0030577
:1034300015E000956A46002102F015F901280DD12A
:10344000009860B100F02CF809E0214602F060F825
:10345000012804D014B16FF0010500E0354628467C
:1034600076BD38B5002410B96FF0030416E06FF094
:103470000205EFF3058151B10094694601F07DFF2B
:1034800001280AD1009848B100F00AF806E00023AC
:10349000002201F092FE012800D02C46204632BDC9
:1034A000DFF88C004FF080510160BFF34F8FBFF306
:1034B0006F8F70470000000010E000E0082E002031
:1034C0001FED00E0F8B514460025EFF305823ABB86
:1034D000002818BF002923D0E4B1E268A36893B1A3
:1034E000502A1DD32269DAB1676901FB00F6B742A1
:1034F00016D3009501F0CBFD050011D0002C14BFB0
:10350000216800210AE0002A04BF2269002A07D1AD
:1035100062692AB9002201F0EBFDEDE702F07CF9C7
:103520002846F2BD606800230022002101F045BE5C
:1035300004ED00E001330008002202F0BBB90000F6
:103540002DE9F843040016D02078DFF8A074C107F5
:1035500013D5786800F00C00042807D0786800F0D4
:103560000C00082840D17968C8033DD53A6891031A
:1035700003D56068002800F05B812078DFF87C6468
:10358000810719D5786810F00C0F07D0786800F023
:103590000C0008285FD17868C1035CD438688107C3
:1035A00003D52069012840F043813968606921F022
:1035B000F80141EAC00139602178080778D5A0698F
:1035C000DFF83C14002800F09E8001220A6000F021
:1035D0002FFD0546796A88075BD400F029FD401B62
:1035E0000228F7D9032026E16068B0F5803F03D1B7
:1035F000386840F4803013E058B1B0F5A02F08D1FE
:10360000386840F4802038603A6842F480323A608A
:1036100007E0396821F480313960386820F480206F
:103620003860606858B100F003FD054639688803CA
:10363000A3D400F0FDFC401B6528F7D3D2E700F0CF
:10364000F7FC05463968880397D500F0F1FC401B6C
:103650006528F7D3C6E7206968B10121316000F021
:10366000E7FC0546386881079FD400F0E1FC401B69
:103670000228F7D9B6E70022326000F0D9FC0546EF
:103680003968880798D500F0D3FC401B0228F7D989
:10369000A8E7DFF85C231168C9084FF47A70B1FB22
:1036A000F0F0009000BF0098411E00280091F9D171
:1036B000207841076ED5F9690025C80009D4F96959
:1036C00041F08051F9610125F86900F080500090C7
:1036D0000098DFF83083D8F80000C10520D4D8F86E
:1036E000000040F48070C8F8000000F0A1FC8146A2
:1036F000D8F80010C80513D400F09AFCA0EB09001C
:103700006528F5D36EE7086000F092FC0546796AFB
:103710008807CDD500F08CFC401B0228F7D961E763
:10372000E068012808D008B9386A09E00528386A35
:1037300006D140F004003862386A40F0010005E02C
:10374000400840003862386A20F00400386241F2D4
:103750008938E06860B100F06BFC8146396A8807FF
:1037600013D400F065FCA0EB09004045F6D339E71F
:1037700000F05EFC8146396A880706D500F058FCE7
:10378000A0EB09004045F6D32CE71DB1F86920F005
:103790008050F861E06900284CD0796801F00C0194
:1037A000082938D002282AD100F047F805463968A0
:1037B000880105D500F03CFC401B0228F7D911E731
:1037C000206AB0F5803F05D17968A06821F4003106
:1037D000014379607A68206A616A22F474120243B4
:1037E0000A437A60012000F029F804463868810114
:1037F00020D400F01DFC001B0228F7D9F2E600F0EF
:103800001CF804463868810114D500F011FC001B37
:103810000228F7D9E6E601280AD07868226A00F47F
:103820008031914202BF00F47010616A884201D079
:10383000012000E00020BDE8F2830020306600F0A7
:10384000F7BB2DE9F041040088465FD06E4E30682A
:1038500000F00700404509D23168C90848EAC101B3
:103860003160306800F0070040454FD121685F4D5E
:10387000880712D5490703D5686840F4E06068609E
:103880002078010703D5686840F460506860696873
:10389000A06821F0F001014369602178C80726D5AE
:1038A0006068012802D129688A0303E0022803D155
:1038B00029688A0103D429E02B68990726D56A680C
:1038C000920840EA8200686000F0B2FB0746686830
:1038D000616800F00C00B0EB810F08D000F0A8FB8D
:1038E000C01B41F289318842F1D3032032E03168B4
:1038F00001F0070188450BD23068C00848EAC000D3
:103900003060316801F00701414501D0012021E01C
:103910002178480705D56968E06821F4E061014332
:10392000696021780A0706D56868216920F460502B
:1039300040EAC100686000F00FF86A683349C2F3DA
:1039400003128B5C2A49D84008602B48006800F0BD
:1039500093FA0020BDE8F0812D4926480A6802F05C
:103960000C03082B00D0704710B500BF2BA4C2F386
:103970008343D203E35C08D5096858432BA3C1F302
:103980004041595CB0FBF1F010BD2248584310BDD6
:1039900017481F4B00681A681F49C2F3022206E04D
:1039A00013481B4B00681A681B49C2F3C222895C8A
:1039B000C840704710B50F220260154A136803F023
:1039C00003034360146804F0F0048460136803F494
:1039D000E063C3601268D20802F4E06202610A4A3E
:1039E000106800F00700086010BD000000100240E1
:1039F0001800002000127A0014000020000042424B
:103A0000800442420070004000200240946200089E
:103A10000410024000093D00F4620008020304059E
:103A2000060708090A0B0C0D0E0F1010010200000A
:103A30002DE9FC410646354D3178C80750D5A969B6
:103A40000024C80009D4A96941F08051A96101246A
:103A5000A86900F08050009000982D4F3868C1058B
:103A600011D4386840F48070386000F0E1FA804684
:103A70003868C10507D400F0DBFAA0EB0800652820
:103A8000F6D303203FE0E86910F440701EBF716870
:103A900001F44071884218D01E49E86901220A6089
:103AA000002320F440700B60E861C0070DD500F0E2
:103AB000BFFA0746E969880707D400F0B9FAC01BC6
:103AC00041F289318842F5D3DBE7EA69706822F474
:103AD00040720243EA611CB1A86920F08050A861DD
:103AE0003178880705D52968B06821F44041014341
:103AF00029603178C80605D52968F06821F480016D
:103B0000014329600020BDE8F68100000410024056
:103B1000007000404004424210B5104C1049002291
:103B20002046FDF7ABFE08B1FEF7A6F90D49204689
:103B3000FDF7B7FE08B1FEF79FF90B49204601F0EB
:103B4000F9FF08B1FEF798F92046FDF7B2FE18B16B
:103B5000BDE81040FEF790B910BD00BF4021002025
:103B60003C010020280000202C0100201CB5B0F5ED
:103B7000805FA8BF40F6FF704023020901018DF865
:103B800004308DF805208DF806100A2400940323D4
:103B900001AAC0210148FEF7B1FD16BDAC2B0020E3
:103BA000FF2212EAD05C1DBF12EAD1539445934222
:103BB0002BE09C44D30780EA010243EA002043EA59
:103BC00001211A40A1FB0030C04238BF00187CF12F
:103BD0007F010BDBFE294ADA5B0842EAC15153EA56
:103BE000006373F1004C51EB10207047D1F1080CC9
:103BF000DCF120012FDB5B0810FA01F10B4320FA06
:103C00000CF073F100415041704794451CBF02EA2B
:103C1000D153934280EA010202F000421DD04000DD
:103C200019D0490017D05BB9634514D00902B1FA25
:103C300081F39940BCEB030CC00140F00040C1E7A8
:103C40000002B0FA80FC10FA0CF0B3EB0C0CC901C6
:103C500041F00041B6E71000704740000AD049002B
:103C600008D010F1807F94BF11F1807F02E042F014
:103C7000FF407047D0437047C0F3C751D1F19E0158
:103C800008DD020242F00042CA4002EBE07282EA22
:103C9000E07070477FEAE07080F0004070470000FD
:103CA0004FF0FF0C1CEAD0531DBF1CEAD1526345F4
:103CB000624543E09B1A5FEACC7280EA010C42EA5B
:103CC00001211CEA020C42EA0020421A38BF01EB33
:103CD000420253F17E034FEA1121B2FBF1F001FBE6
:103CE000102260F3D63C4FEA0222B2FBF1F001FB56
:103CF000102260F3CE1C4FEA0222B2FBF1F006DD87
:103D0000FF2B29DA5CEA500040EBC3507047C3F147
:103D1000020301FB1022192B40EA4C010CF0004C6D
:103D200041F0807121DC21FA03F0C3F120039940B6
:103D3000114371F1004250EB0C00704763451ABF0C
:103D40000CEAD152624512E080EA010C00180CF036
:103D5000004C06D049181AD10CF0004C4CF0FF4032
:103D60007047C94208BF6FEA020C6046704763455E
:103D700006D1B2EB0C02F5D001F00041484070478B
:103D80004A0212BF0846484000F0004070474AB956
:103D90000902B1FA81F2914043B19B18C00140F091
:103DA000004092E7C90141F0004152420002B0FADE
:103DB00080F39840D31A88E7E0B5BB228DF8012044
:103DC000AA238DF800300022694630F9123001EB49
:103DD00042011B128B7030F81230CB70521C032A38
:103DE000F2DD0A21684601F00FFF07BD1749087888
:103DF000002800D1704718B500220A7014490868DD
:103E0000072802BF13480178CC2904BF4178DD2977
:103E10001BD1C41C807823680F490093012808D067
:103E2000022808D0042808D0082809D009280AD078
:103E300011BD0A4802E00A4800E00A48036011BDCB
:103E400001220A7011BD0020087011BD3C2D002018
:103E5000402D0020442D0020E82D0020F82D0020CA
:103E6000FC2D0020002E0020024A516810784118D5
:103E7000516070470C00002078B50446204887B098
:103E8000016841F00401016001A9006800F004002C
:103E9000009002A8009AFFF78DFD059810B9FFF772
:103EA00077FD02E0FFF774FD40001649164D174BF1
:103EB0002B60B0FBF1F1002040F2E732491E28618F
:103EC000A860A861EA606960284601F0B7FE0600B4
:103ED00012D1284601F0BFFE06000DD11E20FDF7CD
:103EE000B9FC102C07D2002221461E20FDF793FCBE
:103EF0000748046000E00126304608B070BD0000AD
:103F00001C10024040420F00F42C0020000800402A
:103F10001400002080B54048026842F001020260AF
:103F2000016801F001010091009A416841F080515F
:103F300041600022406800F0805000900F21009BFB
:103F40006FF00100FDF767FC344A1068022161F34D
:103F50001A60106001BD18B585B00446102100221A
:103F600001A801F09DFF21682D4A91421DD12A4CE4
:103F7000216841F0080121601222206800F0080049
:103F800000904FF440600099019003210491029247
:103F900001A92448FEF720FA606840F480006060C0
:103FA000606800F480000090009806B010BD18B55D
:103FB00085B0044610210022684601F071FF236895
:103FC00019498B4226D11448184C416841F40031FC
:103FD0004160416801F400310491049A016841F0A4
:103FE000040101600222006800F004000490042033
:103FF0000499009003210391019269462046FEF73F
:10400000EBF90820009000220192029269462046B6
:10401000FEF7E2F906B010BD18100240040001409E
:1040200000580040000C01400044004000080140DE
:1040300001484068704700BF0C00002010F0004CA1
:1040400068B148BF4042B0FA80F18840D1F19D018B
:104050004CEAC15C010671F100414CEB1020704745
:10406000F0B585B050260B9D25B986F3118800F078
:1040700047FAFEE70C9C24B986F3118800F040FA59
:10408000FEE75C270097DDF800E0BEF15C0F04D08E
:1040900086F3118800F034FAFEE7009E25630027BE
:1040A000022584F8595004AE0A9D039702940196A4
:1040B000009500F034F8204600F079F8049805B037
:1040C000F0BD2DE9F8430646174684B08846994668
:1040D000B80000F0CBFE04001CD05C2000F0C6FE4F
:1040E000050014D000212C6385F859100391029526
:1040F0000D990C98019100904B463A464146304646
:1041000000F00DF8284600F052F8012004E02046A7
:1041100000F034FF4FF0FF3005B0BDE8F0832DE92B
:10412000F0470A9E80460C461546306B9946A522FC
:10413000A90001F0BBFB316B01EB8502101FC00829
:104140004FEAC00A0AF0070006F1340554B1002115
:10415000625C6A54605C10B1491C1029F8D30021DC
:10416000E97300E02870089F372F88BF3727099C24
:10417000F762AF610020E861C7F13807301D01F038
:10418000A5FE06F1180001F0A1FE3661B761766266
:1041900000202862002186F858104A4641465046C1
:1041A00000F084FB306004B12660BDE8F0872DE9A3
:1041B000F04100F068F8DFF87855DFF8D885E86C52
:1041C000401CE8641426A86A28BBAC62E86C01288D
:1041D00029D1002706FB07F0404401F06AFE7F1C4E
:1041E000382FF7D305F1740001F063FE05F188075D
:1041F000384601F05EFE284601F05BFE05F1140032
:1042000001F057FE05F1380001F053FE05F174008E
:10421000E8622F6307E0A86D28B9E06AAA6AD16A4C
:10422000884228BFAC62AA6EE06A521C6264696D63
:10423000814238BF6865AA664643211D08EB060027
:1042400001F047FE00F0A3FBA86D20B100F09EF93D
:1042500001D200F050F9BDE8F08180B580B1DFF8FF
:10426000D024116F21B100F02FF900F049F9FEE7D9
:10427000136F5B1C136700F0E4FA00F044F808B910
:1042800000F039F901BD044600F068BB80B586B086
:1042900000210591049103AA04A905A801F054FE88
:1042A000059A049902920020019100900023039A3C
:1042B0000FF2F0510FF26930FFF7D2FE98B100F023
:1042C000BBFB5021012810D181F3118800F018F9AF
:1042D000DFF8BC054FF0FF31C16601228265002185
:1042E000016500F001FB07B000BD10F1010FFAD12C
:1042F00081F3118800F004F9FEE7DFF89415086FE8
:10430000401C0867704770B5DFF82464306F0024E4
:10431000002520B900F043F800F0F2F8FEE700F0C5
:104320001DFB306F401E3067306F002836D1F06CB7
:10433000D0B933E0F068C46800F035F800F0FAF95D
:10434000E36A706D984238BF73651422DFF8440544
:104350005343211D184401F0BCFDE06AB26AD16AE2
:10436000884224BF0122326630680028E2D10CB1B5
:1043700000F08FF9F46D44B100F01DF808B1012090
:104380003066641EF8D10020F065306E30B1DFF881
:1043900008054FF08051012500F0B1F847E25021A7
:1043A00081F31188704704F1180001F0B8BDDFF8FF
:1043B000E004006D70472DE9F843DFF87463306F57
:1043C0000025002852D1346D641C346510D1F06A88
:1043D000006820B1FFF7E3FF00F092F8FEE7F16A12
:1043E000306BF0623163706E401C706600F051F902
:1043F000F06EDFF8A08484424FF0140927D31FE049
:10440000F16AC868C768786884422DD3381D01F006
:1044100086FDB86A18B107F1180001F080FDF86A4E
:10442000716D814238BF706509FB00F0391D404451
:1044300001F04FFDF86AB26AD16A884228BF0125AF
:10444000F06A00680028DBD14FF0FF31F166B06AF6
:10445000C06A09FB00F958F80910022928BF012594
:10446000306E30B1012504E0F066F0E7F06D401CDD
:10447000F0652846BDE8F28310B5DFF8B422106F6E
:1044800010B10121116610BD1066DFF80844506DAF
:1044900000E0401E14234343E15831B90028F8D10D
:1044A00000F012F800F02CF8FEE7E1184B685C68A9
:1044B0004C6001F108039C4204BF64684C604B6887
:1044C000D9689162506510BD502080F31188704703
:1044D00010B50C4620B9FFF7F7FF00F011F8FEE722
:1044E00000F028F801F002FD2046BDE81040FFE78B
:1044F000012100F0A6B9DFF8A0034FF08051016060
:10450000BFF34F8FBFF36F8F704738B50D4614461A
:1045100020B9FFF7D9FFFFF7F3FFFEE700F00AF835
:1045200001F0D7FC0CB14FF0FF3521462846BDE81D
:10453000344086E1DFF858339A6A02F11801704777
:1045400038B5C068C46824B9FFF7BEFFFFF7D8FFCD
:10455000FEE7FFF728FFDFF83853286F40B900F077
:10456000E9F800F018F838BF6A6500F064F902E075
:1045700004F11801284601F0ACFC00F007F803D262
:1045800001212966012032BD002032BDA96AE26AFC
:10459000C86A90427047E26A686D90427047DFF8DF
:1045A000F022516E0160126D42607047F8B504460A
:1045B0000D46502024B980F31188FFF7A1FFFEE7D4
:1045C00025B980F31188FFF79BFFFEE700F0C6F9DD
:1045D000DFF8BC02D0F850C02B68616813F1010FFE
:1045E000ACEB01020DD0466E2768BE4201D08C456F
:1045F0000BD29A4207D29A1A2A60416E2160006D4E
:104600006060002402E000202860012400F0BFF96F
:104610002046F2BDDFF878020121016670470000F4
:1046200070B55C4CDFF8685211E000F097F9286A29
:10463000C668301D01F073FCE86C401EE864686BCE
:10464000401E686300F0A3F9304600F00BF8686B79
:104650000028EAD12268022A01D3FFF74CFF01F0BB
:104660007DFCF4E710B5044694F8590040B9206B7E
:1046700000F084FC2046BDE8104000F07FBC10BD77
:104680000128F7D00228FAD0FFF71EFFFFF738FF06
:10469000FEE72749C86A006818B94FF0FF32CA66BA
:1046A0007047CA6AD068C2685068C8667047DFF849
:1046B000E011886D08B901207047086F08B9022021
:1046C000704700207047F8B50446002074B3E16AD3
:1046D000174DAB6ADA6A914222D2A369002B04D447
:1046E000AA6AD06AC0F13800A0611427DFF8A4617B
:1046F0006269794331448A420ED100F01BF8A86AFE
:10470000C06A696D814238BF6865E0624743211D18
:10471000F01901F0DEFB08E0A96AC86AE06204E073
:10472000E16CAB6ADA6A914200D20120F2BD00006E
:10473000582C0020201D01F0F2BB38B504460021A2
:1047400034B3DFF84C51A86A5022844204D082F37B
:104750001188FFF7D5FEFEE7206D20B982F311889E
:10476000FFF7CEFEFEE7E36AE26C401E934220654F
:104770000ED068B9FFF7DEFFE26CE262C2F13801E9
:10478000A161686D904238BF6A6500F005F80121AB
:10479000084632BDAC1500201420DFF8F830424343
:1047A000211D981801F095BBF8B5040034D0206D98
:1047B000502320B983F31188FFF7A2FEFEE7E26CD5
:1047C000914238BF1146E26A8A4225D0012823D19E
:1047D000DFF8BC50A86A844204D183F31188FFF744
:1047E0008FFEFEE7A369E162002B5CBFC1F13801D7
:1047F000A1611426DFF89C70616972433A449142CA
:104800000AD1FFF797FFE06A696D814238BF68659A
:104810004643211DB81941E0F1BDDFF87410886AE4
:1048200018B18A6A106D401C1065886A704700F0E4
:10483000AEF8284670BD1420164B4243211D98182F
:104840007047F8B5124E376D0C46B16A0546081D23
:1048500001F065FB15F1010F05D124B1B06A011D0E
:1048600006F138001AE0B06AED194560BD42B06A41
:1048700005D2011D306BBDE8F44001F037BB011DCE
:10488000F06A01F033FBF06E854238BFF566F1BD8A
:10489000582C0020AC15002004ED00E0BDE8F440E9
:1048A00001F017BB49444C4500000000490810B511
:1048B0004900A0F10C034FF0807459609C600FF226
:1048C0000D01196040F8202D203810BD544A516860
:1048D000502011F1010F80F31188BFF34F8FBFF308
:1048E0006F8F00D0FEE7FEE71CB54E494C4C0878B0
:1048F0000190FF230B7007200A788DF800209DF8A7
:10490000002002F05002227005E09DF800205200C5
:10491000401E8DF800209DF800301A06F5D4424262
:1049200012F1030F03D0A06000F050F8FEE7000280
:1049300000F4E060A060019808703B48026842F40F
:1049400070020260016841F07041016001F00CFBEF
:104950000020606001F04FFB002016BD502080F366
:104960001188BFF34F8FBFF36F8F2D4A5168491CD9
:10497000012951600AD12D4B1A68110606D080F327
:104980001188BFF34F8FBFF36F8FFEE77047244945
:10499000486838B9502080F31188BFF34F8FBFF3B8
:1049A0006F8FFEE7401E486008BF80F31188704794
:1049B00080B500F00BF8FFF7FEFC18B11B484FF074
:1049C00080510160002282F3118801BD502080F3E4
:1049D0001188BFF34F8FBFF36F8F7047EFF30582DE
:1049E0005020102A0E490BD3114B9B5C0A7893423E
:1049F00006D280F31188BFF34F8FBFF36F8FFEE7AE
:104A000089680C4B1A6802F4E062914206D280F386
:104A10001188BFF34F8FBFF36F8FFEE77047000021
:104A20000000002000E400E020ED00E004ED00E0E4
:104A3000F0E300E00CED00E010B586B000F0CCF93A
:104A4000DFF81044A068C0B100220592049204A9C6
:104A500003AA05A801F0E0FA059A0499029202203F
:104A6000019100900023039A0FF2F0310FF2311000
:104A7000FFF7F6FA0028E06005D1502181F3118894
:104A800000F062F8FEE7012006B010BD2DE9FC4100
:104A900005460E46174698462C2000F0E7F904001C
:104AA0000BD0002184F82810019443460898009008
:104AB0003A463146284600F023F82046BDE8F68104
:104AC0007CB52C2400945025009C2C2C04D085F31C
:104AD000118800F039F8FEE7079C009E002C04D1F5
:104AE00085F3118800F030F8FEE707D0022684F83D
:104AF00028600194069D009500F002F8204676BDDE
:104B00002DE9F8430C0081461546984602D100F085
:104B100018F8FEE7099E96B1089F00F05DF9C6F807
:104B20000090B461C6F81C803762301D01F0CEF9E8
:104B30002DB196F8280040F0040086F82800BDE862
:104B4000F183502080F31188BFF34F8FBFF36F8F35
:104B50007047F8B5044684B01E46002014B9FFF72C
:104B6000F0FFFEE7DFF8EC72BD68BDB106290091E9
:104B7000019202940CDAFFF79AFD022807BF0A9A05
:104B8000002300230022B868694600F016FB05E008
:104B9000002332466946284600F0A6FB05B0F0BD6A
:104BA000F8B586B0DFF8AC522968086810B901245E
:104BB000002602E0C86806680024FFF79EFB01A8F3
:104BC00000F0B4F80746019800283FD154BBB74223
:104BD0002DD3FFF798FB2968C868C468201D01F031
:104BE0009EF994F82810480717D5A16933463A462C
:104BF0008919204600F0D6F840B10020009000232B
:104C0000324600212046FFF7A4FF18B1216A204652
:104C1000884725E0FFF795FFFEE701F0FE0184F8E5
:104C20002810F3E7686801684C1EA441E40FA868E7
:104C30002246F11B00F016FEFFF765FB80B986489F
:104C40004FF080510160FFF77FFF09E0FFF75BFB4A
:104C500006E094F8281088073BD4204600F08EF92F
:104C6000A868002202A900F0CAFB00289CD0029884
:104C7000002803D505990498039A904702980028C4
:104C8000EED4049C606910B1201D01F048F901A820
:104C900000F04CF802990929E2D8DFE801F021215F
:104CA000211A070621211A07DAE7D2E794F828200B
:104CB00042F0010284F828200399A16131B1034632
:104CC00002460918204600F06DF8C9E7FFF739FFE2
:104CD000FEE794F8280000F0FE0084F82800BFE703
:104CE00094F8281041F0010184F828100246039935
:104CF000A0690B464118204600F054F80028AFD0B8
:104D0000216A2046884794F828004107A8D500204A
:104D100000900023039AA069821800212046FFF723
:104D200018FF00289CD1FFF70CFFFEE72DE9FC419E
:104D30000646484DFFF73BFB296904468C4209D3E0
:104D4000002030602C61B8E678603F61391D28682A
:104D500001F0CCF829680868F0B1C868D0F8008084
:104D6000C768381D01F0DBF8396A3846884797F87C
:104D700028205007EED5B86940448045E4D3002090
:104D800000900023424600213846FFF7E2FE00284B
:104D9000E0D1FFF7D6FEFEE7686869602860012170
:104DA0003160CFE738B500248A4241600061294D67
:104DB00006D38169D21A8A4206D2011D686807E0CB
:104DC0009A4203D2994201D3012403E0011D2868CD
:104DD00001F08CF8204632BD1CB5FFF7BFFD1D4C1D
:104DE000A068E0B904F1140001F063F804F12800B0
:104DF00001F05FF804F1140204F1280100202260A0
:104E00006160009004F13C0304F18C0210210A203F
:104E100000F03DF9A06010B112A100F0FDFCBDE86A
:104E20001340FFF7B4BD10B5040000F007F8E469C3
:104E3000FFF7ADFD204610BD04000D4607D1502000
:104E400080F31188BFF34F8FBFF36F8FFEE7FFF73B
:104E500085BD0000802A002004ED00E0546D722022
:104E600053766300546D7251000000002DE9F84341
:104E70000446FFF742FA684FB8684FF00008002573
:104E800008BB07F1200307F1200013F0070F4FF4D0
:104E90004062014605D0C11DC908C900C1F5406383
:104EA000C2185218083AD208D20039607D60BA6040
:104EB00055601560501A48600A6048683861F860AB
:104EC0004FF00040F8614FF05009F869044245D1B5
:104ED000002C43D0083414F0070F04D004F108016B
:104EE00004F007000C1A002C38D0F868A04235D323
:104EF0003E68394601E0314606467068A04202D25B
:104F000030680028F7D1B868864227D00A68306830
:104F1000086002F108087268121B112A0CD33119BB
:104F200011F0070002D000F022F8FEE7301D025118
:104F30007460084600F04CF87168F8683A69401AE5
:104F4000F860904288BF10463861F869014371608B
:104F5000356008F007057869401C7861FFF7D3F9E0
:104F600015B100F004F8FEE74046BDE8F28389F38E
:104F70001188BFF34F8FBFF36F8F7047002800D1A8
:104F8000704738B5A0F10804234D6368E9695022E1
:104F90000B4204D182F31188FFF7EBFFFEE7206894
:104FA00020B182F31188FFF7E4FFFEE78B436360D3
:104FB000FFF7A3F9E96860684118E960204600F04E
:104FC00007F8A869401CA861BDE83140FFF79BB90C
:104FD00030B511490A4600E01A4613688342FBD3F4
:104FE0005368D418844203D14068C31853601046F4
:104FF00043681468C518A54208D189688C4204D05A
:105000006168CB184360246800E00C46046082426B
:1050100018BF106030BD00008C01002070B5040086
:105020000D4602D100F090F8FEE7FFF797FC206CE8
:10503000E16B226800FB01F6491E48431644104408
:10504000A6600023A363E06004F1440162604FF0B6
:10505000FF300870487075B92069A0B104F11000E4
:10506000FFF76EFA78B1DFF8F4074FF08051016076
:1050700000F049FA07E004F1100000F01AFF04F113
:10508000240000F016FFFFF782FC012070BD7CB504
:105090001C46502320B983F3118800F034FAFEE750
:1050A00024B983F3118800F02EFAFEE72AB129B95A
:1050B00083F3118800F027FAFEE779B950250095AF
:1050C000009E502E0FD1009B34B1069B012584F821
:1050D0004650009400F028F8204676BD83F31188EE
:1050E00000F011FAFEE783F3118800F00CFAFEE7F6
:1050F000F8B504000E46174602D100F025F8FEE789
:1051000006FB04F05030FFF7B1FE05000AD0002086
:1051100085F8460000953B4605F150023146204691
:1051200000F002F82846F2BD38B5049C1D4600295F
:105130000CBF24602260E063216420460121FFF758
:105140006DFF84F84C5031BD502080F31188BFF3BF
:105150004F8FBFF36F8F704738B50C461346502101
:1051600020B981F3118800F0CEF9FEE7A04204D205
:1051700081F3118800F0C7F9FEE7022500950022AF
:105180000021FFF784FF00B1846332BD10B50C46E7
:10519000502120B981F3118800F0B5F9FEE7A04253
:1051A00004D281F3118800F0AEF9FEE7022200215B
:1051B000FFF79EFF00B1846310BD2DE9F64782B072
:1051C00004461E46502714B900F09BF9FEE75FEA3B
:1051D000010A01D1206C60B9022E02D1E06B0128D6
:1051E0000AD1FFF764FA50B9039840B100F089F989
:1051F000FEE700F086F9FEE700F083F9FEE72746B8
:1052000000244FF08058DFF854962EE003980028D1
:105210004BD014B900F01AFA0124FFF7B8FBFFF7DE
:105220006CF8FFF79BFB07F1440000F012FA04BF93
:105230000021017000F012FA04BF00214170FFF755
:10524000A6FB00F04DF8002844D1FFF787FBB96BAF
:10525000F86B814214BF00250125FFF798FB45BB81
:10526000384600F09AFAFFF74EF8FFF777FBB96B74
:10527000F86B814201D3022EC8D1324651463846DE
:1052800000F043FA796A29B107F12400FFF758F9D1
:1052900008B904E018B1C9F8008000F034F9FFF74C
:1052A00076FB012004B0BDE8F087FFF770FB00201B
:1052B000F8E7039907F11000FFF70AF9384600F004
:1052C0006CFAFFF720F80028CFD1C9F8008000F071
:1052D0001AF9CAE7384600F060FAFFF714F8E6E773
:1052E00003A96846FFF762B92DE9F84304468846EA
:1052F00015461E46502714B900F003F9FEE7B8F131
:10530000000F01D1206C40BB022E02D1E06B0128BE
:1053100026D1FFF763FBEFF3118900F0F2F8A16BE0
:10532000E06B814201D3022E22D194F94570A06B2B
:1053300032464146204600F0E8F917F1010F12D13C
:10534000606A98B104F12400FFF7FAF8002818BF4A
:10535000002D0BD00120286008E000F0D2F8FEE715
:1053600000F0CFF8FEE77F1C84F84570012000E0D4
:10537000002089F31188BDE8F283F8B504460D4694
:10538000502624B986F3118800F0BDF8FEE7206CA2
:1053900020B186F3118800F0B6F8FEE7206808B95E
:1053A000A068F0B9FFF71AFBEFF3118786F31188B5
:1053B00000F094F9E16B88421DD294F94510401C2D
:1053C00011F1010FA06311D1606A90B104F12400C2
:1053D000FFF7B6F8002818BF002D0AD0012028607A
:1053E00007E086F3118800F08EF8FEE7491C84F888
:1053F0004510012000E0002087F31188F2BD2DE95F
:10540000F74306460F460024502526B985F3118838
:1054100000F079F8FEE70FB9306C48B9FFF747F9AB
:1054200078B9029868B185F3118800F06CF8FEE74E
:1054300085F3118800F067F8FEE700F005F9FEF744
:1054400062FFFFF78BFAB56BDFF81094002D4FF079
:10545000805832D10298002845D014B900F0F6F8EF
:105460000124FFF794FAFEF748FFFFF777FA06F1F9
:105470004400425712F1010F04BF0021017000F0F7
:10548000EDF804BF00214170FFF781FA02A9FFF790
:1054900028FF002830462AD100F0B3F90028CCD0EC
:1054A00000F0CDF800F0D0F8FEF72DFF0028C8D1AD
:1054B000C9F8008000F027F8C3E73946304600F00D
:1054C00058F96D1EB563306940B106F11000FFF761
:1054D00037F818B1C9F8008000F015F8FFF757FA4F
:1054E0000120BDE8FE83FFF752FA0020F9E700F043
:1054F00054F9FEF708FF304600F083F90028A0D0E9
:10550000F3E787F31188BFF34F8FBFF36F8F7047B7
:105510002DE9F24382B0064600240025502716B933
:10552000FFF7EFFFFEE7306C10B1FFF7EAFFFEE791
:10553000FFF7BDF840B9029830B1FFF7E2FFFEE790
:1055400000F082F8FEF7DFFEFFF708FAB06BDFF835
:105550000C9300284FF080583BD1029800284ED081
:1055600014B900F073F80124FFF711FAFEF7C5FE35
:10557000FFF7F4F906F1440000F06BF804BF0021D6
:10558000017000F06BF804BF00214170FFF7FFF9D4
:1055900002A9FFF7A6FE0028304634D100F031F909
:1055A0000028CDD0306838B9FFF7D8F9B068FFF7D8
:1055B0008AF80546FFF7EBF900F041F800F044F8EF
:1055C000FEF7A1FE0028BFD1C9F80080FFF79BFFBE
:1055D000BAE7401EB063306810B9FFF71EF9B0603B
:1055E000306940B106F11000FEF7AAFF18B1C9F802
:1055F0000080FFF788FFFFF7CAF901201DE0CDB159
:10560000FFF77FFFFEE700F0C8F8FEF77CFE3046AC
:1056100000F0F7F8002897D075B1FFF79FF9706A8E
:1056200000281DBF306B0168C1F138010021B0684E
:10563000FFF7BAF8FFF7ABF90020BDE8FE83029947
:1056400006F12400FEF744BF3046A6E06846FEF7A8
:10565000A6BF90F9002012F1010F704790F90120C8
:1056600012F1010F70472DE9F84304460E46154626
:10567000502714B9FFF745FFFEE70EB9206C60B95B
:10568000FFF7ACF9EFF31188FFF73BFFA76B3FB9CA
:10569000002088F31188BDE8F283FFF732FFFEE7B0
:1056A00094F944903146204600F063F87F1E19F1CA
:1056B000010FA7630CD1206970B104F11000FEF74F
:1056C0003FFF002818BF002D06D00120286003E00E
:1056D00009F1010984F844900120DAE7BFF34F8F04
:1056E000BFF36F8FA06B704710B5040002D1FFF7B6
:1056F0002BFDFEE700F0A0F894F8460020B9204604
:10570000BDE81040FFF73ABC10BDF8B50646154697
:10571000B46B326C002742B9306830BBB068FFF719
:105720000CF800210746B1601FE065B97068FCF70E
:105730004FF87168306C0844B1687060884214D3C7
:105740003068706011E0F068FCF742F8306CF26885
:1057500040420244F26031688A4202D2B268104488
:10576000F060022D01D104B1641E641CB46338469C
:10577000F2BD026C002A0B4600D1704710B5C46818
:1057800081681444C4608C4224BF0468C460C1684A
:10579000BDE810401846FCF71BB8F8B50546FFF702
:1057A000DDF805F1440494F9016007E005F12400F7
:1057B000FEF7C6FE08B1FEF72DFF761E70B2012877
:1057C00002DB686A0028F1D14FF0FF366670FFF700
:1057D000DEF8FFF7C3F894F9007007E005F1100058
:1057E000FEF7AEFE08B1FEF715FF7F1E78B2012866
:1057F00002DB28690028F1D12670BDE8F140FFF7EF
:10580000C6B810B50446FFF7A9F8A06B441EA44122
:10581000FFF7BDF8E00F10BD10B50024104B53F892
:1058200034201AB1641C082CF9D310BD43F834108D
:1058300003EBC401486010BD10B50023084901EB1B
:10584000C3025468844203D05B1C082BF7D310BDFD
:10585000002041F83300506010BD000004ED00E06E
:10586000842D0020F8B504460D461646FFF776F85D
:1058700004F1380797F90C1011F1010F04BF002053
:10588000387397F90D1011F1010F04BF00207873E0
:10589000FFF77DF8386828B93246294604F124001C
:1058A000FEF733FE2046BDE8F24076E762F30F22B2
:1058B00062F31F4200B500BF1300964694461039AC
:1058C00028BFA0E80C50FAD85FEA417C28BF0CC082
:1058D00048BF40F8042BC90728BF20F8022B48BF57
:1058E00000F8012B00BD0000F8B505460026287C15
:1058F00040B94FF4007300F03CF80122EA624FF423
:10590000007305E0402300F034F80120E8624023F2
:10591000022201212846FBF728FA0120C5F86C0174
:105920000823032282212846FBF71FFA012028645E
:1059300005F52E774FF40770FBF758FA386004002E
:1059400008BF012613D079680868804704F5017004
:1059500000220261002141610268287C00280CBFFE
:105960004FF40073402301212846FBF735FA3046F7
:10597000F2BD022281212846FBF7F7B910B5044693
:105980008121FBF7FDF90022E26201212046FBF7AD
:10599000F7F90020C4F86C0182212046FBF7F0F9EA
:1059A0000021216404F52E74206838B161684868CC
:1059B00080472068FBF728FA00202060002010BDF7
:1059C000F8B5044604F527730D46DE6900228DF80C
:1059D0000020ADF802200027297811F0600223D0C2
:1059E000202A3BD1EA88CAB1687809060BD5D3F8DA
:1059F00020C0DCF8083031469847EA883146204616
:105A0000FCF79EFC2FE006F500710870E8884870EE
:105A10003146EA882046FCF7A4FC24E01C6A68783A
:105A2000A368294698471EE0687820B10A2809D063
:105A30000B2810D012E0197803290FD102220DF1A2
:105A4000020104E01878032808D1012269462046A3
:105A5000FCF776FC07E01878032804D02946204696
:105A6000FCF73FFC02273846F2BDF8B5044604F5C2
:105A70002E7002688568DAB10F4614207843261824
:105A8000F06980B128235F43EB191B6AB0FBF3F583
:105A900003FB150038B90027F761002300222046D8
:105AA000FBF794F902E00023C2F814320020F2BDA3
:105AB0000220F2BD70B500F52E76346804F501754C
:105AC000FBF790F9A860306838B173682868DA6825
:105AD00004F503719047002070BD022070BD10B521
