:020000040800F2
:10000000681E0020DD31000891310008933100089E
:100010009531000897310008993100080000000070
:100020000000000000000000000000004311000874
:100030009B31000800000000FD100008292D000879
:1000400015320008193200081D320008213200085C
:1000500025320008293200082D320008313200080C
:1000600035320008393200083D32000841320008BC
:1000700045320008493200084D320008513200086C
:1000800055320008593200085D320008613200081C
:1000900065320008693200086D32000871320008CC
:1000A00075320008793200087D320008813200087C
:1000B00085320008893200089D3100088D32000821
:1000C0009132000895320008993200089D320008EC
:1000D000A1320008A5320008A9320008AD3200089C
:1000E000B1320008B5320008B9320008F0B585B069
:1000F00050260B9D25B986F3118800F047FAFEE7DC
:100100000C9C24B986F3118800F040FAFEE75C27C6
:100110000097DDF800E0BEF15C0F04D086F3118893
:1001200000F034FAFEE7009E25630027022584F8DC
:10013000595004AE0A9D039702940196009500F071
:1001400034F8204600F079F8049805B0F0BD2DE9A8
:10015000F8430646174684B088469946B80000F032
:1001600075FB04001CD05C2000F070FB050014D06F
:1001700000212C6385F85910039102950D990C9874
:10018000019100904B463A464146304600F00DF84A
:10019000284600F052F8012004E0204600F0DEFB83
:1001A0004FF0FF3005B0BDE8F0832DE9F0470A9E1F
:1001B00080460C461546306B9946A522A90000F0F2
:1001C0001DFC316B01EB8502101FC0084FEAC00A0D
:1001D0000AF0070006F1340554B10021625C6A544C
:1001E000605C10B1491C1029F8D30021E97300E0CC
:1001F0002870089F372F88BF3727099CF762AF61A7
:100200000020E861C7F13807301D00F021FC06F13D
:10021000180000F01DFC3661B7617662002028628C
:10022000002186F858104A464146504600F062FCCC
:10023000306004B12660BDE8F0872DE9F04100F0A0
:1002400068F8DFF81055DFF87085E86C401CE8644A
:100250001426A86A28BBAC62E86C012829D10027C3
:1002600006FB07F0404400F0E6FB7F1C382FF7D375
:1002700005F1740000F0DFFB05F18807384600F057
:10028000DAFB284600F0D7FB05F1140000F0D3FBA1
:1002900005F1380000F0CFFB05F17400E8622F6330
:1002A00007E0A86D28B9E06AAA6AD16A884228BF27
:1002B000AC62AA6EE06A521C6264696D814238BF0A
:1002C0006865AA664643211D08EB060000F0C3FBE3
:1002D00000F081FCA86D20B100F09EF901D200F081
:1002E00050F9BDE8F08180B580B1DFF86824116F66
:1002F00021B100F02FF900F049F9FEE7136F5B1C04
:10030000136700F06DFA00F044F808B900F039F90D
:1003100001BD044600F046BC80B586B000210591C1
:10032000049103AA04A905A800F0AAFC059A04995F
:1003300002920020019100900023039A0FF20451D1
:100340000FF26930FFF7D2FE98B100F0A3FC502104
:10035000012810D181F3118800F018F9DFF8D004DA
:100360004FF0FF31C166012282650021016500F076
:10037000DFFB07B000BD10F1010FFAD181F3118846
:1003800000F004F9FEE7DFF8A814086F401C0867C6
:10039000704770B5DFF8BC63306F0024002520B9CA
:1003A00000F043F800F0F2F8FEE700F0FBFB306FDE
:1003B000401E3067306F002836D1F06CD0B933E082
:1003C000F068C46800F035F800F0C6F9E36A706DB3
:1003D000984238BF73651422DFF858045343211D37
:1003E000184400F038FBE06AB26AD16A884224BF40
:1003F0000122326630680028E2D10CB100F08FF99A
:10040000F46D44B100F01DF808B101203066641E9F
:10041000F8D10020F065306E30B1DFF81C044FF0E9
:100420008051012500F0B1F8D0E1502181F311880D
:10043000704704F1180000F034BBDFF8F403006DDE
:1004400070472DE9F843DFF80C63306F0025002872
:1004500052D1346D641C346510D1F06A006820B14B
:10046000FFF7E3FF00F092F8FEE7F16A306BF0620D
:100470003163706E401C706600F051F9F06EDFF869
:10048000B48384424FF0140927D31FE0F16AC8688F
:10049000C768786884422DD3381D00F002FBB86A23
:1004A00018B107F1180000F0FCFAF86A716D81428A
:1004B00038BF706509FB00F0391D404400F0CBFAED
:1004C000F86AB26AD16A884228BF0125F06A0068DA
:1004D0000028DBD14FF0FF31F166B06AC06A09FB3A
:1004E00000F958F80910022928BF0125306E30B1F3
:1004F000012504E0F066F0E7F06D401CF065284649
:10050000BDE8F28310B5DFF84C22106F10B1012165
:10051000116610BD1066DFF81C43506D00E0401EF0
:1005200014234343E15831B90028F8D100F012F800
:1005300000F02CF8FEE7E1184B685C684C6001F1B4
:1005400008039C4204BF64684C604B68D9689162A0
:10055000506510BD502080F31188704710B50C46CF
:1005600020B9FFF7F7FF00F011F8FEE700F028F8D8
:1005700000F07EFA2046BDE81040FFE7012100F0C0
:100580002FB9DFF8B4024FF080510160BFF34F8FF5
:10059000BFF36F8F704738B50D46144620B9FFF78B
:1005A000D9FFFFF7F3FFFEE700F00AF800F053FA77
:1005B0000CB14FF0FF3521462846BDE834400FE12D
:1005C000DFF86C329A6A02F11801704738B5C068DA
:1005D000C46824B9FFF7BEFFFFF7D8FFFEE7FFF7B7
:1005E00028FFDFF84C52286F40B900F0B5F800F052
:1005F00018F838BF6A6500F0EDF802E004F1180160
:10060000284600F028FA00F007F803D201212966F5
:10061000012032BD002032BDA96AE26AC86A904258
:100620007047E26A686D90427047DFF80422516EAD
:100630000160126D42607047F8B504460D465020C7
:1006400024B980F31188FFF7A1FFFEE725B980F3F5
:100650001188FFF79BFFFEE700F0A4FADFF8D00156
:10066000D0F850C02B68616813F1010FACEB0102A8
:100670000DD0466E2768BE4201D08C450BD29A42FF
:1006800007D29A1A2A60416E2160006D60600024D2
:1006900002E000202860012400F09DFA2046F2BD0F
:1006A000DFF88C01012101667047000070B5424CF3
:1006B000DFF87C5111E000F075FA286AC668301D39
:1006C00000F0EFF9E86C401EE864686B401E686358
:1006D00000F081FA304600F00BF8686B0028EAD190
:1006E0002268022A01D3FFF74CFF00F0EDFCF4E78B
:1006F00010B5044694F8590040B9206B00F02EF96B
:100700002046BDE8104000F029B910BD0128F7D0FF
:100710000228FAD0FFF71EFFFFF738FFFEE70D496A
:10072000C86A006818B94FF0FF32CA667047CA6AD3
:10073000D068C2685068C8667047DFF8F410886DEA
:1007400008B901207047086F08B9022070470020DF
:10075000704700003C190020201D00F0A2B938B5F8
:100760000446002134B3DFF8C850A86A50228442FE
:1007700004D082F31188FFF709FFFEE7206D20B94E
:1007800082F31188FFF702FFFEE7E36AE26C401E86
:10079000934220650ED068B9FFF7DEFFE26CE2629B
:1007A000C2F13801A161686D904238BF6A6500F0FE
:1007B00005F80121084632BD3C0C00201420DFF86A
:1007C00074304243211D981800F045B900F003FA37
:1007D000284670BD1420174B4243211D98187047BE
:1007E000F8B5134E376D0C46B16A0546081D00F08A
:1007F00058F915F1010F05D124B1B06A011D06F1B8
:1008000038001BE0B06AED194560BD42B06A05D200
:10081000011D306BBDE8F44000F02AB9011DF06AFB
:1008200000F026F9F06E854238BFF566F1BD000094
:100830003C1900203C0C002004ED00E0BDE8F44031
:1008400000F009B949444C45000000002DE9F84387
:100850000446FFF798FD684FB8684FF00008002580
:1008600008BB07F1200307F1200013F0070F4FF436
:100870004062014605D0C11DC908C900C1F54063E9
:10088000C2185218083AD208D20039607D60BA60A6
:1008900055601560501A48600A6048683861F86011
:1008A0004FF00040F8614FF05009F869044245D11B
:1008B000002C43D0083414F0070F04D004F10801D1
:1008C00004F007000C1A002C38D0F868A04235D389
:1008D0003E68394601E0314606467068A04202D2C1
:1008E00030680028F7D1B868864227D00A68306897
:1008F000086002F108087268121B112A0CD3311922
:1009000011F0070002D000F022F8FEE7301D02517E
:100910007460084600F04CF87168F8683A69401A4B
:10092000F860904288BF10463861F86901437160F1
:10093000356008F007057869401C7861FFF729FDEC
:1009400015B100F004F8FEE74046BDE8F28389F3F4
:100950001188BFF34F8FBFF36F8F7047002800D10E
:10096000704738B5A0F10804234D6368E969502247
:100970000B4204D182F31188FFF7EBFFFEE72068FA
:1009800020B182F31188FFF7E4FFFEE78B43636039
:10099000FFF7F9FCE96860684118E960204600F05B
:1009A00007F8A869401CA861BDE83140FFF7F1BC19
:1009B00030B511490A4600E01A4613688342FBD35A
:1009C0005368D418844203D14068C318536010465A
:1009D00043681468C518A54208D189688C4204D0C0
:1009E0006168CB184360246800E00C4604608242D2
:1009F00018BF106030BD00001C00002062F30F2201
:100A000062F31F4200B500BF1300964694461039AA
:100A100028BFA0E80C50FAD85FEA417C28BF0CC080
:100A200048BF40F8042BC90728BF20F8022B48BF55
:100A300000F8012B00BD4FF0FF3200F10801826089
:100A40004160C16000F1080202610021016070474D
:100A500000210161704710B542684A6094688C605B
:100A600093685960916008610168491C016010BD7C
:100A700030B50D6815F1010F08BF046907D000F10A
:100A8000080400E01C4663681A689542FAD262685E
:100A90004A6091608C60616008610168491C016076
:100AA00030BD10B54268016983689360826843680D
:100AB00053604C68844204BF83684B60002202612B
:100AC0000868401E0860086810BD0EE002684368B0
:100AD000024408305FEAC37C44BF4B445B1E52F8BB
:100AE00004CB43F804CB091FF9D150F8041B0029AB
:100AF000ECD17047490810B54900A0F10C034FF044
:100B0000807459609C600FF20D01196040F8202D2F
:100B1000203810BD544A5168502011F1010F80F364
:100B20001188BFF34F8FBFF36F8F00D0FEE7FEE752
:100B30001CB54E494C4C08780190FF230B700720E0
:100B40000A788DF800209DF8002002F050022270F3
:100B500005E09DF800205200401E8DF800209DF811
:100B600000301A06F5D4424212F1030F03D0A06000
:100B700000F050F8FEE7000200F4E060A060019889
:100B800008703B48026842F470020260016841F05C
:100B90007041016000F09EFA0020606000F0E1FA10
:100BA000002016BD502080F31188BFF34F8FBFF394
:100BB0006F8F2D4A5168491C012951600AD12D4B74
:100BC0001A68110606D080F31188BFF34F8FBFF368
:100BD0006F8FFEE770472449486838B9502080F38A
:100BE0001188BFF34F8FBFF36F8FFEE7401E486041
:100BF00008BF80F31188704780B500F00BF8FFF74D
:100C000020FC18B11B484FF080510160002282F394
:100C1000118801BD502080F31188BFF34F8FBFF3BF
:100C20006F8F7047EFF305825020102A0E490BD3C7
:100C3000114B9B5C0A78934206D280F31188BFF374
:100C40004F8FBFF36F8FFEE789680C4B1A6802F471
:100C5000E062914206D280F31188BFF34F8FBFF359
:100C60006F8FFEE7704700000000002000E400E006
:100C700020ED00E004ED00E0F0E300E00CED00E02A
:100C8000034B036003F15C00086080211160704732
:100C9000F814002010B586B000F0CCF9DFF810444D
:100CA000A068C0B100220592049204A903AA05A875
:100CB00000F068FA059A04990292022001910090CE
:100CC0000023039A0FF2F0310FF23110FFF70EFA02
:100CD0000028E06005D1502181F3118800F062F80E
:100CE000FEE7012006B010BD2DE9FC4105460E4689
:100CF000174698462C20FFF7A9FD04000BD00021D1
:100D000084F8281001944346089800903A463146EA
:100D1000284600F023F82046BDE8F6817CB52C2457
:100D200000945025009C2C2C04D085F3118800F0F1
:100D300039F8FEE7079C009E002C04D185F311884A
:100D400000F030F8FEE707D0022684F8286001940E
:100D5000069D009500F002F8204676BD2DE9F84387
:100D60000C0081461546984602D100F018F8FEE7BF
:100D7000099E96B1089F00F05DF9C6F80090B46135
:100D8000C6F81C803762301DFFF762FE2DB196F861
:100D9000280040F0040086F82800BDE8F1835020C8
:100DA00080F31188BFF34F8FBFF36F8F7047F8B593
:100DB000044684B01E46002014B9FFF7F0FFFEE79A
:100DC000DFF8EC72BD68BDB1062900910192029472
:100DD0000CDAFFF7B2FC022807BF0A9A00230023AF
:100DE0000022B868694600F0A8FA05E00023324600
:100DF0006946284600F038FB05B0F0BDF8B586B06E
:100E0000DFF8AC522968086810B90124002602E016
:100E1000C86806680024FFF7B6FA01A800F0B4F825
:100E20000746019800283FD154BBB7422DD3FFF7A6
:100E3000B0FA2968C868C468201DFFF732FE94F82C
:100E40002810480717D5A16933463A468919204624
:100E500000F0D6F840B10020009000233246002177
:100E60002046FFF7A4FF18B1216A2046884725E0F5
:100E7000FFF795FFFEE701F0FE0184F82810F3E785
:100E8000686801684C1EA441E40FA8682246F11B63
:100E900000F08EFCFFF77DFA80B986484FF0805154
:100EA0000160FFF77FFF09E0FFF773FA06E094F8AF
:100EB000281088073BD42046FFF750FDA868002281
:100EC00002A900F01AFB00289CD00298002803D544
:100ED00005990498039A904702980028EED4049C40
:100EE000606910B1201DFFF7DCFD01A800F04CF88F
:100EF00002990929E2D8DFE801F02121211A070629
:100F000021211A07DAE7D2E794F8282042F00102FB
:100F100084F828200399A16131B1034602460918DB
:100F2000204600F06DF8C9E7FFF739FFFEE794F8B7
:100F3000280000F0FE0084F82800BFE794F828108D
:100F400041F0010184F8281002460399A0690B467C
:100F50004118204600F054F80028AFD0216A2046FE
:100F6000884794F828004107A8D500200090002366
:100F7000039AA069821800212046FFF718FF002875
:100F80009CD1FFF70CFFFEE72DE9FC410646484DDA
:100F9000FFF753FA296904468C4209D300203060D8
:100FA0002C61B8E678603F61391D2868FFF760FD65
:100FB00029680868F0B1C868D0F80080C768381D93
:100FC000FFF76FFD396A3846884797F828205007A1
:100FD000EED5B86940448045E4D30020009000235A
:100FE000424600213846FFF7E2FE0028E0D1FFF735
:100FF000D6FEFEE768686960286001213160CFE7AE
:1010000038B500248A4241600061294D06D38169C8
:10101000D21A8A4206D2011D686807E09A4203D2BA
:10102000994201D3012403E0011D2868FFF720FD48
:10103000204632BD1CB5FFF7B5FD1D4CA068E0B9D8
:1010400004F11400FFF7F7FC04F12800FFF7F3FCAC
:1010500004F1140204F12801002022606160009074
:1010600004F13C0304F18C0210210A2000F0CFF8B7
:10107000A06010B112A100F075FBBDE81340FFF7AE
:10108000AABD10B5040000F007F8E469FFF7A3FD5E
:10109000204610BD04000D4607D1502080F3118872
:1010A000BFF34F8FBFF36F8FFEE7FFF77BBD0000ED
:1010B0005417002004ED00E0546D72205376630055
:1010C000546D725100000000014800F0C0BB00BF29
:1010D0001C1900200748084B002202600021816093
:1010E0004FF47A711A68B2FBF1F1491E4160072290
:1010F0000260704710E000E018000020EFF3098064
:10110000BFF36F8F1D4B1A6820E9F00F106008B510
:101110004FF0500080F31188BFF34F8FBFF36F8FF4
:10112000FFF7F0F94FF0000080F31188BDE80840A8
:1011300019680868B0E8F00F80F30988BFF36F8F73
:1011400070470E4B19680868B0E8F00F80F3098803
:10115000BFF36F8F4FF0000080F311884EF00D0E3B
:10116000704707480068006880F3088862B661B677
:10117000BFF34F8FBFF36F8F00DF000064190020B3
:1011800008ED00E0044B036003F15C0008604FF4DD
:1011900080711160704700BF9C10002070B5040082
:1011A0000D4602D100F090F8FEE7FFF7FBFC206C43
:1011B000E16B226800FB01F6491E484316441044C7
:1011C000A6600023A363E06004F1440162604FF075
:1011D000FF300870487075B92069A0B104F11000A3
:1011E000FFF7F4F978B1DFF8C0054FF080510160E6
:1011F00000F007FA07E004F11000FFF71CFC04F10F
:101200002400FFF718FCFFF7E6FC012070BD7CB559
:101210001C46502320B983F3118800F0F2F9FEE751
:1012200024B983F3118800F0ECF9FEE72AB129B95B
:1012300083F3118800F0E5F9FEE779B950250095B0
:10124000009E502E0FD1009B34B1069B012584F8DF
:101250004650009400F028F8204676BD83F31188AC
:1012600000F0CFF9FEE783F3118800F0CAF9FEE73A
:10127000F8B504000E46174602D100F025F8FEE747
:1012800006FB04F05030FFF7E1FA05000AD0002019
:1012900085F8460000953B4605F150023146204650
:1012A00000F002F82846F2BD38B5049C1D4600291E
:1012B0000CBF24602260E063216420460121FFF717
:1012C0006DFF84F84C5031BD502080F31188BFF37E
:1012D0004F8FBFF36F8F704738B50C4613465021C0
:1012E00020B981F3118800F08CF9FEE7A04204D206
:1012F00081F3118800F085F9FEE7022500950022B0
:101300000021FFF784FF00B1846332BD10B50C46A5
:10131000502120B981F3118800F073F9FEE7A04253
:1013200004D281F3118800F06CF9FEE7022200215B
:10133000FFF79EFF00B1846310BD2DE9F64782B030
:1013400004461E46502714B900F059F9FEE75FEA3B
:10135000010A01D1206C60B9022E02D1E06B012894
:101360000AD1FFF7EAF950B9039840B100F047F904
:10137000FEE700F044F9FEE700F041F9FEE72746FA
:1013800000244FF08058DFF820942EE003980028C6
:101390004BD014B900F041F90124FFF71CFCFEF713
:1013A000F2FFFFF7FFFB07F1440000F039F904BF3B
:1013B0000021017000F039F904BF00214170FFF7EE
:1013C0000AFC00F04DF8002844D1FFF7EBFBB96BA5
:1013D000F86B814214BF00250125FFF7FCFB45BBDC
:1013E000384600F080F9FEF7D4FFFFF7DBFBB96B5E
:1013F000F86B814201D3022EC8D13246514638469D
:1014000000F029F9796A29B107F12400FFF7DEF825
:1014100008B904E018B1C9F8008000F0F2F8FFF74D
:10142000DAFB012004B0BDE8F087FFF7D4FB002011
:10143000F8E7039907F11000FFF790F8384600F03D
:1014400052F9FEF7A6FF0028CFD1C9F8008000F0BE
:10145000D8F8CAE7384600F046F9FEF79AFFE6E703
:1014600003A96846FFF7E8B82DE9F8430446884623
:1014700015461E46502714B900F0C1F8FEE7B8F132
:10148000000F01D1206C40BB022E02D1E06B01287D
:1014900026D1FFF7C7FBEFF3118900F0B0F8A16B7D
:1014A000E06B814201D3022E22D194F94570A06BEA
:1014B00032464146204600F0CEF817F1010F12D116
:1014C000606A98B104F12400FFF780F8002818BF83
:1014D000002D0BD00120286008E000F090F8FEE716
:1014E00000F08DF8FEE77F1C84F84570012000E0D5
:1014F000002089F31188BDE8F2832DE9F743064601
:101500000F460024502526B985F3118800F079F89C
:10151000FEE70FB9306C48B9FFF70FF978B90298B8
:1015200068B185F3118800F06CF8FEE785F3118847
:1015300000F067F8FEE700F06EF8FEF72AFFFFF70D
:1015400031FBB56BDFF86092002D4FF0805832D13F
:101550000298002845D014B900F05FF80124FFF785
:101560003AFBFEF710FFFFF71DFB06F14400425760
:1015700012F1010F04BF0021017000F056F804BF02
:1015800000214170FFF727FB02A9FFF76AFF00283F
:1015900030462AD100F0DBF80028CCD000F036F835
:1015A00000F039F8FEF7F5FE0028C8D1C9F8008030
:1015B00000F027F8C3E73946304600F080F86D1E8A
:1015C000B563306940B106F11000FEF7FFFF18B1B6
:1015D000C9F8008000F015F8FFF7FDFA0120BDE81A
:1015E000FE83FFF7F8FA0020F9E700F07CF8FEF739
:1015F000D0FE304600F0ABF80028A0D0F3E787F328
:101600001188BFF34F8FBFF36F8F7047029906F1B8
:101610002400FEF7A3BF304665E06846FFF705B833
:1016200090F9002012F1010F704790F9012012F19A
:10163000010F704710B5040002D1FFF745FEFEE729
:1016400000F0A0F894F8460020B92046BDE810400C
:10165000FFF784B910BDF8B506461546B46B326C79
:10166000002742B9306830BBB068FFF778F8002136
:101670000746B1601FE065B9706800F0EFF8716867
:10168000306C0844B1687060884214D33068706070
:1016900011E0F06800F0E2F8306CF2684042024479
:1016A000F26031688A4202D2B2681044F060022DC2
:1016B00001D104B1641E641CB4633846F2BD026CEF
:1016C000002A0B4600D1704710B5C46881681444E5
:1016D000C4608C4224BF0468C460C168BDE8104087
:1016E000184600F0BBB8F8B50546FFF75BFA05F100
:1016F000440494F9016007E005F12400FEF766FF59
:1017000008B1FEF7CDFF761E70B2012802DB686AD1
:101710000028F1D14FF0FF366670FFF75CFAFFF753
:1017200041FA94F9007007E005F11000FEF74EFF52
:1017300008B1FEF7B5FF7F1E78B2012802DB2869E9
:101740000028F1D12670BDE8F140FFF744BA10B58A
:101750000446FFF727FAA06B441EA441FFF73BFAAB
:10176000E00F10BD10B50024104B53F834201AB10F
:10177000641C082CF9D310BD43F8341003EBC401EA
:10178000486010BD10B50023084901EBC30254683E
:10179000844203D05B1C082BF7D310BD002041F816
:1017A0003300506010BD000004ED00E0201A00205E
:1017B000F8B504460D461646FFF7F4F904F138076C
:1017C00097F90C1011F1010F04BF0020387397F93D
:1017D0000D1011F1010F04BF00207873FFF7FBF922
:1017E000386828B93246294604F12400FEF7D3FEB2
:1017F0002046BDE8F24076E738B5040001D101206B
:1018000032BD20684CF6CC43036045F2555101606F
:1018100062684260A168816000F02CF8054620688B
:10182000C16811F0030F0DD000F024F8401B41F205
:101830003D318842F3D32268D06810F0030FEED018
:10184000032032BD4AF6AA210160002032BD0068A3
:101850004AF6AA2101600020704700004AB100004A
:1018600011F8013B521E00F8013B1CBF11F8013B6F
:10187000F8E7704701484068704700BF0C0000203F
:10188000F8B5040022D004F13C05697821B90020A4
:101890002870204600F0BBFA24216970DFF8A0729E
:1018A00000F075F92068016841F400410160216889
:1018B000086820F40040086000F03EFD6268BA420B
:1018C000014605D2DFF87C02814205D20120F2BD3B
:1018D000DFF874028142F9D32368DFF87022586878
:1018E000B1FBF2F2800942EA8010586023681E6A58
:1018F0006068B84206D34FF4967042434FF47A7052
:10190000B2FBF0F2521CB60942EA86121A62491E74
:101910002268D3696668BE4206D2760000F044F8B9
:10192000042913D2042111E0A06820B906EB460671
:1019300000F03AF805E01920464300F035F841F48C
:10194000804108050CBF012141F40041DFF800028D
:1019500003400B43D36123681A68E069216A22F0CF
:10196000C00202430A431A602368DFF8E8019A685C
:1019700021690240E0680A4302439A602268D36802
:10198000A06961691B0A40EA03230B43D36020214D
:101990002068026842F001020260002068606970FD
:1019A00020630021A970F2BDB1FBF6F1491CC1F31F
:1019B0000B0170472DE9F84304460F4690469946BF
:1019C000FFF758FF00F0A4F802D100F0D1F800288A
:1019D00040F08A803078012800F086800122327041
:1019E00000F0DBF8212070701021B17000207060D1
:1019F000C4F82480A4F82A9000F09CF8E06A082833
:101A00001CBF0128884205D0206B122804D100F0A9
:101A1000B8F801E000F0D2F800950022DDF820804F
:101A200043464FF0011100F0A8F838B12268106861
:101A3000C1054FD54FF4007070604BE02069B0F5E0
:101A4000804F04D1216807F0FE070F6111E0F8090B
:101A5000216800F0060040F0F00008612B46424685
:101A6000DFF8F41000F063F8002833D12068FFB2EB
:101A700007612B464246DFF8E41000F058F80028D2
:101A800028D100F03EF80099208D002824D02A4665
:101A90004146204600F025F9B8B9626A20681178FD
:101AA000016100F024F821684B695A0706D580B21D
:101AB00020B1626A1078086100F019F82A464146A0
:101AC000204600F03DF90028DED07068042801D1DE
:101AD00000F024F8012008E000F044F820217170A3
:101AE0000020B070307000E00220BDE8F283616A2F
:101AF000481C6062618D481E6085218D481E2085CE
:101B00007047009020684169009182690092704797
:101B100004F13C060546707820287047206801686B
:101B200041F40071016070472B463A465946204601
:101B300000F082B8608DDFF828102085E1627047E0
:101B4000A186010080841E0000093D0040420F0074
:101B50000030FFFF007CFFFF0800010002000100D1
:101B60000000FFFF2168086840F4007008607047BB
:101B7000009519230122DFF84010204600F024B818
:101B800000002068016841F480710160704721689D
:101B90000868400840000860704720680168CA076C
:101BA00003D4016841F0010101602068016821F45B
:101BB00000610160704700000200100021680868A1
:101BC00040F48070086070472DE9F8430E46089F86
:101BD000054691469846340C2968E0B201280CBFAE
:101BE0004969896900F078F80CBF01200020484558
:101BF00020D118F1010FEFD0FFF73CFEC01B80454C
:101C000002D3B8F1000FE7D12968E0B201280CBF78
:101C10004969896900F060F80CBF0120002048453F
:101C2000DAD100F0AFF842F02002426001700120EA
:101C3000BDE8F2830020FBE72DE9F0410E460546A2
:101C400014469846370CF8B2012821D12968486912
:101C5000304080B2B1B288421FD02868416948053F
:101C60001DD529680B680A4643F4007313606FF4AE
:101C7000806128684161002205F13C002A6320212F
:101C800041708270416841F00401416002701BE0C4
:101C90002868816900F020F8DFD1002015E014F1F8
:101CA000010FD0D0FFF7E6FDA0EB0800844201D37E
:101CB000002CC8D1F8B22968012808D1496900F080
:101CC0000BF8C3D000F02FF80120BDE8F08189693E
:101CD00000F002F8DCD0F5E7314089B2B0B28142C1
:101CE000704770B505460C461646286841690806D7
:101CF00017D4284600F050F818B914F1010FF4D0A9
:101D000001E0012070BDFFF7B5FD801B844201D3C7
:101D1000002CEAD1286841690806E6D400F003F8EF
:101D2000EFE7002070BD002105F13C00296320226F
:101D300042708170426842F0200242600170704738
:101D400070B505460C46164628684169480717D401
:101D5000284600F021F818B914F1010FF4D001E081
:101D6000012070BDFFF786FD801B844201D3002C4B
:101D7000EAD1286841694807E6D4FFF7D4FFEFE7C6
:101D8000002070BD00202863202205F13C000021C6
:101D9000427081704268704710B501684A69540505
:101DA0000DD56FF480634B61002101633C3020232B
:101DB00043708170436843F004034360017012F480
:101DC000806018BF0120C0B210BD000080B540483F
:101DD000026842F001020260016801F00101009115
:101DE000009A416841F0805141600022406800F053
:101DF000805000900F21009B6FF0010000F003FB6A
:101E0000344A1068022161F31A60106001BD18B5F0
:101E100085B004461021002201A800F027FB2168AC
:101E20002D4A91421DD12A4C216841F008012160C0
:101E30001222206800F0080000904FF440600099E2
:101E4000019003210491029201A9244800F018FB9B
:101E5000606840F480006060606800F4800000907A
:101E6000009806B010BD18B585B0044610210022B8
:101E7000684600F0FBFA236819498B4226D11448C2
:101E8000184C416841F400314160416801F400316F
:101E90000491049A016841F0040101600222006883
:101EA00000F00400049004200499009003210391A1
:101EB00001926946204600F0E3FA082000900022D3
:101EC000019202926946204600F0DAFA06B010BD8F
:101ED000181002400400014000580040000C01406E
:101EE00000440040000801402DE9F843040016D0EA
:101EF0002078DFF8A074C10713D5786800F00C00D3
:101F0000042807D0786800F00C00082840D17968D0
:101F1000C8033DD53A68910303D56068002800F0F6
:101F20005B812078DFF87C64810719D5786810F030
:101F30000C0F07D0786800F00C0008285FD1786893
:101F4000C1035CD43868810703D52069012840F0BB
:101F500043813968606921F0F80141EAC0013960C4
:101F60002178080778D5A069DFF83C14002800F034
:101F70009E8001220A60FFF77DFC0546796A88078A
:101F80005BD4FFF777FC401B0228F7D9032026E13A
:101F90006068B0F5803F03D1386840F4803013E0CA
:101FA00058B1B0F5A02F08D1386840F480203860CF
:101FB0003A6842F480323A6007E0396821F48031AF
:101FC0003960386820F480203860606858B1FFF7C5
:101FD00051FC054639688803A3D4FFF74BFC401B2E
:101FE0006528F7D3D2E7FFF745FC05463968880333
:101FF00097D5FFF73FFC401B6528F7D3C6E720695C
:1020000068B101213160FFF735FC0546386881076A
:102010009FD4FFF72FFC401B0228F7D9B6E7002218
:102020003260FFF727FC05463968880798D5FFF727
:1020300021FC401B0228F7D9A8E7DFF85C231168D0
:10204000C9084FF47A70B1FBF0F0009000BF00981F
:10205000411E00280091F9D1207841076ED5F96919
:102060000025C80009D4F96941F08051F9610125C2
:10207000F86900F0805000900098DFF83083D8F8BD
:102080000000C10520D4D8F8000040F48070C8F8E2
:102090000000FFF7EFFB8146D8F80010C80513D405
:1020A000FFF7E8FBA0EB09006528F5D36EE70860B1
:1020B000FFF7E0FB0546796A8807CDD5FFF7DAFB25
:1020C000401B0228F7D961E7E068012808D008B969
:1020D000386A09E00528386A06D140F00400386201
:1020E000386A40F0010005E0400840003862386A74
:1020F00020F00400386241F28938E06860B1FFF7EF
:10210000B9FB8146396A880713D4FFF7B3FBA0EB0C
:1021100009004045F6D339E7FFF7ACFB8146396A41
:10212000880706D5FFF7A6FBA0EB09004045F6D3CC
:102130002CE71DB1F86920F08050F861E0690028B3
:102140004CD0796801F00C01082938D002282AD136
:1021500000F047F805463968880105D5FFF78AFB86
:10216000401B0228F7D911E7206AB0F5803F05D15E
:102170007968A06821F40031014379607A68206AA7
:10218000616A22F4741202430A437A60012000F06B
:1021900029F804463868810120D4FFF76BFB001B47
:1021A0000228F7D9F2E600F01CF8044638688101ED
:1021B00014D5FFF75FFB001B0228F7D9E6E60128DC
:1021C0000AD07868226A00F48031914202BF00F49C
:1021D0007010616A884201D0012000E00020BDE853
:1021E000F28300203066FFF745BB2DE9F041040083
:1021F00088465FD06E4E306800F00700404509D237
:102200003168C90848EAC1013160306800F0070050
:1022100040454FD121685F4D880712D5490703D546
:10222000686840F4E06068602078010703D568685A
:1022300040F4605068606968A06821F0F0010143D3
:1022400069602178C80726D56068012802D129680D
:102250008A0303E0022803D129688A0103D429E014
:102260002B68990726D56A68920840EA8200686060
:10227000FFF700FB07466868616800F00C00B0EBF0
:10228000810F08D0FFF7F6FAC01B41F2893188426E
:10229000F1D3032032E0316801F0070188450BD209
:1022A0003068C00848EAC0003060316801F00701BA
:1022B000414501D0012021E02178480705D5696812
:1022C000E06821F4E0610143696021780A0706D5DE
:1022D0006868216920F4605040EAC100686000F03D
:1022E0000FF86A683349C2F303128B5C2A49D8405D
:1022F00008602B48006800F0B3F90020BDE8F081C9
:102300002D4926480A6802F00C03082B00D07047BC
:1023100010B500BF2BA4C2F38343D203E35C08D5FE
:10232000096858432BA3C1F34041595CB0FBF1F05D
:1023300010BD2248584310BD17481F4B00681A684B
:102340001F49C2F3022206E013481B4B00681A68BB
:102350001B49C2F3C222895CC840704710B50F22E6
:102360000260154A136803F003034360146804F025
:10237000F0048460136803F4E063C3601268D20859
:1023800002F4E06202610A4A106800F00700086087
:1023900010BD0000001002401800002000127A005A
:1023A00014000020000042428004424200700040BD
:1023B00000200240AC3100080410024000093D003A
:1023C0000C32000802030405060708090A0B0C0D6D
:1023D0000E0F1010010200000A01010002D41F4B71
:1023E0005A5470471E4801F00F01014401F8042CB3
:1023F00070471C490A6860F30A2240F2FA5060F301
:102400001F420A60704770B5164C2368C3F302235D
:102410000124C3F10705052D2FBF0F26C3F10706C1
:1024200004FA06F6761E1D1D072D34BF0023DB1EA1
:102430003140994004FA03F3BDE870405B1E1A4036
:102440001143C9E7010007D4012200F01F01064B28
:102450008A40400943F820207047000000E400E073
:1024600018ED00E00CED00E000E100E04018491C30
:102470001CBFB1F1010100F8012DF9D17047000036
:102480002DE9F84F00270024684BDFF8A481DFF81E
:10249000A491DFF8A4B14FF00F0A024610E0D3F880
:1024A00000E000EA0E00186009E0C3F804C04D68BF
:1024B000ED03F4D518684EEA000EC3F800E07F1C67
:1024C0000D6835FA07F000F0AB80012000FA07FC38
:1024D0000CEA050EE645F2D14D683DB3012D1AD048
:1024E000022D1DD0032D2ED0112D16D0122D1AD055
:1024F000524885421CBF5248854217D051488542F8
:102500001CBF5148854211D0504885421CBF5048DD
:1025100085420BD018E0CC6816E0CC68241D13E08F
:10252000CC68083410E0CC680C340DE0886808B939
:10253000042409E0012819BF0824C2F814C00824A3
:10254000C2F810C000E00024BEF5807F03D2104620
:102550004FEA870C04E0A7F10805101D4FEA850C2F
:1025600006680AFA0CF5AE4304FA0CF545EA060CC7
:10257000C0F800C04868C000A1D5D9F800C04CF030
:10258000010CC9F800C0BD00D9F8000000F001003E
:10259000009005F00C0C0098B80858F820600AFA72
:1025A0000CF5AE435A4508BF00250ED0294DAA426E
:1025B00008BF012509D0284DAA4208BF022504D032
:1025C000264DAA420CBF0325042505FA0CF545EA61
:1025D000060C48F820C06FEA0E004D68ED0204D5E5
:1025E0009D684EEA05059D6005E0D3F808C000EA45
:1025F0000C0CC3F808C04D68D3F80CC0AD024CBF3A
:102600004EEA0C0C00EA0C0CC3F80CC04D68D3F871
:1026100004C0AD034CBF4EEA0C0C00EA0C0C44E7BE
:10262000BDE8F18F02B9090401617047000401405F
:10263000080001401810024000080140000011107D
:1026400000001210000021100000221000003110C4
:1026500000003210000C0140001001400014014045
:1026600078B50446204887B0016841F00401016054
:1026700001A9006800F00400009002A8009AFFF78A
:102680006DFE059810B9FFF757FE02E0FFF754FE04
:1026900040001649164D174B2B60B0FBF1F100209E
:1026A00040F2E732491E2861A860A861EA606960CB
:1026B000284600F023F8060012D1284600F02BF837
:1026C00006000DD11E20FFF7BDFE102C07D2002200
:1026D00021461E20FFF797FE0748046000E0012610
:1026E000304608B070BD00001C10024040420F0090
:1026F000D8190020000800401400002038B504005C
:1027000001D1012032BD00F04BF818B900F044F8B7
:1027100000F026F92CE090F83D10012901D00120AD
:102720007047022180F83D100268D16841F0010134
:10273000D160DFF874200168914218BFB1F1804F79
:1027400007D0DFF8683099421CBFDFF8642091425F
:1027500006D1896801F00701062907D0026800E068
:102760000A461168104641F00101016000207047DF
:1027700002206870211D206800F0B4F80121A972C0
:102780000120A870E97028716971A871E971287237
:1027900069726870002032BD0021297020467047A0
:1027A00004F13C0568787047002C014000040040AB
:1027B0000008004070B504462068C5680669B20785
:1027C00014D5A90712D56FF0020202610121217709
:1027D000806910F0030F204602D000F0C2F803E039
:1027E00000F0C0F800F07BF800202077710715D5C5
:1027F000680713D520686FF0040101610222227777
:10280000806910F4407F204602D000F0AAF803E06F
:1028100000F0A8F800F063F800202077310715D504
:10282000280713D520686FF0080101610422227780
:10283000C06910F0030F204602D000F092F803E0C8
:1028400000F090F800F04BF800202077F00615D546
:10285000E90613D520686FF0100202610821217784
:10286000C06910F4407F204602D000F07AF803E0FF
:1028700000F078F800F033F80020207706F001022D
:1028800005F001010A4206D021686FF001020A61D9
:10289000204600F078F9300608D52A0606D52068CB
:1028A0006FF080010161204600F0AAF9700608D59A
:1028B0006A0606D521686FF040000861204600F0E6
:1028C000A0F9B0060AD5AA0608D521686FF0200045
:1028D00008612046BDE8704000F094B970BD204604
:1028E00000F091B970B50368194C1A4E1A4AA0420B
:1028F00018BFB0F1804F03D0904218BFB04209D149
:1029000023F070054B682B43A0421CBFB0F1804FF1
:10291000904201D0B04203D123F44072CB681343FC
:102920004A6923F0800313430360A0428B68C362AB
:102930000A68826202D10A6908490A600123436178
:102940000169CA0703D5016949084900016170BDE1
:10295000002C01400008004000040040302C0140E1
:10296000704770477047000030B585B000F04CF9F3
:1029700000F0B7F8102100226846FFF777FD854880
:10298000854D0268854C42F010020260016801F03A
:1029900010010491049B026842F004020260016885
:1029A00001F004010491049A016841F008010160FA
:1029B0000022006800F0080004904FF400510498D1
:1029C0002846FFF72FFE00224FF49C512046FFF7C8
:1029D00029FE012201924FF4005000210090029143
:1029E0000222039269462846FFF74AFD01214FF46F
:1029F0009C520191009202210022039102926946A9
:102A00002046FFF73DFD00214FF4F852019102915D
:102A1000009269466248634DFFF732FD62496348A0
:102A20006960286000224FF48041AA60EA60296151
:102A30006A61AA61EA612A622846FEF721FF08B1AD
:102A400000F0C0F805F19C0440F6FF70584AA06001
:102A50000021226061602046FEF7CEFE08B100F042
:102A6000B1F84FF4E1305349A86569650C200021A5
:102A7000A866E96529666966E966296705F1540073
:102A800000F0D4F808B100F09DF800F05AF900BF4A
:102A900057A20121012000F01CFAE0615FF0000262
:102AA0004FA30FF2E100444D012100F0D8F9A061DD
:102AB0005FF0020144A2102000F058FA60612A463B
:102AC00000210FF2850000F066F9E06005F12402B4
:102AD00000210FF2A50000F05EF9206100F040F93E
:102AE000FEE700B58FB02821002205A8FFF7BEFC45
:102AF000142100226846FFF7B9FC10210A91012237
:102B0000022109920B920C910A20059000224FF4A9
:102B100060110D920E9105A8FFF7E6F908B100F0DB
:102B200051F80F21009102220021029101924FF4ED
:102B300080610391049168460221FFF756FB08B1BA
:102B400000F040F80FB000BD38B51C4C00202060EC
:102B50000025A8B200F042FA05F5FA7540F6FF70BC
:102B6000854203DB206800F04FFA05464FF4FA7007
:102B700000F05DF9EDE7000080B5012000F057F9A5
:102B8000FBE70000704701680D48814208BF00F074
:102B90004FBA70471810024000100140000C01406D
:102BA0000008014080180020A08601000058004065
:102BB000003000400044004040300008641A00200B
:102BC0000008004072B6FEE7043200080000000072
:102BD00000000000000000000000000000000000F5
:102BE000F8310008000000000000000000000000B4
:102BF000CC310008000000000000000000000000D0
:102C0000704770477047704780B50748016841F0CA
:102C1000100101600320FFF7ECFB0F20FFF720FD00
:102C2000FFF7D4F8002002BD0020024038B50400B0
:102C300001D1012032BD04F14005687808B900F0E7
:102C400009F800F00CF800F022F8FFE7486100F006
:102C500010F832BD002129702046FFF704B9242066
:102C600068702168C86820F40050C860204600F0F1
:102C700019B82168C86840F40050C8606A60202113
:102C800069702020A87000216163002070472168CE
:102C9000086920F49040086100222168486920F00A
:102CA0002A00704710B5044622681169E06821F4D3
:102CB000405101431161D3681948A168034020695C
:102CC0000B43616903430B43D36016495369A06901
:102CD00023F4407303438A42536102D1FFF734FB6C
:102CE00001E0FFF729FB6268192148439200B0FB1D
:102CF000F2F26421B2FBF1F16FF0630000FB0122FC
:102D0000120132326423B2FBF3F000F0F00202EB66
:102D10000112216800F00F008018886010BD0000CB
:102D2000F3E9FFFF0038014080B5DFF8341208688E
:102D3000FDF703FD012803D0BDE80140FDF75CBFAE
:102D400001BDEFF3058000B16EE0DFF818120868EE
:102D500010B901220A6070474FF0FF307047000041
:102D600080B5EFF3058000B10FE0DFF8F8010168EE
:102D7000012909D1DFF8F01100220A700223036053
:102D8000FDF7CAFA002002BD02E06FF0050002BDA7
:102D90004FF0FF3002BDF8B584B000230393EFF38A
:102DA0000583002B3DD103003BD08025182600244D
:102DB0005AB3136803B11C4693691BB11E0004D0BB
:102DC000392E02D21779FB0701D500202AE053697A
:102DD00003B19D08D2F80CC0976887B1BCF15C0FB5
:102DE0001FD31269002A18BF002B1AD001920B467C
:102DF000029700962A462146FDF778F910E0BCF1CB
:102E0000000F04BF1269002A0BD103AB0193009697
:102E10000B46AAB22146FDF79AF9012801D00020FD
:102E20000390039805B0F0BD6FF00500704710B532
:102E3000EFF3058111B16FF0050403E0002408B140
:102E4000FDF751FA204610BD80B5FEF71AF90100D2
:102E500004D048680968BDE80440084701BD2DE971
:102E6000FE4305460F4690461E460024EFF30580BC
:102E700020BB1DB30820FDF7E9FC5FEA00091DD067
:102E8000C9F80050C9F804803A0018BF0122002098
:102E9000DFF84471BEB1316801B10846F168B3682A
:102EA0007BB12C2907D3019300974B460121FDF7F5
:102EB00035FF040002D14846FDF750FD2046BDE82D
:102EC000FE830029F7D100974B460121FDF70CFF47
:102ED000EFE77CB50E4614460025EFF30581002987
:102EE0003CD100283AD0B04238D344B1E268A1685E
:102EF00019B1502A32D3012101E0002A2ED1012834
:102F000019D1012908D1032000900022A3680021D3
:102F10000120FEF77CF902E00322FEF7A9F9050083
:102F20001CD0A6B100F053F8012810D02846FEF7B7
:102F300081FB002512E0012904D1A2683146FEF789
:102F4000CBF902E03146FEF7E1F9050006D0002C8E
:102F500014BF216800212846FEF704FC284676BDF0
:102F600010E000E0601A00201FED00E0F8B5144604
:102F70000025EFF305823ABB002818BF002923D0B3
:102F8000E4B1E268A36893B1502A1DD32269DAB193
:102F9000676901FB00F6B74216D30095FEF737F9D3
:102FA000050011D0002C14BF216800210AE0002A7E
:102FB00004BF2269002A07D162692AB90022FEF7FC
:102FC00057F9EDE7FEF7CEFB2846F2BD6068002317
:102FD00000220021FEF7B1B9492E00081CB540239C
:102FE000020901018DF804308DF805208DF80610D6
:102FF0000A240094032301AAC0210248FEF7DAFC48
:1030000013BD00BF80180020C0F3C751D1F19E014D
:1030100008DD020242F00042CA4002EBE07282EA9E
:10302000E07070477FEAE07080F000407047000079
:10303000024A516810784118516070470C00002016
:10304000EC3100080000000000000000000000005B
:103050000000000000040000280000000000000044
:1030600000000000BC31000800000000000000006B
:103070000000000000000000000400000800000044
:10308000000000000000000030B4002412E050F8FE
:10309000043BDA0744BF4B445B1E091F042943F875
:1030A000044BFAD21A468D0744BF1C80921CCB07F2
:1030B00048BF147050F8041B0029E8D130BC704799
:1030C00010B5034A7A440832024C7C44A41D03E044
:1030D0001C0000003C00000004E01168101D1144B9
:1030E00088470246A242F8D110BD00009DFFFFFFB5
:1030F0004C1A00001C00002000000000CFD9FFFF88
:103100001C00000070000000000000200000000013
:1031100000F00DF8002801D0FFF7D2FFAFF30080D8
:103120000020AFF30080FFF71FFC00F002F8012041
:10313000704700F001B800000746384600F002F87A
:10314000FBE7000080B5AFF30080024A11001820B1
:10315000ABBEFBE7260002000548014603B4684603
:1031600080F30988AFF30080AFF30080FFF7D0FF52
:10317000A5EDF5FE00000000AAAAAAAA0000000022
:1031800001000000000000001000000000127A00A2
:10319000FEE7FEE7FEE7FEE7FEE770470148FFF7C0
:1031A00009BB0000D8190020704700000000000093
:1031B000000000000102030406070809636F6D7038
:1031C00075746572436F6E6E656374006D794269E4
:1031D0006E61727953656D3031000000014880479F
:1031E00001480047A931000859310008646566614B
:1031F000756C745461736B006D7954696D657230D0
:103200003100000051756575650000000000000088
:1032100001020304FFF7FEBFFFF7FEBFFFF7FEBF8B
:10322000FFF7FEBFFFF7FEBFFFF7FEBFFFF7FEBFD2
:10323000FFF7FEBFFFF7FEBFFFF7FEBFFFF7FEBFC2
:10324000FFF7FEBFFFF7FEBFFFF7FEBFFFF7FEBFB2
:10325000FFF7FEBFFFF7FEBFFFF7FEBFFFF7FEBFA2
:10326000FFF7FEBFFFF7FEBFFFF7FEBFFFF7FEBF92
:10327000FFF7FEBFFFF7FEBFFFF7FEBFFFF7FEBF82
:10328000FFF7FEBFFFF7FEBFFFF7FEBFFFF7FEBF72
:10329000FFF7FEBFFFF7FEBFFFF7FEBFFFF7FEBF62
:1032A000FFF7FEBFFFF7FEBFFFF7FEBFFFF7FEBF52
:0C32B000FFF7FEBFFFF7FEBFFFF7FEBFF9
:040000050800315965
:00000001FF
