:020000040800F2
:1000000048360020B99C0008719B0008739B0008CB
:10001000759B0008779B0008799B00080000000092
:100020000000000000000000000000006F5F0008FA
:100030007B9B000800000000295F0008F1280008F1
:10004000ED9C0008F19C0008F59C0008F99C000854
:10005000FD9C0008019D0008059D0008099D000801
:100060000D9D0008119D0008159D0008199D0008B0
:100070001D9D0008219D0008259D0008299D000860
:100080002D9D0008319D0008359D0008399D000810
:100090007D9B00083D9D0008419D0008459D00088E
:1000A000499D00084D9D0008519D0008559D000880
:1000B000599D00085D9D0008839B0008619D000814
:1000C000659D0008899B0008699D00086D9D0008DA
:1000D000719D0008759D0008799D00087D9D0008B0
:1000E000819D0008859D0008899D0008F8B50400E1
:1000F00022D004F13C05697821B9002028702046FF
:1001000001F08FFA24216970DFF87C7500F054FB50
:100110002068016841F4004101602168086820F40A
:100120000040086001F01AFD6268BA42014605D23B
:10013000DFF85805814205D20120F2BDDFF85005F5
:100140008142F9D32368DFF84C255868B1FBF2F2FD
:10015000800942EA8010586023681E6A6068B842CD
:1001600006D34FF4967042434FF47A70B2FBF0F22C
:10017000521CB60942EA86121A62491E2268D369E5
:100180006668BE4206D2760000F044F8042913D215
:10019000042111E0A06820B906EB460600F03AF809
:1001A00005E01920464300F035F841F48041080588
:1001B0000CBF012141F40041DFF8DC0403400B4394
:1001C000D36123681A68E069216A22F0C002024301
:1001D0000A431A602368DFF8C4049A682169024060
:1001E000E0680A4302439A602268D368A0696169A3
:1001F0001B0A40EA03230B43D360202120680268D6
:1002000042F00102026000206860697020630021F2
:10021000A970F2BDB1FBF6F1491CC1F30B017047A7
:10022000006841690A0644BF0021016170472DE959
:10023000F84304460F469046994601F0EDFC00F065
:10024000E1F902D100F07EFA002840F08A8030788F
:10025000012800F086800122327000F0B9FA2120D6
:1002600070701021B17000207060C4F82480A4F870
:100270002A9000F0EDF9E06A08281CBF01288842A6
:1002800005D0206B122804D100F07EFA01E000F0C6
:10029000AFFA00950022DDF8208043464FF00111AF
:1002A00000F055FA38B122681068C1054FD54FF4F7
:1002B000007070604BE02069B0F5804F04D1216878
:1002C00007F0FE070F6111E0F809216800F0060051
:1002D00040F0F00008612B464246DFF8C41300F0FE
:1002E000ACF9002833D12068FFB207612B464246A3
:1002F000DFF8B01300F0A1F9002828D100F03EF893
:100300000099208D002824D02A464146204601F03D
:1003100088F8B8B9626A20681178016100F024F8A1
:1003200021684B695A0706D580B220B1626A1078FD
:10033000086100F019F82A464146204601F0A0F86D
:100340000028DED07068042801D100F06DF901208A
:1003500008E000F0DEF9202171700020B0703070EC
:1003600000E00220BDE8F283616A481C6062618D92
:10037000481E6085218D481E2085704700902068AA
:10038000416900918269009270472DE9F84F044657
:100390000020009088461746994601F03DFC00F089
:1003A00031F902D100F0CEF9002840F022813078F6
:1003B000012800F01E810122327000F04FF9102256
:1003C00000F055F97170B270002070606762A4F897
:1003D0002A90608D2085DFF8D002E062E36A216810
:1003E0000A6842F480620A60082B18BF012B04D00F
:1003F00083421CBF206B112801D100F0C5F9009584
:1004000000220A9F3B464FF0011100F0A0F94FF483
:10041000007938B122681168C80548BFC6F8049051
:100420000120E7E02069DFF87CB2B0F5804F07D10A
:1004300048F001005FFA80F82068C0F810802FE0D3
:100440004FEAD810226800F0060A4AF0F001116164
:100450002B463A46DFF8481200F0EFF80028DFD1CB
:1004600020685FFA88F8C0F8108000F0E3F80028F0
:10047000D6D100F09AF9009A23681968184641F419
:100480008071016000953B4600224FF0011100F0A1
:100490005EF90028BED120684AF0F10AC0F810A029
:1004A00000F0C8F80028BBD1208D10B900F037F952
:1004B00028E0012802D100F051F90BE00228206861
:1004C00001680BD141F40061016072B600F0B8F828
:1004D00000F0F2F81046016062B613E041F480616A
:1004E000016000F0ADF800990CE000F026F900285A
:1004F00096D100F093F8511C6162208D411E218538
:1005000000F0E3F8208D00286DD0042857D2012890
:10051000EBD00228DFF8401200953B4614D10022B0
:1005200000F015F90028E3D172B600F07DF800F074
:1005300075F8208D511C6162411E218500F0C5F8BF
:1005400062B600F03CFDD8E7002200F000F9002878
:1005500029D100F093F872B600F05AF8208D4A1CA9
:10056000411E626221851922608D411EDFF814024E
:1005700061854FF47A710368B3FBF2F200F096F8EC
:1005800000F008F920B1216848694107F8D50BE06F
:100590002063202171700022B270706840F020004A
:1005A000706062B632703BE722681168104600F056
:1005B00097F8616A208D4A1C411E6262BDE700F017
:1005C000BCF80028EFD100F093F89BD580B2032847
:1005D00001D100F07EF800F01BF84A1C218D626208
:1005E00000F00AF88EE720217170B07000213170A0
:1005F00000E00220BDE8F28F481E2085618D481E74
:100600006085704704F13C060546707820287047E5
:1006100022681169606A0170616A70472068016927
:10062000606A0170626A70472068016841F4007175
:10063000016070472B463A465946204600F09CBE62
:100640000020009020684169009182690092704703
:10065000608DDFF854102085E162704720680168E2
:10066000CA0703D4016841F00101016070472168A5
:10067000086820F40060086022217047216808683B
:1006800020F4806008607047A186010080841E000D
:1006900000093D0040420F000030FFFF007CFFFFDB
:1006A00008000100020001000000FFFFB2FBF1F1B1
:1006B0002320414300917047009B2268116821F478
:1006C00080617047616A4A1C6262608D411E61856B
:1006D000704722681168104621F4806101607047FC
:1006E00041F40071016022681169606A017070470D
:1006F00020680169606A0170616A208D4A1C401E91
:1007000062622085638D5A1E628521684A6951079D
:1007100070472168086840F40070086070470090D6
:1007200021684869009089690091009B22681168DE
:10073000104641F40071016070472A463946204650
:1007400000F0C0BE009519230122DFF8A01020465A
:1007500000F0DABD0000000004000100206801681C
:1007600021F48061016072B6002000902068416928
:10077000009182690092009B2268116841F4007127
:1007800070470000180000202068016841F4807163
:10079000016070470098401E0090009870472068E4
:1007A000016821F480610160704700902168486908
:1007B00000908969009170472168086840084000EE
:1007C00008607047002000902168486900907047D9
:1007D00020680168CA0703D4016841F00101016083
:1007E0002068016821F40061016070470200100078
:1007F0002168086840F48070086070472DE9FC416A
:10080000044604F13C052268DFF8286A5168E06A72
:1008100095F802C06F780023BCF1100F18BFBCF12F
:10082000400F40F072829369D2F814E05FEACE780C
:1008300005D4B0F52A0F18BFB0F12A4F39D05FEABE
:10084000CE7047D5880545D5E16AB1F52A0F08BFB6
:10085000012004D0E16AB1F12A4F01D10820E06201
:10086000A878402809D168690028A8681ABF40F014
:100870000100C0B200F0FE002AE02069B0F5804F10
:1008800018D168782128A8680EBF00F0FE0040F05B
:100890000100C0B21061606B00281CBF806A002894
:1008A00005D1A06B00281CBF806A002801D000F091
:1008B000ACFB35E3686920B900F03BFB40F0F00089
:1008C00006E06869012804D100F033FB40F0F10034
:1008D000106125E35FEA0E7015D5880513D5A96868
:1008E000C9B21161606B00281CBF806A002805D165
:1008F000A06B00281CBF806A0028EAD020684168ED
:1009000041F4006135E15FEA8E7000D5880540F161
:10091000AE80AF78E16A236B6878222840F0A4802B
:100920006869002808BF402F00F09E806869002891
:1009300004BF2069B0F5404F0FD1002100915369E9
:10094000009391690091009B22681068114640F461
:10095000807008606869401C84E0608D10B900F008
:1009600004FB2BE0608D01283AD1B14213D111680C
:10097000104621F48061016021684A68100505D5A0
:100980000B461A6822F480620A6068E0002000903A
:100990004A6900920FE0082918BF202903D0122BC2
:1009A0000FD1012912D010460146026822F480625C
:1009B0000A60FFF707FF89690091009B00F0EEFADB
:1009C0004FE004291CBF0229102903D0106820F42D
:1009D000806002E0106840F48060114608603EE0EC
:1009E000608D022827D104291CBF022910290CD0B0
:1009F0001346186840F4006000F0D7FA23681868BE
:100A00001A4620F48060106005E01346186840F430
:100A1000806000F0CAFA20684268130521D5B1420F
:100A200018BF012904D008291CBF1029202918D17A
:100A300000F091FA15E01346186840F480601060E9
:100A4000206843681A050AD5B14218BF012904D0AD
:100A500008291CBF1029202901D100F07CFA00F0E0
:100A6000E0FA002068615BE200F07FFA58E25B0781
:100A70000EF0040061D553681B05F7D45FEA0E63DE
:100A80002CD54B052AD5002828D16F78A978E36AA0
:100A9000208D002808BF212F13D1082B1CBF202B2D
:100AA000B34204D000F050FA0022AA7031E000F006
:100AB0008EFA34D10020A8702046BDE8F64101F03E
:100AC000B1B8212F03D0402908BF222FCED1608D8D
:100AD000002852D0A87840282BD00BE00028C5D0A1
:100AE0008805C3D5212F21D1E16A68782128BDD19D
:100AF000608D28B1616A08781061616A481CA6E0BF
:100B000008291CBF2029B14206D000F01DFA0020A0
:100B1000A8702021697004E000F059FACAD00020C2
:100B2000A8702046BDE8F64101F07DB8BCF1400F49
:100B300020D12046BDE8F6417CE25668330519D441
:100B40005FEA4E6677D54B0575D5002873D1687876
:100B500022280FD1E66A608D04280CD300F0E3F957
:100B6000FFF7B2FD608D032804D12068416821F4AD
:100B700080614160D4E1E16A022959D0012818BF9F
:100B8000002855D10020DFF87C77009019213B68C0
:100B9000B3FBF1F14FF47A70B1FBF0F000EB8000A1
:100BA00000902146FFF7F6FD20B10C6823689805F8
:100BB000F8D41AE06B6843F020036B60506820F4AF
:100BC000E06050600B681A69486A02704A6A531CF8
:100BD0004B6220224C8D601E48856A700020A870F0
:100BE0000846BDE8F64101F01FB80C46FFF771FD5D
:100BF0002068416821F4E061416000F0E0F92022C2
:100C0000618D481E60856A70A978402908D100204E
:100C1000A870002121632046BDE8F64101F005B827
:100C20000020A870082E18BF202E63D0122062E08A
:100C300000F085F974E10028FCD08805FAD5E06A57
:100C4000618D042908D100F07AF900F0D6F96062CC
:100C5000618D481E608563E1618D03290BD1516868
:100C600021F480615160042818BF022801D0FFF7E9
:100C700096FD22684FE1618D022942D1012818BFFB
:100C800010280DD0042818BF022804D013461A6873
:100C900042F4007208E013461A6842F4806203E0EE
:100CA00013461A6822F4806219460A6023681A699A
:100CB000616A0A70636A5A1C6262638D5A1E628599
:100CC00021680A69616A0A70626A531C6362628DF4
:100CD000511E618521684A6822F440724A602021D1
:100CE0006970AA78402A92D00021A970082818BFFC
:100CF00020289BD1002020632046BDE8F64100F06B
:100D000095BF116900F02CF907E1686800B9936993
:100D1000D2F814C05FEA8C7020D588051ED56868AB
:100D200000B193696878002100F02800282811D1CB
:100D300000F005F9580758BF0121180654BFE268B2
:100D4000A2690020287002B02046BDE8F04192B2AE
:100D500000F06DBF00F009F92B70E1E05FEACC63B1
:100D600000D5880540F17F806F78516821F4E061FB
:100D70005160FFF727FD22681168104641F001011C
:100D80000160009AFFF70BFD21684A6810052ED517
:100D90000FF2A548222F18BF2A2F13D0626B1068BC
:100DA0004368638500F0EFF8606B00F09DFF012859
:100DB0001DD0606BC0F83480606B00F039FFB0B1BB
:100DC000606B12E0A06B03685A68628500F0DBF884
:100DD000A06B00F089FF012809D0A06BC0F8348017
:100DE000A06B00F025FF10B1A06B416B8847608DB0
:100DF000B8B1206841694A0704D50169606A017089
:100E0000FFF760FC20684269510604D50269606AF8
:100E10000270FFF757FC608D18B1686840F004005D
:100E20006860686818B12046BDE8F6415FE12A2F86
:100E300006D10021216328206870204600F057FF6A
:100E40006878282807D1E66200F0E5F82046BDE87A
:100E5000F64100F04DBF206B222818BF222F5FD132
:100E600000F0D9F84DE00CF00400212F18BF292F15
:100E70002DD15FEA0C661CD54B051AD5C8B9697827
:100E8000608D00284CD0606A03781361606A421C50
:100E9000626200F072F808BF292941D100F0A7F87A
:100EA00021212163282068702046BDE8F64100F02A
:100EB00020BF002834D0890532D5608D00282FD07E
:100EC000606A01781161606A411C616226E05FEA34
:100ED0004C661BD54B0519D5C0B96978608DF8B142
:100EE0001069626A1070606A431C636200F045F822
:100EF00008BF2A2914D100F07AF822212163282082
:100F000068702046BDE8F64100F0F1BE40B18905A9
:100F100006D5608D20B100F006F86262FFF7D5FBC0
:100F2000BDE8F38100001069616A0870606A421CC4
:100F30007047A8680004C00D00F0060070475068B4
:100F400020F4806050607047506820F4E06050608A
:100F5000112121637047416841F48051416070471D
:100F6000606A0170616A4A1C7047002300935169EE
:100F700000919269009200997047608D421E6285CF
:100F8000608D00287047608D18B1686840F00400DB
:100F90006860486820F40060486070472268106804
:100FA000114640F400700860704710600023009301
:100FB00020684269009283690093009A7047206814
:100FC0000169606A0170616A4A1C62627047506818
:100FD00020F4E060506000222068016841F4007154
:100FE0000160226320206870A97840297047216839
:100FF000486820F480604860704721680869616A29
:101000000870626A501C704748602168486840F464
:101010000060486070470020206320216970A8703C
:10102000704700200090216848690090896900910C
:10103000009A704710B500F13D0200F148041378A2
:10104000A16881B9006862682168012A04D1C9B227
:101050000161A068801C04E00904090E0161A06818
:10106000401CA06010BDA168012904D1226800685D
:10107000D2B202610AE0A168022933D1222B09D140
:1010800002681168104641F480710160A168491C32
:10109000A16010BD418D61B1212B0AD1436A016865
:1010A0001A780A61426A511C4162428D511E418583
:1010B00010BD418D002908BF212B17D10368596845
:1010C00021F4E061596000240368196841F400715B
:1010D000196004632023137000215170BDE8104093
:1010E00000F0A0BDBDE81040FFF79AB810BD38B5BC
:1010F000044604F13D0528786978102914BF402979
:10110000222804D121680A6822F400620A6000F0F3
:101110002801282904D100222263282028700BE00E
:1011200021684A68110505D4602803D02020287062
:101130000021697000202063206841680A052BD5D2
:10114000416821F400614160626B0FF2ED0092F89A
:10115000211001290BD05063606B00F069FD00285D
:101160002DD000F059F820202870606B11E0A26BA0
:101170005063A06B00F05CFD08B3206841694A062B
:1011800002D5016900F038F8FFF716FB202129701D
:10119000A06B416B884712E02A78602A0AD120218F
:1011A00029700022226400F02DF800F03BF800F0D6
:1011B000A1FD04E000F026F8204600F035FD206C8B
:1011C00010F00F0F04D02168486820F4E0604860F8
:1011D0002878226C51070ED528280CD11548E062DA
:1011E000002121632020287000226A702046BDE87B
:1011F000324000F07DBD31BD606A0170626A511CF1
:101200006162704741694A0605D50169606A0170EB
:10121000616A4A1C62627047206801684908490097
:101220000160704721680868400840000860204657
:10123000704700000000FFFF7CB5002100911925D8
:10124000416A304801F13D024FF47A741378066820
:10125000B6FBF5F5B5FBF4F4232044430094009865
:1012600038B10098401E00900C6820688505F6D4BF
:1012700003E0086C40F020000864486B08B10024CB
:101280008462886B08B1002484620C68206820F4B2
:101290008060206000244C85486B00B14463886BFB
:1012A00000B144630868046864086400046010784E
:1012B00060280AD1202313700024547000220A648D
:1012C0000846BDE8764000F015BD03F02803282B42
:1012D0000ED10868036843F00103036008680468DE
:1012E00044F480640460002008632824147003E040
:1012F00020201070002353700846BDE8764000F0AF
:1013000093BC0000180000202DE9F8430E46089F0A
:10131000054691469846340C2968E0B201280CBF76
:101320004969896900F078F80CBF01200020484520
:1013300020D118F1010FEFD000F06EFCC01B8045EA
:1013400002D3B8F1000FE7D12968E0B201280CBF41
:101350004969896900F060F80CBF01200020484508
:10136000DAD100F0DBF842F0200242600170012087
:10137000BDE8F2830020FBE72DE9F0410E4605466B
:1013800014469846370CF8B2012821D129684869DB
:10139000304080B2B1B288421FD028684169480508
:1013A0001DD529680B680A4643F4007313606FF477
:1013B000806128684161002205F13C002A632021F8
:1013C00041708270416841F00401416002701BE08D
:1013D0002868816900F020F8DFD1002015E014F1C1
:1013E000010FD0D000F018FCA0EB0800844201D31C
:1013F000002CC8D1F8B22968012808D1496900F049
:101400000BF8C3D000F02FF80120BDE8F081896906
:1014100000F002F8DCD0F5E7314089B2B0B2814289
:10142000704770B505460C4616462868416908069F
:1014300017D4284600F07CF818B914F1010FF4D045
:1014400001E0012070BD00F0E7FB801B844201D366
:10145000002CEAD1286841690806E6D400F003F8B8
:10146000EFE7002070BD002105F13C002963202238
:1014700042708170426842F0200242600170704701
:1014800070B505460C46164628684169480717D4CA
:10149000284600F04DF818B914F1010FF4D001E01E
:1014A000012070BD00F0B8FB801B844201D3002CEA
:1014B000EAD1286841694807E6D4FFF7D4FFEFE78F
:1014C000002070BD70B505460C4616462868426976
:1014D000510621D44269D10608D56FF0100242614D
:1014E00000F01CF842600170012070BD00F094FB18
:1014F000801B844201D3002CE8D12868416948064A
:10150000E4D4002105F13C0029632022427081705F
:10151000426842F02002E5E7002070BD0020286309
:10152000202205F13C000021427081704268704722
:1015300010B501684A6954050DD56FF480634B619D
:10154000002101633C30202343708170436843F0E5
:1015500004034360017012F4806018BF0120C0B220
:1015600010BDF0B40246106895681318506803EB7C
:101570005004C00748BF4D44A3422DD013F8016B5F
:1015800016F0030004BF13F8010BC01C31090F292A
:1015900007D113F8011B0F3103E013F8017B05F8A5
:1015A000017B401EF9D10029E6D013F8010BC6F3E8
:1015B0008107032F08BF13F8017B00EB072040428F
:1015C00028440026B71E8F421EBF10F8017B05F885
:1015D000017B761CF6D1CFE7F0BC02F10C0070471E
:1015E00080B54448026842F001020260016801F0DF
:1015F00001010091009A416841F080514160002250
:10160000406800F0805000900F21009B6FF00100B7
:1016100000F08DFB384A1068022161F31A601060F7
:1016200001BD18B585B004461021002201A800F0C4
:10163000B1FB2168314A914225D12E4C216841F0FD
:10164000080121601222206800F0080000904FF489
:1016500040600099019003210491029201A9284859
:1016600000F0A2FB606840F48000606000226068C7
:1016700000F4800000900A210098212000F057FB20
:10168000212000F073FB06B010BD18B585B00446EC
:1016900010210022684600F07DFB236819498B4227
:1016A00026D11448184C416841F40031416041682A
:1016B00001F400310491049A016841F004010160D1
:1016C0000222006800F004000490042004990090B5
:1016D0000321039101926946204600F065FB082032
:1016E00000900022019202926946204600F05CFBC5
:1016F00006B010BD18100240040001400058004020
:10170000000C014000440040000801402DE9F8436E
:10171000040016D02078DFF8A074C10713D57868CC
:1017200000F00C00042807D0786800F00C000828AE
:1017300040D17968C8033DD53A68910303D5606804
:10174000002800F05B812078DFF87C64810719D5E0
:10175000786810F00C0F07D0786800F00C000828AB
:101760005FD17868C1035CD43868810703D52069EC
:10177000012840F043813968606921F0F80141EAAD
:10178000C00139602178080778D5A069DFF83C14DA
:10179000002800F09E8001220A6000F03DFA054614
:1017A000796A88075BD400F037FA401B0228F7D922
:1017B000032026E16068B0F5803F03D1386840F42B
:1017C000803013E058B1B0F5A02F08D1386840F44C
:1017D000802038603A6842F480323A6007E0396825
:1017E00021F480313960386820F4802038606068E6
:1017F00058B100F011FA054639688803A3D400F007
:101800000BFA401B6528F7D3D2E700F005FA05462E
:101810003968880397D500F0FFF9401B6528F7D396
:10182000C6E7206968B10121316000F0F5F905468D
:10183000386881079FD400F0EFF9401B0228F7D9E0
:10184000B6E70022326000F0E7F9054639688807FC
:1018500098D500F0E1F9401B0228F7D9A8E7DFF896
:101860005C231168C9084FF47A70B1FBF0F0009066
:1018700000BF0098411E00280091F9D1207841074F
:101880006ED5F9690025C80009D4F96941F0805185
:10189000F9610125F86900F0805000900098DFF8A8
:1018A0003083D8F80000C10520D4D8F8000040F4F7
:1018B0008070C8F8000000F0AFF98146D8F8001039
:1018C000C80513D400F0A8F9A0EB09006528F5D3EA
:1018D0006EE7086000F0A0F90546796A8807CDD563
:1018E00000F09AF9401B0228F7D961E7E068012867
:1018F00008D008B9386A09E00528386A06D140F0EE
:1019000004003862386A40F0010005E040084000F9
:101910003862386A20F00400386241F28938E068A1
:1019200060B100F079F98146396A880713D400F074
:1019300073F9A0EB09004045F6D339E700F06CF9E4
:101940008146396A880706D500F066F9A0EB0900E0
:101950004045F6D32CE71DB1F86920F08050F861BE
:10196000E06900284CD0796801F00C01082938D0D2
:1019700002282AD100F047F805463968880105D5C4
:1019800000F04AF9401B0228F7D911E7206AB0F5A8
:10199000803F05D17968A06821F400310143796066
:1019A0007A68206A616A22F4741202430A437A60F8
:1019B000012000F029F804463868810120D400F0A5
:1019C0002BF9001B0228F7D9F2E600F01CF80446B8
:1019D0003868810114D500F01FF9001B0228F7D9DF
:1019E000E6E601280AD07868226A00F48031914244
:1019F00002BF00F47010616A884201D0012000E04B
:101A00000020BDE8F2830020306600F005B92DE922
:101A1000F041040088465FD06E4E306800F0070049
:101A2000404509D23168C90848EAC10131603068CF
:101A300000F0070040454FD121685F4D880712D55F
:101A4000490703D5686840F4E060686020780107C2
:101A500003D5686840F4605068606968A06821F048
:101A6000F001014369602178C80726D56068012824
:101A700002D129688A0303E0022803D129688A0178
:101A800003D429E02B68990726D56A68920840EAB2
:101A90008200686000F0C0F807466868616800F07E
:101AA0000C00B0EB810F08D000F0B6F8C01B41F27B
:101AB00089318842F1D3032032E0316801F0070117
:101AC00088450BD23068C00848EAC00030603168F1
:101AD00001F00701414501D0012021E021784807AC
:101AE00005D56968E06821F4E06101436960217807
:101AF0000A0706D56868216920F4605040EAC100F1
:101B0000686000F00FF86A683349C2F303128B5C17
:101B10002A49D84008602B48006800F035FA0020B8
:101B2000BDE8F0812D4926480A6802F00C03082B15
:101B300000D0704710B500BF2BA4C2F38343D2037B
:101B4000E35C08D5096858432BA3C1F34041595CB5
:101B5000B0FBF1F010BD2248584310BD17481F4B91
:101B600000681A681F49C2F3022206E013481B4BA3
:101B700000681A681B49C2F3C222895CC8407047DA
:101B800010B50F220260154A136803F00303436087
:101B9000146804F0F0048460136803F4E063C36025
:101BA0001268D20802F4E06202610A4A106800F08A
:101BB0000700086010BD000000100240180000205F
:101BC00000127A00140000200000424280044242C9
:101BD0000070004000200240889C00080410024071
:101BE00000093D00E49C00080203040506070809FB
:101BF0000A0B0C0D0E0F1010010203681AB95A1EC1
:101C0000026008467047197811B94FF0FF307047ED
:101C1000591C01601878704701484068704700BF40
:101C20000C0000207047704770477047704770473E
:101C300038B590F821200024022A00F1340103D0A5
:101C40000420486001243EE00268136823F00E037C
:101C5000136003681A68520852001A60DFF86C308B
:101C600002689A4208BF012322D0DFF864309A420A
:101C700008BF10231CD0DFF85C309A4208BF4FF435
:101C8000807315D0DFF850309A4208BF4FF480536C
:101C90000ED0DFF848309A4208BF4FF4803307D0A7
:101CA000DFF83C309A420CBF4FF480134FF0807342
:101CB000DFF830201360012580F8215080F82040A3
:101CC000096801B18847204632BD00000800024083
:101CD0001C00024030000240440002405800024014
:101CE0006C0002400400024090F8210070477047E9
:101CF00070477047704703685A1C0260197070473C
:101D00000A01010002D41F4B5A5470471E4801F0CB
:101D10000F01014401F8042C70471C490A6860F364
:101D20000A2240F2FA5060F31F420A60704770B511
:101D3000164C2368C3F302230124C3F10705052DC4
:101D40002FBF0F26C3F1070604FA06F6761E1D1DE7
:101D5000072D34BF0023DB1E3140994004FA03F302
:101D6000BDE870405B1E1A401143C9E7010007D46B
:101D7000012200F01F01064B8A40400943F8202051
:101D80007047000000E400E018ED00E00CED00E01A
:101D900000E100E04018491C1CBFB1F1010100F84E
:101DA000012DF9D170472E002DE9F84F00270024AE
:101DB000684BDFF8A481DFF8A491DFF8A4B14FF0FD
:101DC0000F0A024610E0D3F800E000EA0E001860A7
:101DD00009E0C3F804C04D68ED03F4D518684EEA75
:101DE000000EC3F800E07F1C0D6835FA07F000F024
:101DF000AB80012000FA07FC0CEA050EE645F2D1A3
:101E00004D683DB3012D1AD0022D1DD0032D2ED0CB
:101E1000112D16D0122D1AD0524885421CBF52489F
:101E2000854217D0514885421CBF5148854211D088
:101E3000504885421CBF504885420BD018E0CC6802
:101E400016E0CC68241D13E0CC68083410E0CC68A0
:101E50000C340DE0886808B9042409E0012819BF92
:101E60000824C2F814C00824C2F810C000E00024FE
:101E7000BEF5807F03D210464FEA870C04E0A7F13D
:101E80000805101D4FEA850C06680AFA0CF5AE43EA
:101E900004FA0CF545EA060CC0F800C04868C0001A
:101EA000A1D5D9F800C04CF0010CC9F800C0BD00A4
:101EB000D9F8000000F00100009005F00C0C00982B
:101EC000B80858F820600AFA0CF5AE435A4508BF26
:101ED00000250ED0294DAA4208BF012509D0284D62
:101EE000AA4208BF022504D0264DAA420CBF0325F2
:101EF000042505FA0CF545EA060C48F820C06FEAFF
:101F00000E004D68ED0204D59D684EEA05059D6002
:101F100005E0D3F808C000EA0C0CC3F808C04D680F
:101F2000D3F80CC0AD024CBF4EEA0C0C00EA0C0C0E
:101F3000C3F80CC04D68D3F804C0AD034CBF4EEAE3
:101F40000C0C00EA0C0C44E7BDE8F18F02B909045F
:101F50000161704700040140080001401810024070
:101F600000080140000011100000121000002110B4
:101F7000000022100000311000003210000C01405F
:101F8000001001400014014078B50446204887B095
:101F9000016841F00401016001A9006800F004003B
:101FA000009002A8009AFFF7EBFD059810B9FFF723
:101FB000D5FD02E0FFF7D2FD40001649164D174B44
:101FC0002B60B0FBF1F1002040F2E732491E28619E
:101FD000A860A861EA606960284600F023F806005E
:101FE00012D1284600F02BF806000DD11E20FFF775
:101FF000BDFE102C07D2002221461E20FFF797FEBF
:102000000748046000E00126304608B070BD0000BB
:102010001C10024040420F00782D002000080040B4
:102020001400002038B5040001D1012032BD00F0B9
:102030004BF818B900F044F800F026F92CE090F8BD
:102040003D10012901D001207047022180F83D1088
:102050000268D16841F00101D160DFF874200168A5
:10206000914218BFB1F1804F07D0DFF86830994234
:102070001CBFDFF86420914206D1896801F0070196
:10208000062907D0026800E00A461168104641F0B0
:10209000010101600020704702206870211D206846
:1020A00000F0B4F80121A9720120A870E97028712C
:1020B0006971A871E971287269726870002032BD77
:1020C000002129702046704704F13C05687870476C
:1020D000002C0140000400400008004070B5044698
:1020E0002068C5680669B20714D5A90712D56FF034
:1020F0000202026101212177806910F0030F20465E
:1021000002D000F0C2F803E000F0C0F800F07BF865
:1021100000202077710715D5680713D520686FF068
:102120000401016102222277806910F4407F204679
:1021300002D000F0AAF803E000F0A8F800F063F87D
:1021400000202077310715D5280713D520686FF0B8
:102150000801016104222277C06910F0030F2046B4
:1021600002D000F092F803E000F090F800F04BF895
:1021700000202077F00615D5E90613D520686FF00A
:102180001002026108212177C06910F4407F2046C7
:1021900002D000F07AF803E000F078F800F033F8AD
:1021A0000020207706F0010205F001010A4206D066
:1021B00021686FF001020A61204600F0E2F9300662
:1021C00008D52A0606D520686FF0800101612046F7
:1021D00000F026FA700608D56A0606D521686FF069
:1021E00040000861204600F01CFAB0060AD5AA0695
:1021F00008D521686FF0200008612046BDE87040D6
:1022000000F010BA70BD204600F00DBA70B503683A
:10221000194C1A4E1A4AA04218BFB0F1804F03D091
:10222000904218BFB04209D123F070054B682B4390
:10223000A0421CBFB0F1804F904201D0B04203D108
:1022400023F44072CB6813434A6923F0800313439D
:102250000360A0428B68C3620A68826202D10A6985
:1022600008490A60012343610169CA0703D501696E
:1022700049084900016170BD002C01400008004080
:1022800000040040302C0140704770477047430005
:1022900030B585B000F0C8F900F0CEF868460021EE
:1022A00000220023002480E81E00B948B94D0268CE
:1022B000B94C42F010020260016801F01001049173
:1022C000049B026842F020020260016801F02001D4
:1022D0000491049B026842F004020260016801F06C
:1022E00004010491049A016841F008010160002290
:1022F000006800F0080004904FF40051049828464C
:10230000FFF724FE00224FF49C512046FFF71EFEEB
:10231000012101914FF4005002210090002203910D
:10232000029269462846FFF73FFD01214FF49C5277
:1023300001910092022100220391029269462046F7
:10234000FFF732FD4FF4E06000210090019102910F
:1023500069469248924CFFF727FD00209149924A26
:10236000A06021604FF48040002120616260E16044
:102370006161A161E16121622046FDF7B7FE08B10C
:1023800000F022F989488A4A002140F6FF73026072
:102390004160836000F05AF908B100F015F98548F2
:1023A00060654FF4E131A1650020E065206660665C
:1023B0000C21E0662067A16604F1540000F078F972
:1023C00008B100F001F980234FF4007221467A48E9
:1023D00000F0ECF900F062FA00F097FA8AA201210D
:1023E000012004F19C0500F058FB28615FF0000219
:1023F00081A30FF28D10714C012100F014FBE860F5
:102400005FF0020176A2102000F094FBA860224643
:1024100000210FF2CD0000F0A2FA286004F124029E
:1024200000210FF2491000F09AFA686000F07CFA7F
:10243000642000F0E0FAFBE718B593B0282109A862
:1024400000F0B0FB1421684600F0ACFB05AC0020A6
:1024500000210022002384E80F00092109910123B3
:102460004FF480310A910D930F93119102234FF491
:10247000E0110B921093129109A8FFF747F908B1E8
:1024800000F0A2F80F210091022200210291019296
:102490004FF480610391049168460221FFF7B7FA77
:1024A00008B100F091F8102200210592089105A8CA
:1024B00000F07CFB08B100F087F814B010BD70B5D7
:1024C000044600263E4D03E0012000F094FA761CFD
:1024D000B1B2A14202D228780028F5D170BD000027
:1024E0002DE9F043ADF1440D0FF22C1837A4324D15
:1024F000334E35E00021284600F06BF9814601217A
:10250000284600F066F900904B463A46214601A85D
:1025100000F0C0FB81B201A800F00BFCF088C719E5
:10252000BFB2B188B9420ADB307840B1384600F01A
:102530002FFC3089FFF7C3FF30780028DAD1002064
:1025400000F026FC0020307041466846072200F06B
:1025500035FC0621684600F0ECFB0A2000F04BFA3F
:1025600030780128F9D17788DBE7000010B50F4CEF
:10257000204600F096F8642000F03DFAF8E70000ED
:10258000704701680F48814208BF00F023BC7047C4
:102590001810024000100140000C014000080140EA
:1025A0002C2C002000580040A0860100242E002082
:1025B0000030004000440040002E0020A49A000893
:1025C000302E00200008004072B6FEE7443A25682D
:1025D000753B41303A25643B41313A25640D0A0090
:1025E000DC9C00080000000000000000000000006B
:1025F0000000000000000000C89C0008000000006F
:102600000000000000000000A89C0008000000007E
:102610000000000000000000444F4E450D0A00007D
:10262000704770477047704780B50748016841F0B0
:10263000100101600320FFF770FB0F20FFF7A4FCDF
:10264000FEF7CEFF002002BD0020024038B5040096
:1026500001D1012032BD20684CF6CC43036045F225
:102660005551016062684260A1688160FFF7D4FA49
:1026700005462068C16811F0030F0DD0FFF7CCFAB2
:10268000401B41F23D318842F3D32268D06810F0FC
:10269000030FEED0032032BD4AF6AA2101600020CC
:1026A00032BD00684AF6AA21016000207047000090
:1026B00038B5040001D1012032BD04F1400568782D
:1026C00008B900F009F800F00CF800F022F8FFE774
:1026D000486100F010F832BD002129702046FEF755
:1026E000D4BF242068702168C86820F40050C860F6
:1026F000204600F019B82168C86840F40050C8604E
:102700006A60202169702020A87000216163002088
:1027100070472168086920F4904008610022216810
:10272000486920F02A00704710B5044622681169F4
:10273000E06821F4405101431161D3681948A16850
:10274000034020690B43616903430B43D36016497F
:102750005369A06923F4407303438A42536102D151
:10276000FFF704FA01E0FFF7F9F96268192148431D
:102770009200B0FBF2F26421B2FBF1F16FF0630062
:1027800000FB0122120132326423B2FBF3F000F0AD
:10279000F00202EB0112216800F00F00801888603F
:1027A00010BD0000F3E9FFFF0038014010B50160E3
:1027B00082808371012180F820100022002300EB29
:1027C000420400EB8201521C2381042A0B61F6DBD8
:1027D00010BD1FB5044694F82000002853D00429EA
:1027E00051DAB4F90420A079091D42EA01321043FC
:1027F000012140F401408DF8081040F0030002A9C7
:1028000002048870120E052000904A70032320688D
:1028100002AA9021FDF70BFD002834D1A079C0B1A8
:10282000202814D0402810D060280CD0A02808D030
:10283000C02804D0E0280CBF03200A200AE00420AE
:1028400008E0062006E0142004E0282002E04620EC
:1028500000E0822000F0CFF800208DF8060005216E
:102860000091012320680DF106029021FDF7DFFCA5
:1028700048B901AA02231080902105200090206809
:10288000FDF783FD08B1002006E09DF804109DF8D7
:10289000050040EA012000B204B010BD10B5104C94
:1028A00010490022204600F09DFA08B1FFF78CFE87
:1028B0000D49204600F0A9FA08B1FFF785FE0B4943
:1028C000204600F0F5FC08B1FFF77EFE204600F040
:1028D000A4FA18B1BDE81040FFF776BE10BD00BFE6
:1028E000C02100203C010020280000202C010020F5
:1028F00080B5DFF83412086801F041F8012803D0F0
:10290000BDE8014001F046B901BDEFF3058000B11B
:102910006EE0DFF81812086810B901220A607047EB
:102920004FF0FF307047000080B5EFF3058000B135
:102930000FE0DFF8F8010168012909D1DFF8F01193
:1029400000220A700223036000F008FE002002BD8E
:1029500002E06FF0050002BD4FF0FF3002BDF8B598
:1029600084B000230393EFF30583002B3DD10300D4
:102970003BD08025182600245AB3136803B11C46A7
:1029800093691BB11E0004D0392E02D21779FB07C0
:1029900001D500202AE0536903B19D08D2F80CC08C
:1029A000976887B1BCF15C0F1FD31269002A18BF6A
:1029B000002B1AD001920B46029700962A46214618
:1029C00000F0B6FC10E0BCF1000F04BF1269002A51
:1029D0000BD103AB019300960B46AAB2214600F03F
:1029E000D8FC012801D000200390039805B0F0BD69
:1029F0006FF00500704710B5EFF3058111B16FF06E
:102A0000050403E0002408B100F08FFD204610BD4E
:102A100080B501F0FAFA010004D048680968BDE801
:102A20000440084701BD2DE9FE4305460F46904688
:102A30001E460024EFF3058020BB1DB3082001F0E3
:102A400007FB5FEA00091DD0C9F80050C9F80480EF
:102A50003A0018BF01220020DFF84471BEB131688E
:102A600001B10846F168B3687BB12C2907D3019303
:102A700000974B46012101F015F9040002D14846A8
:102A800001F06EFB2046BDE8FE830029F7D10097D8
:102A90004B46012101F0ECF8EFE77CB50E461446F9
:102AA0000025EFF3058100293CD100283AD0B0423F
:102AB00038D344B1E268A16819B1502A32D3012158
:102AC00001E0002A2ED1012819D1012908D10320C3
:102AD00000900022A3680021012001F0CAFB02E05F
:102AE000032201F0F7FB05001CD0A6B100F053F85B
:102AF000012810D0284601F0CFFD002512E0012961
:102B000004D1A268314601F019FC02E0314601F01F
:102B10002FFC050006D0002C14BF21680021284698
:102B200001F052FE284676BD10E000E03C2E002069
:102B30001FED00E0F8B514460025EFF305823ABB1F
:102B4000002818BF002923D0E4B1E268A36893B13C
:102B5000502A1DD32269DAB1676901FB00F6B7423A
:102B600016D3009501F085FB050011D0002C14BF91
:102B7000216800210AE0002A04BF2269002A07D147
:102B800062692AB9002201F0A5FBEDE701F01CFE05
:102B90002846F2BD606800230022002101F0FFBB3F
:102BA000112A0008002201F05DBE00002DE9FC4161
:102BB0000646354D3178C80750D5A9690024C800AC
:102BC00009D4A96941F08051A9610124A86900F0E4
:102BD0008050009000982D4F3868C10511D4386896
:102BE00040F480703860FFF717F880463868C105F8
:102BF00007D4FFF711F8A0EB08006528F6D30320EF
:102C00003FE0E86910F440701EBF716801F4407144
:102C1000884218D01E49E86901220A60002320F486
:102C200040700B60E861C0070DD5FEF7F5FF074661
:102C3000E969880707D4FEF7EFFFC01B41F289312D
:102C40008842F5D3DBE7EA69706822F440720243F8
:102C5000EA611CB1A86920F08050A861317888072A
:102C600005D52968B06821F44041014329603178D5
:102C7000C80605D52968F06821F480010143296060
:102C80000020BDE8F6810000041002400070004002
:102C9000400442420CB430B583B00A4606A9029102
:102CA000044600250194009502AB01A90848784428
:102CB0001E3001F0F4FD01990D7000284EBF04464E
:102CC0000198041B204603B030BC5DF80CFB00BF2C
:102CD00027F0FFFF38B5204D204C002204F580611D
:102CE000284600F0ECFA2146284600F0F0FA0020D1
:102CF00032BD002070470020704700003EB50178CB
:102D0000174C53290CD11749174D184B184A0191EC
:102D1000CDF8005017A102F025FD0122227003E03A
:102D2000302904BF002020700B4800F0EEFA00208C
:102D30003EBD10B5084CD4F8B8320A46D3F8141288
:102D400009B1012010BD0146204600F0B8FA204626
:102D5000BDE8104000F0C1BAC02100202C0E0020B8
:102D6000302E0020382E0020362E0020342E002059
:102D7000322E0020533A2568753B453A2568753B4D
:102D8000543A2568753B443A2568753B00000000BD
:102D90001CB54023020901018DF804308DF805208F
:102DA0008DF8061005240094032301AAC0210248CF
:102DB000FDF73DFA13BD00BF2C2C00204AB10000E6
:102DC00011F8013B521E00F8013B1CBF11F8013BFA
:102DD000F8E77047024A516810784118516070470F
:102DE0000C00002038B508B9022032BD00F5277468
:102DF000A3690BB10025A56101B1616101212170B9
:102E0000027002F01EFD002032BD0246002011B10A
:102E1000C2F8B41270470220704780B502F04DFD31
:102E2000002002BD10B5D0F8B42202241AB11268F5
:102E3000904700B90024204610BD80B5D0F8B432C8
:102E40005A680BE138B5044604F52A75284602F0A5
:102E500080FF04F525700122418B41600260017DF5
:102E600011F01F0003D002280BD005D30EE0294635
:102E7000204602F085FD0EE02946204602F0B0FE15
:102E800009E02946204602F0D3FE04E001F080016B
:102E9000204602F02BFD002032BD38B50446104616
:102EA0000A0004F525732AD1196803291ED104F5F7
:102EB000B0756A6829688A420BD2891A29609142E2
:102EC00038BF0A46014692B2204602F0A5FF002014
:102ED00032BD196A086928B1187A032802D1096934
:102EE00020468847204602F09BFFF0E70529EED1F7
:102EF000002018600021204602F0F8FCE7E71A6A7B
:102F0000906930B1187A032803D19269204690471E
:102F1000DDE7022032BD38B505460800134605F549
:102F2000257447D12068022835D12A6A696A9142FE
:102F300007D2521A2A62194692B2284602F059FF65
:102F400011E0EA69B2FBF1F001FB102090B98A426E
:102F500010D3606882420DD200220021284602F080
:102F600048FF00206060002300220021284602F074
:102F7000E3FC18E0216AC86828B1207A032802D14E
:102F8000C968284688478021284602F0AFFC2846B9
:102F900002F051FF07E0042818BF002803D1802168
:102FA000284602F0A3FC217B012904BF00202073E6
:102FB000002032BD226A506930B1207A032803D143
:102FC000526928469047F3E7022032BD10B5044607
:102FD00040230022002102F078FC04F5AC700122AD
:102FE00040210260C160402300228021204602F07F
:102FF0006CFC0121402004F52572A1616062002370
:103000001172136063601361506A28B1136A6168BA
:103010005A68C9B220469047002010BD01740020B4
:10302000704700F52770042102784270017000207B
:10303000704700F527700178042904BF41780170BA
:103040000020704780B500F527721178032903D15D
:103050009169C96901B18847002002BD90470020ED
:1030600002BD0000F8B505460026287C40B94FF4A3
:10307000007300F03CF80122EA624FF4007305E0AF
:10308000402300F034F80120E862402302220121AD
:10309000284602F01AFC0120C5F86C01082303221F
:1030A0008221284602F011FC0120286405F52E77C4
:1030B0004FF4077002F04AFC3860040008BF012694
:1030C00013D079680868804704F501700022026116
:1030D000002141610268287C00280CBF4FF4007376
:1030E00040230121284602F027FC3046F2BD02228F
:1030F0008121284602F0E9BB10B50446812102F087
:10310000EFFB0022E2620121204602F0E9FB0020F1
:10311000C4F86C018221204602F0E2FB0021216408
:1031200004F52E74206838B16168486880472068CB
:1031300002F01AFC00202060002010BDF8B5044603
:1031400004F527730D46DE6900228DF80020ADF8E6
:1031500002200027297811F0600223D0202A3BD1D9
:10316000EA88CAB1687809060BD5D3F820C0DCF824
:10317000083031469847EA883146204602F02CFE56
:103180002FE006F500710870E88848703146EA883B
:10319000204602F032FE24E01C6A6878A3682946C3
:1031A00098471EE0687820B10A2809D00B2810D073
:1031B00012E0197803290FD102220DF1020104E077
:1031C0001878032808D101226946204602F004FE3F
:1031D00007E01878032804D02946204602F0CDFDE8
:1031E00002273846F2BDF8B5044604F52E70026891
:1031F0008568DAB10F46142078432618F06980B14B
:1032000028235F43EB191B6AB0FBF3F503FB1500A2
:1032100038B90027F76100230022204602F086FB20
:1032200002E00023C2F814320020F2BD0220F2BDF9
:1032300070B500F52E76346804F5017502F082FB56
:10324000A860306838B173682868DA6804F50371DB
:103250009047002070BD022070BD10B500F52E70A3
:1032600043680168002B1EBF01F500742078FF2819
:1032700004D062789B689847FF202070002010BD22
:10328000432101800648704743210180054870476B
:1032900043210180044870470A2101800348704798
:1032A000A400002060000020E80000201C00002096
:1032B0000246022011B1C2F8BC1200207047D0F8BB
:1032C000B80200F502700160826000207047D0F8FB
:1032D000B802C0F804120020704780B5D0F8B812C8
:1032E00089B101F50272D16859B90123D36091689F
:1032F00001638121936812689BB202F017FB0020E2
:1033000002BD012002BD022002BD80B5D0F8B81276
:1033100061B1D1F80422017C00290CBF4FF4007385
:103320004023012102F008FB002002BD022002BD63
:10333000F0B585B050260B9D25B986F3118800F0B5
:1033400047FAFEE70C9C24B986F3118800F040FA96
:10335000FEE75C270097DDF800E0BEF15C0F04D0CB
:1033600086F3118800F034FAFEE7009E25630027FB
:10337000022584F8595004AE0A9D039702940196E1
:10338000009500F034F8204600F079F8049805B074
:10339000F0BD2DE9F8430646174684B088469946A5
:1033A000B80000F055FE04001CD05C2000F050FE78
:1033B000050014D000212C6385F859100391029563
:1033C0000D990C98019100904B463A464146304683
:1033D00000F00DF8284600F052F8012004E02046E5
:1033E00000F0BEFE4FF0FF3005B0BDE8F0832DE9E0
:1033F000F0470A9E80460C461546306B9946A5223A
:10340000A90001F02BFA316B01EB8502101FC008F7
:103410004FEAC00A0AF0070006F1340554B1002152
:10342000625C6A54605C10B1491C1029F8D3002119
:10343000E97300E02870089F372F88BF3727099C61
:10344000F762AF610020E861C7F13807301D02F074
:103450000AFD06F1180002F006FD3661B7617662DA
:1034600000202862002186F858104A4641465046FE
:1034700000F00EFB306004B12660BDE8F0872DE956
:10348000F04100F068F8DFF81055DFF87085E86C5F
:10349000401CE8641426A86A28BBAC62E86C0128CA
:1034A00029D1002706FB07F0404402F0CFFC7F1C27
:1034B000382FF7D305F1740002F0C8FC05F1880736
:1034C000384602F0C3FC284602F0C0FC05F11400A7
:1034D00002F0BCFC05F1380002F0B8FC05F1740004
:1034E000E8622F6307E0A86D28B9E06AAA6AD16A8A
:1034F000884228BFAC62AA6EE06A521C6264696DA1
:10350000814238BF6865AA664643211D08EB060064
:1035100002F0ACFC00F02DFBA86D20B100F09EF98C
:1035200001D200F050F9BDE8F08180B580B1DFF83C
:103530006824116F21B100F02FF900F049F9FEE77E
:10354000136F5B1C136700F06DFA00F044F808B9C4
:1035500000F039F901BD044600F0F2BA80B586B03A
:1035600000210591049103AA04A905A802F0B8FC62
:10357000059A049902920020019100900023039A79
:103580000FF204510FF26930FFF7D2FE98B100F04C
:1035900045FB5021012810D181F3118800F018F962
:1035A000DFF8D0044FF0FF31C166012282650021AF
:1035B000016500F08BFA07B000BD10F1010FFAD1E0
:1035C00081F3118800F004F9FEE7DFF8A814086F12
:1035D000401C0867704770B5DFF8BC63306F00248B
:1035E000002520B900F043F800F0F2F8FEE700F003
:1035F000A7FA306F401E3067306F002836D1F06C6C
:10360000D0B933E0F068C46800F035F800F0C6F9CE
:10361000E36A706D984238BF73651422DFF858046E
:103620005343211D184402F021FCE06AB26AD16ABA
:10363000884224BF0122326630680028E2D10CB1F2
:1036400000F08FF9F46D44B100F01DF808B10120CD
:103650003066641EF8D10020F065306E30B1DFF8BE
:103660001C044FF08051012500F0B1F8D0E1502149
:1036700081F31188704704F1180002F01DBCDFF8D7
:10368000F403006D70472DE9F843DFF80C63306FE9
:103690000025002852D1346D641C346510D1F06AC5
:1036A000006820B1FFF7E3FF00F092F8FEE7F16A4F
:1036B000306BF0623163706E401C706600F051F93F
:1036C000F06EDFF8B48384424FF0140927D31FE073
:1036D000F16AC868C768786884422DD3381D02F043
:1036E000EBFBB86A18B107F1180002F0E5FBF86AC5
:1036F000716D814238BF706509FB00F0391D40448F
:1037000002F0B4FBF86AB26AD16A884228BF012588
:10371000F06A00680028DBD14FF0FF31F166B06A33
:10372000C06A09FB00F958F80910022928BF0125D1
:10373000306E30B1012504E0F066F0E7F06D401C1A
:10374000F0652846BDE8F28310B5DFF84C22106F13
:1037500010B10121116610BD1066DFF81C43506DD9
:1037600000E0401E14234343E15831B90028F8D14A
:1037700000F012F800F02CF8FEE7E1184B685C68E6
:103780004C6001F108039C4204BF64684C604B68C4
:10379000D9689162506510BD502080F31188704740
:1037A00010B50C4620B9FFF7F7FF00F011F8FEE75F
:1037B00000F028F802F067FB2046BDE81040FFE764
:1037C000012100F02FB9DFF8B4024FF08051016001
:1037D000BFF34F8FBFF36F8F704738B50D46144658
:1037E00020B9FFF7D9FFFFF7F3FFFEE700F00AF873
:1037F00002F03CFB0CB14FF0FF3521462846BDE8F6
:1038000034400FE1DFF86C329A6A02F11801704718
:1038100038B5C068C46824B9FFF7BEFFFFF7D8FF0A
:10382000FEE7FFF728FFDFF84C52286F40B900F0A1
:10383000B5F800F018F838BF6A6500F0EDF802E05E
:1038400004F11801284602F011FB00F007F803D23A
:1038500001212966012032BD002032BDA96AE26A39
:10386000C86A90427047E26A686D90427047DFF81C
:103870000422516E0160126D42607047F8B5044633
:103880000D46502024B980F31188FFF7A1FFFEE711
:1038900025B980F31188FFF79BFFFEE700F050F990
:1038A000DFF8D001D0F850C02B68616813F1010F28
:1038B000ACEB01020DD0466E2768BE4201D08C45AC
:1038C0000BD29A4207D29A1A2A60416E2160006D8B
:1038D0006060002402E000202860012400F049F923
:1038E0002046F2BDDFF88C0101210166704700001F
:1038F00070B5424CDFF87C5111E000F021F9286AE4
:10390000C668301D02F0D8FAE86C401EE864686BA7
:10391000401E686300F02DF9304600F00BF8686B2C
:103920000028EAD12268022A01D3FFF74CFF02F0F7
:10393000E1FAF4E710B5044694F8590040B9206B59
:1039400000F00EFC2046BDE8104000F009BC10BDA0
:103950000128F7D00228FAD0FFF71EFFFFF738FF43
:10396000FEE70D49C86A006818B94FF0FF32CA6611
:103970007047CA6AD068C2685068C8667047DFF886
:10398000F410886D08B901207047086F08B902204B
:103990007047002070470000DC2C0020201D02F042
:1039A0008BBA38B50446002134B3DFF8C850A86A92
:1039B0005022844204D082F31188FFF709FFFEE70A
:1039C000206D20B982F31188FFF702FFFEE7E36A5A
:1039D000E26C401E934220650ED068B9FFF7DEFF0F
:1039E000E26CE262C2F13801A161686D904238BFB9
:1039F0006A6500F005F80121084632BD2C1600204A
:103A00001420DFF874304243211D981802F02EBABA
:103A100000F0AFF8284670BD1420174B4243211D1B
:103A200098187047F8B5134E376D0C46B16A0546C5
:103A3000081D02F041FA15F1010F05D124B1B06A59
:103A4000011D06F138001BE0B06AED194560BD426A
:103A5000B06A05D2011D306BBDE8F44002F013BA24
:103A6000011DF06A02F00FFAF06E854238BFF5666C
:103A7000F1BD0000DC2C00202C16002004ED00E03D
:103A8000BDE8F44002F0F2B949444C4500000000A2
:103A9000490810B54900A0F10C034FF0807459603B
:103AA0009C600FF20D01196040F8202D203810BDE8
:103AB000544A5168502011F1010F80F31188BFF36F
:103AC0004F8FBFF36F8F00D0FEE7FEE71CB54E4966
:103AD0004C4C08780190FF230B7007200A788DF872
:103AE00000209DF8002002F05002227005E09DF8B1
:103AF00000205200401E8DF800209DF800301A066C
:103B0000F5D4424212F1030F03D0A06000F050F848
:103B1000FEE7000200F4E060A060019808703B48F6
:103B2000026842F470020260016841F07041016075
:103B300002F0E6F90020606002F029FA002016BDCC
:103B4000502080F31188BFF34F8FBFF36F8F2D4A42
:103B50005168491C012951600AD12D4B1A68110680
:103B600006D080F31188BFF34F8FBFF36F8FFEE74E
:103B700070472449486838B9502080F31188BFF352
:103B80004F8FBFF36F8FFEE7401E486008BF80F382
:103B90001188704780B500F00BF8FFF774FD18B17D
:103BA0001B484FF080510160002282F3118801BD53
:103BB000502080F31188BFF34F8FBFF36F8F704792
:103BC000EFF305825020102A0E490BD3114B9B5C5A
:103BD0000A78934206D280F31188BFF34F8FBFF368
:103BE0006F8FFEE789680C4B1A6802F4E06291421D
:103BF00006D280F31188BFF34F8FBFF36F8FFEE7BC
:103C0000704700000000002000E400E020ED00E02C
:103C100004ED00E0F0E300E00CED00E010B586B04C
:103C200000F0CCF9DFF81044A068C0B10022059282
:103C3000049204A903AA05A802F0BAF9059A049906
:103C400002920220019100900023039A0FF2F031BA
:103C50000FF23110FFF76CFB0028E06005D1502116
:103C600081F3118800F062F8FEE7012006B010BD74
:103C70002DE9FC4105460E46174698462C2000F0DB
:103C8000E7F904000BD0002184F828100194434682
:103C9000089800903A463146284600F023F820461E
:103CA000BDE8F6817CB52C2400945025009C2C2C7A
:103CB00004D085F3118800F039F8FEE7079C009ED8
:103CC000002C04D185F3118800F030F8FEE707D00E
:103CD000022684F828600194069D009500F002F801
:103CE000204676BD2DE9F8430C00814615469846DE
:103CF00002D100F018F8FEE7099E96B1089F00F087
:103D00005DF9C6F80090B461C6F81C803762301DBA
:103D100002F0A9F82DB196F8280040F0040086F8CA
:103D20002800BDE8F183502080F31188BFF34F8F46
:103D3000BFF36F8F7047F8B5044684B01E4600206D
:103D400014B9FFF7F0FFFEE7DFF8EC72BD68BDB114
:103D500006290091019202940CDAFFF710FE022866
:103D600007BF0A9A002300230022B868694600F0C2
:103D700016FB05E0002332466946284600F0A6FB04
:103D800005B0F0BDF8B586B0DFF8AC522968086818
:103D900010B90124002602E0C86806680024FFF775
:103DA00014FC01A800F0B4F80746019800283FD1A0
:103DB00054BBB7422DD3FFF70EFC2968C868C4680E
:103DC000201D02F079F894F82810480717D5A1694A
:103DD00033463A468919204600F0D6F840B1002013
:103DE00000900023324600212046FFF7A4FF18B1BF
:103DF000216A2046884725E0FFF795FFFEE701F09E
:103E0000FE0184F82810F3E7686801684C1EA4419D
:103E1000E40FA8682246F11B00F0FCFCFFF7DBFB77
:103E200080B986484FF080510160FFF77FFF09E0BD
:103E3000FFF7D1FB06E094F8281088073BD4204612
:103E400000F08EF9A868002202A900F088FB002883
:103E50009CD00298002803D505990498039A9047AE
:103E600002980028EED4049C606910B1201D02F075
:103E700023F801A800F04CF802990929E2D8DFE8FC
:103E800001F02121211A070621211A07DAE7D2E7DA
:103E900094F8282042F0010284F828200399A161B7
:103EA00031B1034602460918204600F06DF8C9E713
:103EB000FFF739FFFEE794F8280000F0FE0084F8D1
:103EC0002800BFE794F8281041F0010184F8281079
:103ED00002460399A0690B464118204600F054F8A9
:103EE0000028AFD0216A2046884794F8280041076F
:103EF000A8D5002000900023039AA0698218002111
:103F00002046FFF718FF00289CD1FFF70CFFFEE7C3
:103F10002DE9FC410646484DFFF7B1FB29690446EF
:103F20008C4209D3002030602C61B8E678603F6194
:103F3000391D286801F0A7FF29680868F0B1C86832
:103F4000D0F80080C768381D01F0B6FF396A3846DE
:103F5000884797F828205007EED5B8694044804537
:103F6000E4D3002000900023424600213846FFF7AA
:103F7000E2FE0028E0D1FFF7D6FEFEE76868696040
:103F8000286001213160CFE738B500248A424160C2
:103F90000061294D06D38169D21A8A4206D2011DD9
:103FA000686807E09A4203D2994201D3012403E0F2
:103FB000011D286801F067FF204632BD1CB5FFF7E0
:103FC000BFFD1D4CA068E0B904F1140001F03EFFF4
:103FD00004F1280001F03AFF04F1140204F1280171
:103FE000002022606160009004F13C0304F18C0227
:103FF00010210A2000F03DF9A06010B112A100F0DC
:10400000E3FBBDE81340FFF7B4BD10B5040000F0BA
:1040100007F8E469FFF7ADFD204610BD04000D462A
:1040200007D1502080F31188BFF34F8FBFF36F8FFC
:10403000FEE7FFF785BD0000002B002004ED00E047
:10404000546D722053766300546D7251000000006D
:104050002DE9F8430446FFF7B8FA684FB8684FF007
:104060000008002508BB07F1200307F1200013F02A
:10407000070F4FF44062014605D0C11DC908C900B1
:10408000C1F54063C2185218083AD208D20039600C
:104090007D60BA6055601560501A48600A604868D3
:1040A0003861F8604FF00040F8614FF05009F8694E
:1040B000044245D1002C43D0083414F0070F04D03B
:1040C00004F1080104F007000C1A002C38D0F8683D
:1040D000A04235D33E68394601E031460646706855
:1040E000A04202D230680028F7D1B868864227D0B3
:1040F0000A683068086002F108087268121B112A09
:104100000CD3311911F0070002D000F022F8FEE7BD
:10411000301D02517460084600F04CF87168F86870
:104120003A69401AF860904288BF10463861F869D1
:1041300001437160356008F007057869401C7861BB
:10414000FFF749FA15B100F004F8FEE74046BDE874
:10415000F28389F31188BFF34F8FBFF36F8F7047DE
:10416000002800D1704738B5A0F10804234D6368DA
:10417000E96950220B4204D182F31188FFF7EBFF6B
:10418000FEE7206820B182F31188FFF7E4FFFEE725
:104190008B436360FFF719FAE96860684118E960CA
:1041A000204600F007F8A869401CA861BDE831402E
:1041B000FFF711BA30B511490A4600E01A461368F4
:1041C0008342FBD35368D418844203D14068C31898
:1041D0005360104643681468C518A54208D1896821
:1041E0008C4204D06168CB184360246800E00C4620
:1041F0000460824218BF106030BD00000C02002035
:1042000070B504000D4602D100F090F8FEE7FFF70C
:1042100097FC206CE16B226800FB01F6491E4843C5
:1042200016441044A6600023A363E06004F1440137
:1042300062604FF0FF300870487075B92069A0B116
:1042400004F11000FFF7E4FA78B1DFF8C0054FF091
:104250008051016000F007FA07E004F1100001F05E
:10426000F5FD04F1240001F0F1FDFFF782FC0120CF
:1042700070BD7CB51C46502320B983F3118800F033
:10428000F2F9FEE724B983F3118800F0ECF9FEE7B8
:104290002AB129B983F3118800F0E5F9FEE779B96D
:1042A00050250095009E502E0FD1009B34B1069BE7
:1042B000012584F84650009400F028F8204676BD89
:1042C00083F3118800F0CFF9FEE783F3118800F043
:1042D000CAF9FEE7F8B504000E46174602D100F011
:1042E00025F8FEE706FB04F05030FFF7B1FE0500AD
:1042F0000AD0002085F8460000953B4605F15002A3
:104300003146204600F002F82846F2BD38B5049C3C
:104310001D4600290CBF24602260E0632164204612
:104320000121FFF76DFF84F84C5031BD502080F320
:104330001188BFF34F8FBFF36F8F704738B50C46AE
:104340001346502120B981F3118800F08CF9FEE763
:10435000A04204D281F3118800F085F9FEE702251E
:10436000009500220021FFF784FF00B1846332BD75
:1043700010B50C46502120B981F3118800F073F973
:10438000FEE7A04204D281F3118800F06CF9FEE749
:1043900002220021FFF79EFF00B1846310BD2DE9CA
:1043A000F64782B004461E46502714B900F059F96A
:1043B000FEE75FEA010A01D1206C60B9022E02D14A
:1043C000E06B01280AD1FFF7DAFA50B9039840B13F
:1043D00000F047F9FEE700F044F9FEE700F041F98C
:1043E000FEE7274600244FF08058DFF820942EE0A7
:1043F000039800284BD014B900F041F90124FFF7CD
:10440000B8FBFFF7E2F8FFF79BFB07F1440000F071
:1044100039F904BF0021017000F039F904BF00210F
:104420004170FFF7A6FB00F04DF8002844D1FFF7DC
:1044300087FBB96BF86B814214BF00250125FFF79C
:1044400098FB45BB384600F080F9FFF7C4F8FFF74A
:1044500077FBB96BF86B814201D3022EC8D132468B
:104460005146384600F029F9796A29B107F124004C
:10447000FFF7CEF908B904E018B1C9F8008000F0E0
:10448000F2F8FFF776FB012004B0BDE8F087FFF7F4
:1044900070FB0020F8E7039907F11000FFF780F99F
:1044A000384600F052F9FFF796F80028CFD1C9F846
:1044B000008000F0D8F8CAE7384600F046F9FFF768
:1044C0008AF8E6E703A96846FFF7D8B92DE9F8436B
:1044D0000446884615461E46502714B900F0C1F818
:1044E000FEE7B8F1000F01D1206C40BB022E02D1D3
:1044F000E06B012826D1FFF763FBEFF3118900F091
:10450000B0F8A16BE06B814201D3022E22D194F965
:104510004570A06B32464146204600F0CEF817F1B8
:10452000010F12D1606A98B104F12400FFF770F90D
:10453000002818BF002D0BD00120286008E000F0F3
:1045400090F8FEE700F08DF8FEE77F1C84F84570D8
:10455000012000E0002089F31188BDE8F2832DE9F5
:10456000F74306460F460024502526B985F31188E7
:1045700000F079F8FEE70FB9306C48B9FFF7FFF9A2
:1045800078B9029868B185F3118800F06CF8FEE7FD
:1045900085F3118800F067F8FEE700F06EF8FFF78A
:1045A0001AF8FFF7CDFAB56BDFF86092002D4FF0E7
:1045B000805832D10298002845D014B900F05FF835
:1045C0000124FFF7D6FAFFF700F8FFF7B9FA06F172
:1045D0004400425712F1010F04BF0021017000F0A6
:1045E00056F804BF00214170FFF7C3FA02A9FFF794
:1045F0006AFF002830462AD100F0DBF80028CCD032
:1046000000F036F800F039F8FEF7E5FF0028C8D1D1
:10461000C9F8008000F027F8C3E73946304600F0BB
:1046200080F86D1EB563306940B106F11000FFF7E8
:10463000EFF818B1C9F8008000F015F8FFF799FA03
:104640000120BDE8FE83FFF794FA0020F9E700F0AF
:104650007CF8FEF7C0FF304600F0ABF80028A0D091
:10466000F3E787F31188BFF34F8FBFF36F8F704766
:10467000029906F12400FFF793B8304665E06846DA
:10468000FFF7F5B890F9002012F1010F704790F98B
:10469000012012F1010F704710B5040002D1FFF79D
:1046A00045FEFEE700F0A0F894F8460020B9204649
:1046B000BDE81040FFF754BD10BDF8B506461546DD
:1046C000B46B326C002742B9306830BBB068FFF77A
:1046D00068F900210746B1601FE065B97068FEF710
:1046E0006DFB7168306C0844B1687060884214D307
:1046F0003068706011E0F068FEF760FB306CF268C3
:1047000040420244F26031688A4202D2B2681044E8
:10471000F060022D01D104B1641E641CB4633846FC
:10472000F2BD026C002A0B4600D1704710B5C46878
:1047300081681444C4608C4224BF0468C460C168AA
:10474000BDE810401846FEF739BBF8B50546FFF73F
:10475000F7F905F1440494F9016007E005F124003C
:10476000FFF756F808B1FFF7BDF8761E70B20128C2
:1047700002DB686A0028F1D14FF0FF366670FFF760
:10478000F8F9FFF7DDF994F9007007E005F1100082
:10479000FFF73EF808B1FFF7A5F87F1E78B20128B1
:1047A00002DB28690028F1D12670BDE8F140FFF74F
:1047B000E0B910B50446FFF7C3F9A06B441EA4414D
:1047C000FFF7D7F9E00F10BD10B50024104B53F8D8
:1047D00034201AB1641C082CF9D310BD43F83410EE
:1047E00003EBC401486010BD10B50023084901EB7C
:1047F000C3025468844203D05B1C082BF7D310BD5E
:10480000002041F83300506010BD000004ED00E0CE
:10481000C02D0020F8B504460D461646FFF790F966
:1048200004F1380797F90C1011F1010F04BF0020B3
:10483000387397F90D1011F1010F04BF0020787340
:10484000FFF797F9386828B93246294604F1240061
:10485000FEF7C3FF2046BDE8F24076E762F30F2281
:1048600062F31F4200B500BF13009646944610390C
:1048700028BFA0E80C50FAD85FEA417C28BF0CC0E2
:1048800048BF40F8042BC90728BF20F8022B48BFB7
:1048900000F8012B00BD000040F0200070472DE91A
:1048A000F14FB0B0924604910DF142013A9A2B912A
:1048B00099464A7000200AE01AF8011B0498309AC1
:1048C00090470028049000F043860D98401C0D90FE
:1048D0009AF8000050B12528EED10022002107925D
:1048E000089109920A910B920C9104E00D9800F046
:1048F00031BE41F001011AF8010F2028F9D0232818
:104900000CD02B2804D02D2805D0302809D00BE05E
:1049100041F00201EFE741F00401ECE741F008014A
:10492000E9E741F01001E6E72A280FD1D9F8002085
:1049300052F8040BC9F8002000280F9003D540421C
:104940000F9041F004010AF1010A14E00F92DFF820
:104950000C0C0AE00F9C844205DA04EB840302EBA2
:104960004302303A0F920AF1010A9AF80020A2F1AC
:1049700030030A2BEED39AF800202E2A03D04FF0F2
:10498000FF300E9029E01AF8010F2A2809D1D9F832
:10499000002052F8040BC9F800200E900AF1010A19
:1049A0001BE02D280CBF0AF1010A002000220E9204
:1049B000DFF8A85B0BE040B90E9BAB4205DA03EBD6
:1049C000830402EB4402303A0E920AF1010A9AF88B
:1049D0000020A2F130030A2BEDD3ADF840100FF602
:1049E00080309AF8001001F0EFFA08B11AF8010BC4
:1049F0008DF842009DF84200682805D19AF8001011
:104A000068290CD1622006E06C2804BF9AF80010D7
:104A10006C2904D171208DF842000AF1010A12AA12
:104A200006921AF801BBBBF125002CD01C3800F00F
:104A30009781001F022840F29381133800F0BA8456
:104A4000093800F08D81801E00F04F85401E00F077
:104A5000FC84401E022840F28381001F00F0F58490
:104A6000401F00F0F280401E00F0A484401E00F0C1
:104A7000DA80C01E0ED0801E00F09C84C01E00F0A4
:104A8000998400F03DBD0122252107928DF8481040
:104A900000F042BDD9F8000050F8044BC9F80000FE
:104AA000002C059440F0AB802B994878002800F04A
:104AB000A1804FF0FF340FF6B02001F091FA241AD4
:104AC00040F0468500F028BD01236A4602A9304621
:104AD00000F00CFE002840F03B85641EF4D13096B7
:104AE000079C12AE74B1309F16F8011B0498B847AA
:104AF0000028049000F02C850D98401C641E0D9039
:104B0000F2D130970A9C3021002C8DF800100CDD7A
:104B1000309E01236A4602A9304600F0E7FD0028D6
:104B200040F01685641EF4D13096059E089C74B141
:104B3000309F16F8011B0498B8470028049000F035
:104B400007850D98401C641E0D90F2D130970B9C88
:104B50003021002C8DF800100CDD309E01236A46B8
:104B600002A9304600F0C2FD002840F0F184641E26
:104B7000F4D1309605980899099C461874B1309F75
:104B800016F8011B0498B8470028049000F0E08450
:104B90000D98401C641E0D90F2D130970C9C302172
:104BA000002C8DF800100CDD309E01236A4602A90E
:104BB000304600F09BFD002840F0CA84641EF4D10A
:104BC00030969DF8400041077FF582AE2020002DF1
:104BD0008DF800007FF77CAE309C01236A4602A965
:104BE000204600F083FD002840F0B2846D1EF4D111
:104BF00030946DE60FF65430059000F08DBC0E9D9C
:104C0000002D04D5204601F00BFA044608E02A46A0
:104C10000021204601F020FA002814BF041B2C4676
:104C2000089400F079BCD9F8001051F8040BC9F8C9
:104C3000001020F00002002121F0FF33CDE9022313
:104C400012AC0594782100F04CBC2B99487820B127
:104C50004FF0FF340FF6C4202FE79DF84200622882
:104C600060D0682817D06A283FD06C2806D07128F9
:104C700047D074282CD07A281DD062E0D9F80010D3
:104C800051F8040BC9F80010002866D14FF0FF342A
:104C90000FF6A02011E7D9F8001051F8040BC9F85D
:104CA000001020B94FF0FF340FF6882005E70D996A
:104CB000018000F031BCD9F8001051F8040BC9F89C
:104CC0000010002849D14FF0FF340FF66820F4E6B9
:104CD000D9F8001051F8040BC9F8001000283CD195
:104CE0004FF0FF340FF64C20E7E6D9F8001051F8EA
:104CF000040BC9F8001080B94FF0FF340FF63420D0
:104D0000DBE6D9F8001051F8040BC9F8001020B9FF
:104D10004FF0FF340FF61C20CFE60D9AD317C0E9F1
:104D20000023F9E3D9F8001051F8040BC9F800107A
:104D300020B94FF0FF340FF6FC10BEE60D9901705C
:104D4000EAE3D9F8001051F8040BC9F8001020B9B3
:104D50004FF0FF340FF6DC10AFE60D990160DBE396
:104D60009DF842004C2807BFD9F80010CA1DD9F899
:104D70000000C21D22F00702C9F80020D2E900019C
:104D80000832C9F80020CDE90201C80F02D0079807
:104D90002D210AE0BDF84010880702D507982B2185
:104DA00003E0C80705D50798202112AA1154401C1A
:104DB000079012A807994BF0200300EB010CDDE9E6
:104DC0000201CDE92C01612BCDF814C021AC0BD030
:104DD0000E98002848BF062105D404BF4BF02000E0
:104DE000672801D101210E91DDE902677B0043EACA
:104DF000D6735A15DB174FF0FF30834208BF82424B
:104E000010D13F0347EA16573603002F08BF002E84
:104E100008D0ABF1610503211A2D089118D30FF6C4
:104E2000341110E0DDE902014A00521512F1010FC0
:104E300011D108030FD1ABF1610503211A2D08919F
:104E40001FD30FF6181103226046FDF7B7FF63E387
:104E50000FF6FC01F7E7DDE902016A4601F028F9E7
:104E6000CDE902014BF02000612811D105983022D4
:104E70000270811C0591BBF1610F0CBF7821582194
:104E800002E00FF6D401DEE741700798801C07901E
:104E9000DDE9020120F0000231F0004308BF002AE2
:104EA00002D10026002542E14BF02008B8F1610F45
:104EB00040F093800E98002847BF21210191401CAB
:104EC0000190019EDDE92C01761C00220023DDE922
:104ED000024501F025F938BF85F0004500988DF8AE
:104EE0008420001F002E00900DF1850732DD204642
:104EF00029460022002301F02DF92BD21C2201F0BB
:104F000043F904460D4601F0DDF9F61F002E8046F8
:104F100009DD01F0F3F902460B462046294601F06F
:104F2000BDFA04460D46F81D0721B8F1000F0CDD4F
:104F3000491E5EBF08F00F0200F8012D4FEA281845
:104F4000F3D502E0002200F8012D491EFAD5C71D55
:104F5000002ECCDC0DF185003F1A01980DF185047F
:104F60003E468742C8BF0646002E2FD4BE4206DA10
:104F70000DF18500815D0829A8BF0F2000DA00200F
:104F8000324621A98D1800E0761E15F80139521E0F
:104F90008342F9D00F2804D10DF18501885C401CB3
:104FA0008854002A04D50098001D21AC761C00907E
:104FB000701E0BD421180B783033DAB23A2AA4BF12
:104FC0005B443A3B401E01F80139F4D50E990029A3
:104FD00040F1AC80701E0E90A8E00099DFF8FC262E
:104FE00047F29750414391FBF2F20092DDE92C45E4
:104FF000C2F10702002A25F0004504DD20462946BB
:1050000000F049FB0BE052420020DFF8D41600F01C
:1050100042FB02460B462046294601F0B1FA0446FF
:105020000D46B8F1660F06BF009E0A3606260E989A
:105030003618142EC8BF142630208DF884000DF1C8
:105040008507002E34DD2046294601F0BDFB0146D0
:105050000A4607F1080C04200A27B2FBF7FE0EEB04
:105060008E03A2EB430230320CF8012C0A22BEFB65
:10507000F2F202EB8203AEEB43033033401E0CF836
:10508000023DE9D1083E002E0CF10807D9DD0846A3
:1050900001F0ACFB02460B462046294601F0FEF922
:1050A0000022DFF8403601F0AFFB04460D46CAE7A8
:1050B0000DF185003F1A0DF1850404E00098401EB3
:1050C0007F1E0090641C20783028F7D0B8F1660F5E
:1050D00002D1009E761C04E0B8F1650F0CBF0126DA
:1050E00000260E983618B742B8BF7E1E002E1DD47B
:1050F000BE4204DAA05D3428C8BF392000DC30206D
:105100003246611E8D1800E0761E15F80179521E98
:105110008742F9D0392802D1A05C401CA054002A53
:1051200004D50098401C0C46761C0090009D01F0B0
:1051300061FC406A0778DDF8388030B2002802DC74
:1051400001260FF21C644BF02000662808BF6D1C7E
:1051500016D0672845D128B210F1040F47DB40452F
:1051600045DA9DF840106D1C080703D430B2404565
:10517000D8BF804628B2B8EB000848BF4FF00008FF
:105180000FFA85FBBBF1000F00F3B3800898411CB8
:105190000891302205990A54B8F1000F03DC9DF8FC
:1051A0004010080704D50898411C089105990F5430
:1051B00018EB0B0FB8BFC8F100052DB2684245448B
:1051C00032B20B909542B8BF2E46059B089836B276
:1051D0000996324621461844FDF7F0FDAD1B0C95AB
:1051E000D1E0BBF1610F17D14FF0700B19E030B275
:1051F000404504DA9DF840100A0758BF8046B8F1D0
:10520000010848BF4FF00008BBF1670F14BF4FF013
:10521000450B4FF0650B04E0BBF1410F08BF4FF0A9
:10522000500B0898411C0891B8F1000F059914F82B
:10523000012B0A5403DC9DF8401008071AD5089882
:10524000411C0891B8F1000F05990F5412DD761E2C
:1052500030B28045B8BF46460598089B32B2214619
:105260001844FDF7ABFD089836B230180890A8EB4B
:1052700006000B9005980899014428B2002881F88F
:1052800000B003D42B204870891C04E02D224A7002
:105290000546891C6D4200202CAA0AE02B460A25EF
:1052A00093FBF5F505EB8504A3EB440302F8013B02
:1052B000401C2DB2002DF1DC012806DC4BF0200251
:1052C000652A04BF302201F8012B00282CAB08D13D
:1052D000302001F8010B06E0401E1A5C303201F864
:1052E000012B0028F8DC059A08981044091A099146
:1052F00049E031B228B281421CDA059B089832B2EB
:1053000021461844FDF75AFD089936B271180891E4
:10531000ABEB0600B8F1000F0B9003DC9DF84000EA
:10532000020704D5059847540999491C0991CDF8FD
:10533000308028E0059B08982AB221461844FDF7E2
:105340003DFD0898761B5844B8F1000F089003DC27
:105350009DF840100A0703D5411C089105990F5488
:1053600030B28045B8BF46460598089B32B204EB80
:105370000B011844FDF722FD089836B2301808904A
:10538000A8EB06000B909DF8400000F014001028D8
:1053900040F0C280079A08980B99821809988A18D9
:1053A00082180C980F998018884280F2B580081AEC
:1053B0000A90B1E09DF84200622808D068280ED01B
:1053C0006A2814D06C281FD0712810D01CE0D9F89E
:1053D000001051F8040BC9F80010C0B21AE0D9F857
:1053E000001051F8040BC9F8001080B212E0D9F88F
:1053F0000000C21D22F00702C9F80020D2E9000116
:105400000832C9F8002006E0D9F8001051F8040B62
:10541000C9F800100021CDE902019DF84000020703
:105420005AD5DDE90201002908BF002854D04BF00D
:105430002002782A50D1079912A830234354491CDE
:105440004A1C079200F801B046E09DF8420062282D
:1054500008D068280ED06A2814D06C281FD0712874
:1054600010D01CE0D9F8001051F8040BC9F8001056
:1054700040B21AE0D9F8001051F8040BC9F8001036
:1054800000B212E0D9F80000C21D22F00702C9F8EC
:105490000020D2E900010832C9F8002006E0D9F85E
:1054A000001051F8040BC9F80010C117CDE9020132
:1054B000002902D507982D220AE0BDF84000810797
:1054C00002D507982B2203E0C00705D507982022B4
:1054D00012A90A54401C079012A80799014405918B
:1054E000594602A800F04EF816E001200790D9F8BE
:1054F000001051F8040BC9F800108DF848000BE0BB
:1055000001222521BBF1000F07928DF8481003D02E
:10551000022007908DF849B00F9D07980A992D1A1F
:1055200008986D1A0B992D1A09986D1A0C992D1A55
:105530009DF840006D1A41073FF5D2AA2020002DAA
:105540008DF800007FF7CCAA309E2C46FFF7BCBA3E
:105550004FF0FF3031B0BDE8F08F0000CBCCCC0C69
:10556000686A6C747A4C00007072696E74665F735E
:105570003A2062616420257320617267756D656EE3
:10558000740000002DE9FE4C06468B4637695846EC
:105590006F2808BF082205D0FFF77EF9782814BFCE
:1055A0000A221022D6E900013C2504468A46BBF1B6
:1055B000640F18BFBBF1690F04D1002902D5644202
:1055C0006AEB4A0ABAF1000F08BF002C0CD1306B0D
:1055D00050B9082A3BD196F83810080737D5302142
:1055E0003B2587F83B1032E08DF800B0934620460B
:1055F00051465A46002301F003FA3032D0B26D1EF4
:105600003A2801950DDA7A55204651465A4600232C
:1056100001F0F6F904465FEA010A08BF002C05D143
:1056200008E09DF800001218513AECE7F16878198B
:105630008142DCD3BBF1080F09D196F8380001078D
:1056400005D5785D302802D06D1E30207855C5F123
:105650003C02306BB26179198242F16007DA318F16
:10566000821A4FF6EF7001403262318710E0002855
:105670000ED596F8380000F01400102808D1736B8E
:105680007069316A1B1A5B1A9B1A002BC8BF336200
:1056900003B0BDE8F08C2DE9D04306460F46144612
:1056A0004FF00008DFF8409012E0E00707D54246CF
:1056B0004B463046394601F0A7F806460F464046AD
:1056C000494642464B4601F09FF8641080468946A1
:1056D000002CEAD130463946BDE8D083A0860100CF
:1056E0000000F03F84D7974100002440F8B50546FC
:1056F0000E4617461C4600205CB117F8011BB06827
:10570000A847B06030B1F06A401CF0620020641E0F
:10571000F3D1F2BD4FF0FF30F2BD00007072696E40
:1057200074665F733A20256E20646973616C6C6FD8
:10573000776564007072696E74663A2062616420F5
:10574000256E20617267756D656E74000000000043
:105750006E616E004E414E00696E6600494E460015
:10576000300000000DB41EB506A801900A460024C2
:10577000009401AB05A9044878440C3001F080FA8C
:1057800003B010BC5DF810FB73C4FFFF01687148E3
:10579000814200D0704780B56F48016841F4000134
:1057A00001600022006800F4000000900521009BC9
:1057B0001420FCF7BCFABDE802401420FCF7D6BA6E
:1057C00000F52671D0F8D402FDF73CBB0B46282229
:1057D00053430344D0F8D402D3F86421FDF75DBBF2
:1057E0000B46282253430344D0F8D4025A6AFDF7EB
:1057F00092BBD0F8D402FDF725BC10B50446A079C1
:10580000022818BFFCF7E0FED4F8D4020121FDF70E
:1058100005FCD4F8D402BDE81040FDF7D7BB10B5A5
:105820000446D4F8D402FDF7FCFBA07A20B14B4922
:10583000086840F00600086010BDD0F8D402FDF7FB
:10584000F8BB10B504464648424BC0F8D442082184
:10585000C4F8C002017102220021036082714181FB
:10586000017302F0A1F808B1FCF7AEFED4F8C00253
:1058700018230022002102F0F8FDD4F8C0025823BA
:105880000022802102F0F1FDD4F8C002C0230022E2
:10589000812102F0EAFDD4F8C0024FF4887300229F
:1058A000012102F0E2FDD4F8C0024FF4807300221F
:1058B000822102F0DAFD002010BD80B5D0F8C002D0
:1058C00002F0D6F8BDE8024050E010B51C46134681
:1058D000D0F8C002224602F0F3FCBDE8104045E0DB
:1058E00080B5D0F8C00202F011FDEBE780B5D0F82A
:1058F000C00202F057FDE5E780B5D0F8C00202F023
:1059000086FDDFE7D0F8C03201F07F022820424355
:105910009818090601D5807C704790F852017047AD
:1059200080B5D0F8C00202F0BEFCCBE780B5D0F85D
:10593000C00202F01BFDC5E780B5D0F8C00202F03E
:1059400000FDBFE7D0F8C00202F008BD054870476F
:1059500000000000005C00401C10024010ED00E060
:10596000E81E0020E0260020704770470146002016
:1059700021B1022901D101207047022070470000A7
:10598000F8B50C460546207810F0600005F527763E
:1059900008D0202818BF402824D1B269936828462F
:1059A0009847ABE06278092A1CD8DFE812F0F700CC
:1059B0000C018700060187008C000A008700E200C6
:1059C000A9000021ADF800106088010A01296FD0FC
:1059D000022961D003292BD0062921D0072904BF31
:1059E000287C00286AD1B269116B68468847072273
:1059F0004270BDF8001079B1E18800290FD0BDF8E0
:105A00000010E288914288BF1146ADF800100A46A6
:105A10000146284600F0E0F9E08800286ED19BE0BE
:105A2000287C00284AD1B269516B68468847E0E774
:105A3000C0B2052842D8DFE800F028211A130B0372
:105A400070698269002A39D0287C69469047D0E77E
:105A500070694269002A31D0287C69469047C8E7BE
:105A60007069026952B3287C69469047C1E7706942
:105A7000C2681AB3287C69469047BAE770698268A1
:105A8000E2B1287C69469047B3E770694268AAB1E1
:105A9000287C69469047ACE7287CB16900286846B5
:105AA00003D1896A88470222A2E7C96A8847FAE7D0
:105AB0007369287C1A68694690479AE72146284608
:105AC00000F05BF91AE0A088002804BFE0880028F5
:105AD000F4D16788802FF1D23078032807F07F0750
